:1000000000000120190200000102000003020000AC
:1000100005020000070200000902000000000000C5
:100020000000000000000000000000000B020000C3
:100030000D020000000000000F020000110200008D
:1000400013020000A53E0000E91C0000130200009E
:10005000130200001302000013020000130200004C
:10006000130200001302000013020000130200003C
:10007000130200001302000013020000130200002C
:10008000130200001302000013020000130200001C
:10009000B140000013020000130200001302000030
:1000A0001302000013020000514800001302000078
:1000B0001302000013020000000000000000000016
:1000C00013020000130200001302000013020000DC
:1000D00013020000130200001302000000000000E1
:1000E0000000000000000000000000000000000010
:1000F0000000000000000000000000000000000000
:1001000000000000000000000000000000000000EF
:1001100000000000000000000000000000000000DF
:1001200000000000000000000000000000000000CF
:1001300000000000000000000000000000000000BF
:1001400000000000000000000000000000000000AF
:10015000000000000000000000000000000000009F
:10016000000000000000000000000000000000008F
:10017000000000000000000000000000000000007F
:10018000000000000000000000000000000000006F
:10019000000000000000000000000000000000005F
:1001A000000000000000000000000000000000004F
:1001B000000000000000000000000000000000003F
:1001C000000000000000000000000000000000002F
:1001D000000000000000000000000000000000001F
:1001E000000000000000000000000000000000000F
:1001F00000000000000000000000000000000000FF
:10020000FEE7FEE7FEE7FEE7FEE7FEE7FEE7FEE7C6
:10021000FEE7FEE700F002B8FFF7FCBF0F484FF023
:100220000701884385460E4880470E48016841F41F
:1002300070010160BFF34F8FBFF36F8F00F01AB8EA
:1002400009480A490A4A884207D0521A05D0037859
:1002500001300B700131013AF9D1704700000120E3
:100260003D1A000088ED00E0085F0000000000205B
:100270000000002039493A480A1A02D00722914367
:100280008D46384938480A1A06D00722914381F32F
:100290000988022282F3148834483549354A00F02F
:1002A0003EF835483549364A00F039F83548364980
:1002B000364A00F034F836483649374A00F02FF80D
:1002C00036483749374A00F02AF837483749384A1C
:1002D00000F025F837483849384A00F020F8384807
:1002E0003849002200F033F837483849002200F03E
:1002F0002EF837483749091A05F0F7FC364A904777
:1003000024482549884205D00268043003B4904748
:1003100003BCF7E700200021304A9047FEE78842FF
:1003200014D0521A12D003460B4313430324234222
:1003300006D1036804300B600431043AF9D17047E8
:10034000037801300B700131013AF9D170478842CE
:1003500002D002700130FAE770470000000001206F
:1003600000E000200000012000000120FC6D0000E2
:1003700000000020A0010020E0030000E0030000D6
:10038000C45E0000FC6D00000000002000000020A2
:10039000085F0000085F0000085F0000085F0000C1
:1003A000085F0000085F0000085F0000085F0000B1
:1003B000F96D00009C6F0000A0010020A00100204A
:1003C000A0010020D4260020D4260020D42600201E
:1003D000D4260020D4460020410200001110000065
:1003E00000B585B00190019B002B0AD0074B43F06C
:1003F00001030393019B9B010293039B029898477F
:1004000000E000BF05B05DF804FB00BF60600000C5
:1004100000B583B00190019B1B68184600F070F88E
:100420000346002B04D105494FF4F67001F075FD29
:100430004FF0A043184603B05DF804FB085F0000CE
:1004400000B585B00190084611461A4603468DF85E
:1004500003300B468DF8023013468DF8013001ABA6
:100460001846FFF7D5FF03909DF803209DF8023052
:100470005B001A439DF801309B001A439DF8183029
:100480001B0242EA03019DF81C301B04019A194328
:10049000039B02F5E07243F8221000BF05B05DF83F
:1004A00004FB00B585B00390002301930023009363
:1004B0000023012201210398FFF7C2FF00BF05B00E
:1004C0005DF804FB00B585B0019001AB1846FFF75D
:1004D0009FFF0390019B012202FA03F31946039840
:1004E00000F004F800BF05B05DF804FB82B0019095
:1004F0000091019B009AC3F8082500BF02B0704725
:1005000084B00190019B5B09029300230393029B3B
:10051000002B03D14FF0FF33039300BF019B03F087
:100520001F030193039A019B22FA03F303F00103D3
:10053000DBB2184604B0704786B0019000910123E9
:10054000059333E0059B9B00019A1A4403AB1068A6
:100550001860059B013B04930FE0049B9B00019AEC
:10056000D118049B01339B00019A13441A460B4691
:100570001B681360049B013B0493049B002B09DB65
:10058000049B9B00019A134493F902209DF90E30BD
:100590009A42E2DB049B01339B00019A13441A4602
:1005A00003AB18681060059B01330593059A009B07
:1005B0009A42C7DB00BF00BF06B0704708B5424B88
:1005C0001B68424A127813441A78414B1B789A42AE
:1005D00072D1404B404A05321068516803C31289FA
:1005E0001A803D4BDB7B7E2B1CD13B4B5B7C002B75
:1005F00015D0394B1B7C1BB21B021BB203F4E0630A
:100600001AB2354B5B7C1BB213431BB29AB2334B0D
:100610001A80324B1B8802339AB2304B1A80304B0F
:1006200000221A702D4B1B88F22B18D92D4B1B78EA
:100630001A462D4B13442D49274A12780A3A184678
:1006400005F074FB274B1B780E3BDAB2254B1A7072
:10065000224B1B88F23B9AB2204B1A802CE0214B94
:100660001B781A46204B134420491B4A12780A3A39
:10067000184605F05BFB184B1A781A4B1B7813448D
:10068000DBB20A3BDAB2174B1A70164B1B78013BF0
:10069000154AD35C7E2B0CD10E4B5B88114A127825
:1006A000934209D10F4B00221A700A4B00225A7054
:1006B00002E00F4B00221A7004F0BCFD0346002B31
:1006C000FAD100BF00BF08BD080B002020010020A8
:1006D00018010020100B0020A4010020FC020020C3
:1006E000FE020020FF02002004030020B3010020CE
:1006F000FA02002000B583B00190019B1B78022B09
:1007000042D0022B6ADC002B02D0012B19D065E00D
:10071000344A354BD31ADB081B0443F00403334936
:10072000184604F015FD04F085FD0346002BFAD1B0
:100730002F4B01221A7004F07DFD0346002BFAD1E5
:100740004CE0284A284BD31ADB081B0443F004036F
:100750002849184604F0FCFC04F06CFD0346002B0D
:10076000FAD1254B5B79012B06D1244B1B78013341
:10077000DAB2224B1A7001E000F04EF804F05AFD94
:100780000346002BFAD129E01D4803F0E1FD0346A2
:10079000002B22D11B4B1C4A1A601A4B1B681B787A
:1007A000002B18D1174B1A68184B1B7805331344CC
:1007B0001B78002B0DD0134B1B6801331B78012BCA
:1007C00003D1134B01221A7005E0124B01221A705B
:1007D00001E0FFF7F3FE00F09FF800BF00BF03B099
:1007E0005DF804FBDC5E0000C45E0000385F0000C2
:1007F000040B00204C5F0000000000200E0B0020C6
:10080000A4010020080B0020A901002020010020E5
:10081000A0010020A101002008B5364B01225A7327
:10082000344B9B79012B31D1334B1B68334A9342B4
:100830000DD2314B1B6804332F4A13602E4B1B68BB
:100840001B88002B06D12C4B2D4A1A6002E02A4B44
:100850002B4A1A60284B1B681A882A4B1B780533D1
:10086000D1B2244A13440A465A71234B1B681B8891
:10087000DAB2244B1B7801339B0023490B44194601
:10088000104600F09FF900F087FB30E01F4B1B681B
:100890001F4A93420DD21D4B1B6804331B4A136041
:1008A0001A4B1B681B88002B06D1184B194A1A607B
:1008B00002E0164B174A1A60144B1B681A88114B3A
:1008C0001B780333D1B20B4A13440A465A710F4BBB
:1008D0001B681B88DAB20B4B1B78013B9B000A4953
:1008E0000B441946104600F06DF900F055FB00BFAF
:1008F00008BD00BF0000002024010020D00200201D
:10090000A80200202001002004010020280100206E
:10091000F8020020D002002008B55A4B1B681B7853
:10092000012B67D1574B1B6802331B78002B61D119
:10093000554B1B889AB2554B1A80554B93F9023090
:10094000002B24DD534B1B78092B20D84F4B5B78B1
:100950001A46514B1B7801339A4218D14B4B1978E8
:100960004C4B1B781A464D4B23F82210494B1B78F1
:100970001846474B93F90210484A830013440A462D
:100980009A70444B1B780133DAB2424B1A70404BD9
:1009900093F90230002B24DD414B1B78092B20D822
:1009A0003A4B5B781A463C4B1B78013B9A4218D174
:1009B000364B19783A4B1B781A463A4B23F82210DB
:1009C000374B1B781846324B93F90210354A830097
:1009D00013440A469A70324B1B780133DAB2304B1B
:1009E0001A70314B1B780133DAB22F4B1A702F4B30
:1009F00000221A70234B1B681B78012B40D1214B1E
:100A00001B6802331B78012B3AD1234B1A781F4BFA
:100A10005A70274B1A781D4B1A700A22002125485C
:100A200005F0B6F9234B01221A70164B1A681A4BBF
:100A30001B78033313441B78002B03D01D4B00227B
:100A40005A7002E01B4B01225A701B4B19495A1D68
:100A50000B4603CB106051601B881381174A0B4B68
:100A60001B881380144B0C221A70134B9B79012B9B
:100A700003D1134B01221A7002E0124B01221A70AB
:100A800000BF08BD080B0020B3010020F8020020C1
:100A9000A40100200C0B002020010020A80200204F
:100AA0000D0B0020D00200200E0B0020040B0020B4
:100AB00018010020100B0020000000200F00002073
:100AC000A0010020A10100204FF080430022C3F8C4
:100AD00000214FF0804301221A6000BF4FF0804395
:100AE000D3F80031002BF9D000BF00BF704708B524
:100AF000012000F07BFC00BF08BD000030B58DB0C8
:100B00002A4B01AC1D460FCD0FC495E8030084E8C5
:100B1000030001238DF804300123ADF812304FF4A7
:100B20001673ADF8103001238DF80C30204B029372
:100B300000238DF8053000238DF8183001AB1846DE
:100B400003F0F8F90B900B9B0A930A9B002B01D042
:100B50000A9B27E0174B1B789B00174A1344184643
:100B600003F03AFD0B900B9B0993099B002B01D0DE
:100B7000099B17E0114803F077FD0B900B9B08933E
:100B8000089B002B01D0089B0CE001210C4803F0CE
:100B9000DBFD0B900B9B0793079B002B01D0079B62
:100BA00000E00B9B18460DB030BD00BF5C5F00003D
:100BB000F50600002001002004010020140100209F
:100BC0001801002000B587B0034600918DF807306A
:100BD000009803F001FD0590059B0493049B002BF6
:100BE00001D0049B1DE0114803F03EFD0590059BDC
:100BF0000393039B002B01D0039B12E00DF107032D
:100C00000121184603F0A0FD0590059B0293029B6D
:100C1000002B01D0029B04E003F096FC03F0B4FC2F
:100C2000059B184607B05DF804FB00BF14010020C7
:100C300000B583B000238DF8073001238DF806300E
:100C40005A4B00221A705A4B00221A70594B1B78CB
:100C5000002B03D102238DF807300AE0554B1B7897
:100C6000042B03D101238DF8073002E003238DF814
:100C700007309DF8073003F00103002B41D04E4BA5
:100C800000221A7032E04D4B1B78002B0CD14A4BDE
:100C90001A78484B1B78013BDBB21946104600F02E
:100CA0009DF801238DF806309DF80630002B17D0F3
:100CB000424B1B78002B13D000238DF8063003F035
:100CC00043FC03F061FC3E4B1A783A4B1B789B00C7
:100CD0003C490B4419461046FFF774FF03F0A6FB8E
:100CE000354B1B780133DAB2334B1A70324B1B7819
:100CF000FF2BC8D12E4B1B78013B19463248FFF71A
:100D00001BFC9DF8073003F00203002B41D02A4B57
:100D100000221A7032E0294B1B78002B0CD1264B95
:100D20001A78244B1B780133DBB21946104600F0C9
:100D300055F801238DF806309DF80630002B17D0AA
:100D40001E4B1B78002B13D000238DF8063003F0C8
:100D5000FBFB03F019FC1A4B1A78164B1B789B000F
:100D600018490B4419461046FFF72CFF03F05EFBB1
:100D7000114B1B780133DAB20F4B1A700E4B1B78F4
:100D8000FF2BC8D1094B1B78013B19460F48FFF7D1
:100D9000D3FB0F4B00221A700E4B0C4A1A600E4BFD
:100DA000094A1A6000BF03B05DF804FB0C0B002079
:100DB0000D0B0020200100200E0B0020040B002052
:100DC0001801002004010020D0020020A802002009
:100DD0001A0B0020240100202801002000B583B058
:100DE00003460A468DF8073013468DF8063003F0A7
:100DF00073FB9DF806309B001D4A1A449DF807308E
:100E000011461846FFF7DEFE0A220021194804F0B9
:100E1000BFFF184B01221A70164B01225A80164B45
:100E20001B781946154B1A78124B0B441A71144B48
:100E300010495A1D0B4603CB106051601B8813816B
:100E4000104B04221049184604F070FF0C4B0E2280
:100E50001A700B4803F092F90346002B03D14CF2B1
:100E60005030FFF7BDFA00BF03B05DF804FB00BFD0
:100E700004010020100B0020200100201801002098
:100E8000000000200F000020B45F000000B583B018
:100E900003468DF80730364B1B78012B2DD1344B90
:100EA00000221A704CF25030FFF79AFA03F014FB4C
:100EB000304B1B78002B0AD12F4B1B781A462F4939
:100EC0002F4804F033FF2C4B1A782E4B1A702D4B01
:100ED0000022DA702C4B01221A702C4B1B78053340
:100EE000254A13445A79294B1B7801339B00284922
:100EF0000B4419461046FFF765FE264B1B78012B65
:100F000031D1244B00221A704CF25030FFF768FAAE
:100F100003F0E2FA174B1B78002B0AD1164B1B7813
:100F20001A461649164804F001FF134B1A78154B60
:100F30001A70144B0022DA70134B01221A70134BF3
:100F40001B78002B0FD0114B1B7803330A4A134434
:100F50005A790E4B1B78013B9B000D490B441946F7
:100F60001046FFF72FFE00BF03B05DF804FB00BF83
:100F7000A0010020100B0020A4010020A9010020E6
:100F800005000020000000200003002020010020B8
:100F900004010020A101002008B5154B00221A70A1
:100FA00003F09AFA134803F0E9F80346002B11D135
:100FB0004CF25030FFF714FA0F4B1A780F4B1B7896
:100FC0009B000F490B4419461046FFF7FBFD03F049
:100FD0002DFA0AE00B4A0C4BD31ADB081B0443F032
:100FE00003030A49184604F0B3F800BF08BD00BF68
:100FF0000003002000000020180100202001002034
:1010000004010020DC5E0000C45E0000B85F000048
:1010100000B589B0FFF76BFD0720FFF742FA072004
:10102000FFF750FA0021002003F0C4FD0790079B52
:101030000693069B002B05D03F4A4FF45271069849
:1010400000F064FE03F04CFDFFF73EFDFFF756FD98
:101050000790079B0593059B002B05D0364A4FF45C
:101060005471059800F052FE344A354BD31ADB0810
:101070001B0443F004033349184604F069F803F0F5
:10108000D5F90790079B0493049B002B05D02A4AAF
:1010900040F25531049800F039FE0020FFF7F6FECB
:1010A000294B1B78DBB2012B01D1FFF775FF274BD2
:1010B0001B78012B01D1FFF7BBFD254B1B78012BC2
:1010C000EBD1244B00221A70224B01225A70224B82
:1010D0001B781946214B1A781E4B0B441A71204B72
:1010E0001B88DAB21B4B9A711D4B9B88DAB2194BE5
:1010F000DA711C4B17495A1D0B4603CB1060516027
:101100001B881381184B06221849184604F00EFE5E
:10111000134B1B88DAB2104B1B7801339B00144928
:101120000B4419461046FFF74DFDFFF735FF084BFE
:1011300000221A70B1E700BFD05F0000DC5E000043
:10114000C45E000028600000000300201A0B00208D
:101150001B0B0020100B0020200100201801002094
:10116000A8020020000000200F00002058600000AE
:101170000401002000B583B00190019B1B68184654
:1011800000F0B5F80346002B04D105494FF4F67082
:1011900000F0C3FE4FF0A043184603B05DF804FB17
:1011A0006860000000B585B00190084611461A46F7
:1011B00003468DF803300B468DF8023013468DF848
:1011C000013001AB1846FFF7D5FF03909DF80320CF
:1011D0009DF802305B001A439DF801309B001A43D2
:1011E0009DF818301B0242EA03019DF81C301B04D5
:1011F000019A1943039B02F5E07243F8221000BFE5
:1012000005B05DF804FB00B585B0039000230193A1
:10121000002300930023012201210398FFF7C2FF5E
:1012200000BF05B05DF804FB00B585B003900B4628
:101230008DF80B309DF80B300022019200220092B5
:10124000002200210398FFF7ADFF00BF05B05DF855
:1012500004FB00B585B0019001AB1846FFF78AFF8B
:101260000390019B012202FA03F31946039800F050
:101270002AF800BF05B05DF804FB00B585B0019009
:1012800001AB1846FFF776FF0390019B012202FA9B
:1012900003F31946039800F020F800BF05B05DF88D
:1012A00004FB00B583B001900091009B002B03D19B
:1012B0000198FFF7E2FF02E00198FFF7CAFF00BFC5
:1012C00003B05DF804FB82B001900091019B009A8D
:1012D000C3F8082500BF02B0704782B001900091AA
:1012E000019B009AC3F80C2500BF02B0704784B080
:1012F0000190019B5B09029300230393029B002B47
:1013000003D14FF0FF33039300BF019B03F01F0392
:101310000193039A019B22FA03F303F00103DBB26A
:10132000184604B07047000000B583B00190019BDF
:10133000032B03D90749472000F0EFFD064A019B24
:1013400013441B7801211846FFF7ABFF00BF03B021
:101350005DF804FB98600000E460000000B583B015
:101360000023019305E00198FFF7DEFF019B0133A5
:101370000193019B032BF6D900BF00BF03B05DF8BA
:1013800004FB000000B583B00023019309E0094A83
:10139000019B13441B781846FFF735FF019B01336F
:1013A0000193019B032BF2D9FFF7D8FF00BF03B0D5
:1013B0005DF804FBE460000000B583B000230193F6
:1013C0000AE0094A019B13441B7803211846FFF7E2
:1013D0002BFF019B01330193019B032BF1D900BF2C
:1013E00000BF03B05DF804FBE860000000B583B007
:1013F0000190019B03F00103002B01D0FFF7C2FF16
:10140000019B03F00203002B01D0FFF7D5FF00BFC3
:1014100003B05DF804FB0000BFF34F8F00BF064B25
:10142000DB6803F4E0620449044B1343CB60BFF371
:101430004F8F00BF00BFFDE700ED00E00400FA059C
:1014400082B01D4B1B68B3F1FF3F0AD11B4B1B68D9
:10145000DBB201931A4B1B681B0903F00F030093C7
:1014600005E0154B1B680193164B1B680093019B0D
:10147000062B1DD1009B033B042B17D801A252F869
:1014800023F000BF991400009D140000A114000077
:10149000A5140000A914000001230AE0012308E0BC
:1014A000012306E0012304E0012302E0012300E020
:1014B0000023184602B0704730010010E00F00F022
:1014C000E80F00F03401001082B0174B1B68DBB24C
:1014D0000193164B1B681B0903F00F030093019B3C
:1014E000062B1DD1009B033B042B17D801A252F8F9
:1014F00023F000BF091500000D15000011150000B4
:10150000151500001915000001230AE0002308E06A
:10151000002306E0002304E0002302E0002300E0B3
:101520000023184602B07047E00F00F0E80F00F00B
:1015300082B01D4B1B68B3F1FF3F0AD11B4B1B68E8
:10154000DBB201931A4B1B681B0903F00F030093D6
:1015500005E0154B1B680193164B1B680093019B1C
:10156000062B1DD1009B033B042B17D801A252F878
:1015700023F000BF891500008D15000091150000B3
:10158000951500009915000001230AE0012308E0E9
:10159000012306E0012304E0012302E0012300E02F
:1015A0000023184602B0704730010010E00F00F031
:1015B000E80F00F03401001082B0174B1B68DBB25B
:1015C0000193164B1B681B0903F00F030093019B4B
:1015D000062B1DD1009B033B042B17D801A252F808
:1015E00023F000BFF9150000FD15000001160000F2
:1015F000051600000916000001230AE0002308E098
:10160000002306E0002304E0002302E0002300E0C2
:101610000023184602B07047E00F00F0E80F00F01A
:1016200082B01D4B1B68B3F1FF3F0AD11B4B1B68F7
:10163000DBB201931A4B1B681B0903F00F030093E5
:1016400005E0154B1B680193164B1B680093019B2B
:10165000062B1DD1009B033B042B17D801A252F887
:1016600023F000BF791600007D16000081160000EF
:10167000851600008916000001230AE0012308E016
:10168000012306E0012304E0012302E0012300E03E
:101690000023184602B0704730010010E00F00F040
:1016A000E80F00F03401001082B0174B1B68DBB26A
:1016B0000193164B1B681B0903F00F030093019B5A
:1016C000062B1DD1009B033B042B17D801A252F817
:1016D00023F000BFE9160000ED160000F11600002F
:1016E000F5160000F916000001230AE0002308E0C7
:1016F000002306E0002304E0002302E0002300E0D2
:101700000023184602B07047E00F00F0E80F00F029
:1017100082B0174B1B68DBB20193164B1B681B0989
:1017200003F00F030093019B062B1DD1009B033B8D
:10173000042B17D801A252F823F000BF5117000064
:1017400055170000591700005D17000061170000D1
:1017500001230AE0002308E0002306E0002304E060
:10176000002302E0002300E00023184602B0704787
:10177000E00F00F0E80F00F082B01D4B1B68B3F1E2
:10178000FF3F0AD11B4B1B68DBB201931A4B1B684E
:101790001B0903F00F03009305E0154B1B68019331
:1017A000164B1B680093019B062B1DD1009B033B2E
:1017B000042B17D801A252F823F000BFD117000064
:1017C000D5170000D9170000DD170000E117000051
:1017D00000230AE0002308E0012306E0012304E0DF
:1017E000012302E0012300E00023184602B0704705
:1017F00030010010E00F00F0E80F00F0340100109D
:1018000082B01D4B1B68B3F1FF3F0AD11B4B1B6815
:10181000DBB201931A4B1B681B0903F00F03009303
:1018200005E0154B1B680193164B1B680093019B49
:10183000062B1DD1009B033B042B17D801A252F8A5
:1018400023F000BF591800005D1800006118000067
:10185000651800006918000001230AE0012308E070
:10186000012306E0012304E0012302E0012300E05C
:101870000023184602B0704730010010E00F00F05E
:10188000E80F00F03401001082B01D4B1B68B3F16B
:10189000FF3F0AD11B4B1B68DBB201931A4B1B683D
:1018A0001B0903F00F03009305E0154B1B68019320
:1018B000164B1B680093019B062B1DD1009B033B1D
:1018C000042B17D801A252F823F000BFE118000042
:1018D000E5180000E9180000ED180000F1180000FC
:1018E00001230AE0012308E0012306E0012304E0CC
:1018F000012302E0012300E00023184602B07047F4
:1019000030010010E00F00F0E80F00F0340100108B
:1019100082B0154B1B680193144B1B680093019B0D
:10192000062B1DD1009B033B042B17D801A252F8B4
:1019300023F000BF491900004D19000051190000A3
:10194000551900005919000000230AE0002308E09F
:10195000002306E0012304E0012302E0012300E06C
:101960000023184602B07047300100103401001007
:1019700082B0154B1B680193144B1B680093019BAD
:10198000062B1DD1009B033B042B17D801A252F854
:1019900023F000BFA9190000AD190000B119000023
:1019A000B5190000B919000000230AE0002308E07F
:1019B000002306E0002304E0012302E0012300E00D
:1019C0000023184602B070473001001034010010A7
:1019D00008B5FFF7CDFF0346002B07D04FF01023CB
:1019E0004FF08042D3F80832C2F8583500BF08BD26
:1019F00000BF044BD3F80034002BFAD000BF00BF67
:101A0000704700BF00E0014000B583B00190054A77
:101A1000019BC2F80435FFF7EBFF00BF03B05DF890
:101A200004FB00BF00E00140024B034A1A6000BF04
:101A3000704700BF2C0100200090D00308B5FFF7CD
:101A4000FFFC0346002B06D0964B1B681B0A964AE8
:101A500003F01F031360FFF737FD0346002B02D08E
:101A6000924B934A1A60FFF763FD0346002B06D0A2
:101A7000904B1B685B0B904A03F007031360FFF762
:101A80009BFD0346002B05D08C4BDB688B4A23F073
:101A90008073D360FFF7C4FD0346002B0ED04FF0D8
:101AA00080430022C3F80C214FF080430022C3F88A
:101AB00010214FF080430022C3F83825FFF7F4FDD2
:101AC0000346002B02D07E4B03221A60FFF720FE54
:101AD0000346002B0BD07B4B05221A607A4B012268
:101AE0001A607A4B00221A60794B3F221A60FFF786
:101AF00043FE0346002B76D04FF08053754AD3F84F
:101B00000434C2F820354FF08053724AD3F80834B9
:101B1000C2F824354FF080536E4AD3F80C34C2F823
:101B200028354FF080536B4AD3F81034C2F82C3567
:101B30004FF08053674AD3F81434C2F830354FF071
:101B40008053644AD3F81834C2F834354FF08053C8
:101B5000604AD3F81C34C2F840354FF080535D4AD8
:101B6000D3F82034C2F844354FF08053594AD3F8A3
:101B70002434C2F848354FF08053564AD3F82834FD
:101B8000C2F84C354FF08053524AD3F82C34C2F887
:101B900050354FF080534F4AD3F83034C2F85435A3
:101BA0004FF080534B4AD3F83434C2F860354FF0CD
:101BB0008053484AD3F83834C2F864354FF0805324
:101BC000444AD3F83C34C2F868354FF08053414A58
:101BD000D3F84034C2F86C354FF080533D4AD3F807
:101BE0004434C2F87035FFF70BFE0346002B05D0D6
:101BF000394B1B68394A03F04F031360FFF744FE6B
:101C00000346002B0DD04FF08043D3F8003403F08F
:101C10000103002B05D04FF080436FF00102C3F8A1
:101C20000024FFF775FE0346002B05D02C4B1B68E4
:101C30002B4A43F4806313602A4BD3F88830294A37
:101C400043F47003C2F88830BFF34F8F00BFBFF377
:101C50006F8F00BFFFF7BCFE4FF01023D3F80032A8
:101C6000002B05DB4FF01023D3F80432002B15DADC
:101C70000120FFF7C9FE4FF010231522C3F8002200
:101C8000FFF7B6FE4FF010231522C3F80422FFF72A
:101C9000AFFE0020FFF7B8FEFFF7BEFBFFF7C4FE64
:101CA00000BF08BD240300104035014074C0074048
:101CB0000DF0ADBA440200103C050040F0ED00E02C
:101CC000A0050040105600408856004018560040BD
:101CD0001456004000C0004058020010E40E0040BE
:101CE0003C17004000ED00E008B5064B1B68002BD8
:101CF00003D10549512000F010F9024B1B689847A9
:101D000008BD00BF1C0B0020F060000000B583B0D0
:101D100002900091019244F2010071466A4600F07F
:101D200017F803B000BD00BFBFF34F8F00BF064BD5
:101D3000DB6803F4E0620449044B1343CB60BFF358
:101D40004F8F00BF00BFFDE700ED00E00400FA0583
:101D500030B58BB007900691059272B600BF03F0C4
:101D6000A5FC03F067FA0346002BFAD1079B44F267
:101D70000102934216D0079B44F2020293423ED1E5
:101D8000059B09932C4A2D4BD31ADB081B0443F007
:101D90000100099B5B681A46099B1B68284903F0F0
:101DA000F6F939E0059B0893234A244BD31ADB0844
:101DB0001B0443F00104089B9D68089B9B68184620
:101DC00000F0D2FF03461846089B5B681946089B43
:101DD0001B68069A02920193009103462A4619490C
:101DE000204603F0FEF9144A144BD31ADB081B04F7
:101DF00043F001031449184603F0AAF90CE00E4A17
:101E00000E4BD31ADB081B0443F00103069A0F495B
:101E1000184603F0ABF900BF074A084BD31ADB089A
:101E20001B0443F00300059B0093069B079A084997
:101E300003F0C1F9FFF778FFDC5E0000C45E00002C
:101E4000C0620000DC620000046300001863000050
:101E50003063000072B600BF034B1B680133024AB7
:101E6000136000BF704700BF240B0020064B1B68A7
:101E7000013B054A1360044B1B68002B01D162B67D
:101E800000BF00BF704700BF240B002000B583B027
:101E9000019000F025F80346012B03D004494320AC
:101EA00000F03BF8FFF7D6FF00BF03B05DF804FB7E
:101EB0005463000000B583B003468DF8073000F08E
:101EC0000FF80346012B03D00449512000F025F8F8
:101ED000FFF7CCFF00BF03B05DF804FB54630000C4
:101EE00084B0EFF305830193019BC3F308030393CD
:101EF000039B002B0DD1EFF314830093009B0293FF
:101F0000029B03F00103002B0CBF01230023DBB273
:101F100000E00123184604B0704700B585B00346C1
:101F20000091ADF80630BDF806300293009B039394
:101F300002AB1A46002144F20200FFF709FF00BF7E
:101F400005B05DF804FB10B487B001900091019BCF
:101F5000009A53E8004F104643E8000191F0000F4B
:101F6000F7D1059404900391059B184607B05DF8DE
:101F7000044B704710B487B001900091019B009A08
:101F800053E8004F44EA020043E8000191F0000FDB
:101F9000F6D1059404900391049B184607B05DF8B0
:101FA000044B704710B487B001900091019B009AD8
:101FB00053E8004F04EA020043E8000191F0000FEB
:101FC000F6D1059404900391059B184607B05DF87F
:101FD000044B704710B487B001900091019B009AA8
:101FE00053E8004F04EB020043E8000191F0000FBA
:101FF000F6D1059404900391049B184607B05DF850
:10200000044B704710B487B001900091019B009A77
:1020100053E8004FA4EB020043E8000191F0000FE9
:10202000F6D1059404900391049B184607B05DF81F
:10203000044B704700B583B0019001210198FFF770
:1020400099FF0346184603B05DF804FB00B583B062
:10205000019000210198FFF7A5FF0346184603B041
:102060005DF804FB00B583B001900B468DF803309A
:10207000019B002B03D10849E820FFF74EFF019B8D
:10208000DA689DF803300199098A01FB03F31344D0
:10209000184603B05DF804FBB063000000B583B0E0
:1020A00001900091019B002B03D10849F520FFF717
:1020B00034FF009B019AD2689B1A019A128AB3FBE3
:1020C000F2F3DBB2184603B05DF804FBB063000026
:1020D00000B585B00190019B002B01D10E234CE08F
:1020E000019B1B68002B03D12649FF20FFF715FF3A
:1020F000019B5B68002B04D122494FF48070FFF7ED
:102100000CFF019B9B68002B04D11E4940F201107B
:10211000FFF703FF019BDB68002B04D119494FF443
:102120008170FFF7FAFE019B1B8A002B04D1154931
:1021300040F20310FFF7F1FE019B9A68019B5B6878
:10214000D31A8DF80F30019B1B68019A52681A60F0
:1021500007E0019B1A681368591C11609DF80F2055
:102160001A709DF80F305A1E8DF80F20002BF0D1F9
:10217000019B1B6800221A710023184605B05DF808
:1021800004FB00BFB063000000B585B00190019B67
:10219000002B04D11C494FF49270FFF7BEFE0023C0
:1021A00003930020FFF772FE019B1B681A68019BD6
:1021B0005B689A421FD9019B1B681A68013A1A6032
:1021C0001B681B7819460198FFF74CFF0390019B91
:1021D0009A68019B1B681B68D31A8DF80B30019B12
:1021E0001B681B799DF80B209A4204D9019B1B6840
:1021F0009DF80B201A710020FFF75CFE039B184628
:1022000005B05DF804FB00BFB063000010B584B0FA
:1022100001900091019B002B04D1114940F247101D
:10222000FFF77BFE009B002B04D10D494FF4A470F7
:10223000FFF773FE009B03930020FFF727FE019B2F
:102240001B681C68621C1A6003990198FFF726FF3F
:10225000034623700020FFF72DFE00BF04B010BD21
:10226000B063000000B583B00190019B002B03D147
:102270000C493120FFF751FE019B9B68002B0CD0CD
:10228000019B5B69019A1069019A1168019A926831
:102290009847019B00229A6000E000BF03B05DF800
:1022A00004FB00BF086400000EB400B584B00190C8
:1022B000019B002B03D118494220FFF72EFE019B02
:1022C0005B69002B03D114494320FFF726FE019BD5
:1022D0001B68002B03D110494420FFF71EFE019B11
:1022E0005B68002B03D10C494520FFF716FE059BC8
:1022F000002B0AD00023039306AB039303AB1A46CB
:102300000599019800F0B8F900E000BF04B05DF84D
:1023100004EB03B0704700BF0864000000B583B051
:1023200001900B468DF803309DF803300A2B03D142
:102330000D210198FFF7F2FF019B1A68019B9B6832
:10234000581C0199886013449DF803201A70019B62
:102350009A68019B5B689A4202D30198FFF782FF5B
:1023600000BF03B05DF804FB00B587B00390029195
:102370000192009300230593009B03F00103002BBF
:1023800024D00BE0029B01330293059B013305939C
:102390009DF8133019460398FFF7C0FF029B1B7886
:1023A0008DF813309DF81330002BEBD106E0019B24
:1023B000013B019320210398FFF7B0FF019A059B91
:1023C0009A422ED9019B002BF1D12AE0029B002BCF
:1023D0000BD0029803F094FC059006E0019B013BB2
:1023E000019320210398FFF799FF019A059B9A42D8
:1023F0000FD9019B002BF1D10BE0029B013302931B
:10240000059B013305939DF8133019460398FFF798
:1024100085FF029B1B788DF813309DF81330002B3D
:10242000EBD100BF07B05DF804FB000000B589B038
:102430000390029101920093029B0793012306935C
:1024400007E0079A019BB2FBF3F30793069B013366
:102450000693079A019B9A42F3D2009A069B9A42EE
:1024600001D9009B06930B9B03F00103002B22D1A3
:102470000A9B002B1FD00B9B03F00203002B06D0FE
:10248000009B002B03D130238DF8173002E020236E
:102490008DF8173008E00A9B013B0A939DF817302E
:1024A00019460398FFF73AFF0A9B002B03D0069AC0
:1024B0000A9B9A42EFD301230793009B012B03D978
:1024C000009B013B009309E0029A079BB2FBF3F3E8
:1024D0000493049A019B9A4200D205E0079B019A5B
:1024E00002FB03F30793E8E7029A079BB2FBF3F3BF
:1024F0000493049B079A02FB03F3029AD31A0293F4
:10250000154A049B13441B7819460398FFF706FFEE
:10251000079A019BB2FBF3F30793079B002BE3D1D0
:102520000B9B03F00103002B11D00A9B002B0ED054
:1025300006E00A9B013B0A9320210398FFF7EEFE79
:102540000A9B002B03D0069A0A9B9A42F1D300BF44
:1025500009B05DF804FB00BFAC64000000B589B0B1
:102560000590049103920293049B002BB8BF5B4239
:1025700006930123079307E0039B069A92FBF3F36C
:102580000693079B01330793039B069A9A42F3DA5B
:10259000029A079B9A4201D9029B07930A9B002B40
:1025A0000AD0049B002B04DB0B9B03F00403002BDD
:1025B00002D00A9B013B0A930B9B03F00203002B02
:1025C00002D0029B002B16D00B9B03F00103002BC3
:1025D00011D10A9B002B0ED006E00A9B013B0A9307
:1025E00020210598FFF79AFE0A9B002B03D0079A3B
:1025F0000A9B9A42F1D3049B002B07DA049B5B42AF
:1026000004932D210598FFF789FE08E00B9B03F04A
:102610000403002B03D02B210598FFF77FFE0B9BB3
:1026200003F00203002B19D00B9B03F00103002BD6
:1026300014D1029B002B11D10A9B002B0ED006E077
:102640000A9B013B0A9330210598FFF767FE0A9B1E
:10265000002B03D0079A0A9B9A42F1D304990B9B53
:1026600001930A9B0093029B039A0598FFF7DEFEF5
:1026700000BF09B05DF804FB00B58FB00590049170
:102680000392059B002B04D1AD4940F25220FFF785
:1026900044FC059B5B69002B04D1A9494FF41570DC
:1026A000FFF73BFC059B1B68002B04D1A44940F2BB
:1026B0005520FFF732FC059B5B68002B04D1A04935
:1026C00040F25620FFF729FC049B002B00F0938179
:1026D000049B1B788DF83730049B013304939DF8DD
:1026E0003730002B00F07E819DF83730252B40F0ED
:1026F0006D8100230A9301230C93049B1B788DF8B2
:1027000037309DF83730302B0DD0302B1BDC2B2B86
:1027100011D02D2B17D10A9B43F001030A93049B80
:102720000133049312E00A9B43F002030A93049BD3
:10273000013304930AE00A9B43F004030A93049BC9
:102740000133049302E000230C9300BF0C9B002B89
:10275000D3D1002309939DF837302A2B0CD1039B4A
:102760001B68191D039A11601B68099A1344099389
:10277000049B013304931AE0049B1B788DF83730D7
:102780009DF837302F2B12D99DF83730392B0ED8C2
:10279000049B01330493099A13469B0013445B0086
:1027A0001A469DF837301344303B0993D3E7002392
:1027B0000B93049B1B788DF837309DF837302E2B08
:1027C0001DD1049B01330493049B1B788DF8373093
:1027D0009DF837302F2B12D99DF83730392B0ED872
:1027E000049B013304930B9A13469B0013445B0034
:1027F0001A469DF837301344303B0B93E4E7049BB3
:102800001B788DF837309DF837306C2B03D09DF84E
:102810003730682B07D1049B01330493049B1B784A
:102820008DF83730EFE79DF83730252B00F0C48066
:10283000252BC0F2C680782B00F3C380582BC0F242
:10284000C080583B202B00F2BC8001A252F823F03C
:1028500045290000C3290000C3290000C329000046
:10286000C3290000C3290000C3290000C3290000B8
:10287000C3290000C3290000C3290000D528000097
:10288000F7280000C3290000C3290000C329000065
:10289000C3290000F7280000C3290000C329000055
:1028A000C3290000C3290000C3290000C329000078
:1028B00085290000C3290000C32900006929000000
:1028C000C32900001B290000C3290000C329000000
:1028D00045290000039B1B68191D039A11601B68A2
:1028E0000C930C9B8DF81F309DF81F3019460598EE
:1028F000FFF714FD66E0039B1B68191D039A116026
:102900001B680C930A9B0193099B00930B9B0A2263
:102910000C990598FFF722FE54E0039B1B68191DD4
:10292000039A11601B680C930C990A9B0193099BF5
:1029300000930B9B0A220598FFF778FD42E000BF49
:1029400058640000039B1B68191D039A11601B68E3
:102950000C930C990A9B0193099B00930B9B1022EB
:102960000598FFF763FD2DE0039B1B68191D039A73
:1029700011601B6808930A9B099A08990598FFF74C
:10298000F3FC1FE0039B1B68191D039A11601B6871
:102990000C9330210598FFF7C1FC78210598FFF7CB
:1029A000BDFC0C99002301930823009308231022F7
:1029B0000598FFF73BFD05E025210598FFF7AEFCE4
:1029C00000E000BF049B0133049305E09DF837301D
:1029D00019460598FFF7A2FC049B1B78002B7FF497
:1029E00077AE00E000BF059B1B7B002B04D0059851
:1029F000FFF738FC00E000BF0FB05DF804FB00BF3C
:102A000000B583B001900198FFF762FB03461846BA
:102A100003B05DF804FB00B58BB001900091019B01
:102A20001B8A043B0793009A079B1344DA1C079BFD
:102A3000B2FBF3F38DF81B300198FFF7A5FB05906F
:102A4000059B002B01D1002338E0059B00221A7161
:102A5000059B01225A71079B9AB2059BDA80059B60
:102A600009939DF81B30013B0493099B019A1A605E
:102A7000002308931DE00198FFF786FB0390039B5A
:102A8000002B0ED0059B5B790133DAB2059B5A719E
:102A9000099B039A1A60039B019A1A60039B09938E
:102AA00004E0059800F00EF8002307E0089B0133CE
:102AB0000893089A049B9A42DDD3059B18460BB0F5
:102AC0005DF804FB00B58BB00190019B0793079B59
:102AD0005B798DF81B30019B08939DF81B30013BFF
:102AE00005930023099305E0089B1B680893099B45
:102AF00001330993099A059B9A42F5D3089B1B68F9
:102B00000493019B0893002309930BE0089B1B6827
:102B1000039308990498FFF779FB039B0893099B9B
:102B2000013309939DF81B30099A9A42EED300BFF6
:102B300000BF0BB05DF804FB00B585B00190019BB0
:102B40000393039B043301211846FFF743FA00BFA8
:102B500005B05DF804FB00B587B00190019B0593BB
:102B6000059B043301211846FFF74CFA03460393F3
:102B700003AB0493049B1B78002B02D10198FFF751
:102B8000A1FF00BF07B05DF804FB000000B591B0E5
:102B90000390029101920093039B002B03D14349C0
:102BA000B620FFF7BAF9039B0993039B0F93099B88
:102BB000DB881A46099B5B7902FB03F3043B08930D
:102BC000009A089B9A4203D33849C420FFF7A5F91D
:102BD000099BDB880793009B1A1D079BB2FBF3F34D
:102BE0000E93009B0433079AB3FBF2F2079901FBA3
:102BF00002F29B1A0D93019B1A68009B1344089ADA
:102C00009A4203D2089A009BD31A01E0019B1B68E9
:102C10000C93019B0C9A1A6005E00F9B1B680F93A5
:102C20000E9B013B0E930E9B002BF6D100230B93C2
:102C3000079A0D9BD31A0A930A9A0C9B934228BFBA
:102C400013460A932AE0029A0B9B134406930F9AA9
:102C50000D9B1344043305939DF84830002B05D099
:102C60000A9A0599069803F061F804E00A9A069911
:102C7000059803F05BF800230D930F9B1B680F93DF
:102C80000C9A0A9BD31A0C930B9A0A9B13440B932E
:102C9000079A0C9B934228BF13460A930C9B002B68
:102CA000D1D100BF00BF11B05DF804FBBC640000CF
:102CB00000B589B00590049103920293039B07939A
:102CC00007AA00230093029B04990598FFF75EFF73
:102CD000079B039A9A4203D00349F620FFF71DF998
:102CE00000BF09B05DF804FBBC64000000B589B00A
:102CF0000590049103920293039B079307AA012373
:102D00000093029B04990598FFF740FF079B039AE5
:102D10009A4204D004494FF48070FFF7FEF800BFD8
:102D200009B05DF804FB00BFBC64000082B00190F4
:102D3000019B9B6800229A60019B9B6800221A619C
:102D4000019B9B6800225A61019B9B680022DA600C
:102D5000019B9B6800225A60019B9B6800221A60BD
:102D600000BF02B07047000000B585B00190019827
:102D700000F00EF80390039B002B01D0039B00E0B2
:102D8000024B184605B05DF804FB00BF1465000057
:102D900086B00190164B0593164B04931FE0049ADE
:102DA000059BD31ADB10DA0F13445B10DB00059A86
:102DB00013440393039B1B680293029A019B9A425C
:102DC00002D9039B04930AE0029A019B9A4203D220
:102DD000039B0833059302E0039B5B6804E0059ABC
:102DE000049B9A42DBD30023184606B0704700BF0D
:102DF000E8680000006A000082B003468DF80730E2
:102E00009DF90730002B0CDB9DF8073003F01F0203
:102E100005499DF907305B09012000FA02F241F8EB
:102E2000232000BF02B0704700E100E082B00346FB
:102E30008DF807309DF90730002B13DB9DF8073024
:102E400003F01F0209499DF907305B09012000FAD0
:102E500002F2203341F82320BFF34F8F00BFBFF3AE
:102E60006F8F00BF00BF02B0704700BF00E100E0FD
:102E700082B003468DF807309DF90730002B0DDB3B
:102E80009DF8073003F01F0206499DF907305B09E2
:102E9000012000FA02F2403341F8232000BF02B0C3
:102EA000704700BF00E100E082B003468DF80730B4
:102EB0009DF90730002B0DDB9DF8073003F01F0252
:102EC00006499DF907305B09012000FA02F26033E0
:102ED00041F8232000BF02B0704700BF00E100E0CE
:102EE00082B0034600918DF807309DF90730002B22
:102EF0000ADB009BDAB20C499DF907305201D2B2CD
:102F00000B4483F800230BE0009BDAB207499DF8DD
:102F1000073003F00F03043B5201D2B20B441A7680
:102F200000BF02B0704700BF00E100E000ED00E02C
:102F300086B00190019B1B680593059B0393039B3F
:102F400093FAA3F30293029B0493049B1BBA1846C3
:102F500006B0704700B585B001900198FFF7E8FF13
:102F600003460393039B1BBA184605B05DF804FBA8
:102F70008CB04FF08053D3F8043103F47F43B3F5A2
:102F8000844F11D1454BD3F85036444A23F0010306
:102F9000C2F85036424B1B6823F0807323F00103C4
:102FA0003F4A43F0807313604FF08053D3F80431ED
:102FB00003F47F43B3F58A4F6CD13A4B5B7C052B0E
:102FC00001D1394B01E04FF07F430B93334BD3F8E2
:102FD0001C350B9A13400A93304BD3F820350B9ACB
:102FE000134009930A9A099B9A4253D12B4BD3F869
:102FF0002435DBB20893294BD3F824351B0ADBB206
:103000000793264BD3F824351B0CDBB20693234BD6
:10301000D3F824351B0EDBB20593204BD3F82835AB
:10302000DBB204931D4BD3F828351B0ADBB20393A4
:103030001A4BD3F828351B0CDBB20293174BD3F88D
:1030400028351B0EDBB20193089A079B9A4217D0D2
:10305000089A069B9A4213D0089A059B9A420FD071
:10306000089A049B9A420BD0089A039B9A4207D075
:10307000089A029B9A4203D0089A019B9A4209D16E
:10308000074B1B6823F0807323F00103044A43F0CD
:1030900080731360002318460CB070470010004086
:1030A00074170040300100200000FFFF82B0019043
:1030B000084B094AC3F81425084B5B7C013B1B04F1
:1030C000044A43F0807343F0FC03C2F8183500BF94
:1030D00002B07047001000400800030030010020DB
:1030E00082B001900A4B0B4AC3F814250A4B5B7C53
:1030F000013B1A04019B1B021A43019B1343044A20
:1031000043F08073C2F8183500BF02B0704700BFAB
:1031100000100040000101003001002010B582B015
:1031200003468DF807309DF8073003F00103002BAC
:1031300006D0154C1548FFF70DFF0346C4F81C35A3
:103140009DF8073003F00203002B06D00E4C104808
:10315000FFF700FF0346C4F820359DF8073003F061
:103160000403002B0DD0084C0A48FFF7E1FE03468C
:10317000C4F82435044C0848FFF7DAFE0346C4F8C7
:10318000283500BF02B010BD001000403001002003
:1031900034010020380100203C010020034B9A7AC2
:1031A000034BC3F80C2500BF704700BF340B002051
:1031B000001000401C4B1A7A1C4BC3F810251A4B08
:1031C0001B7A042B1CD801A252F823F0E93100002D
:1031D000E1310000F1310000F9310000E13100007F
:1031E000134B30221A600DE0114B49221A6009E09E
:1031F0000F4BFA221A6005E00D4B49221A6001E0DC
:1032000000230FE0084B9B891A46094B1B683E338D
:103210009A4206D2064B1B689BB23E339AB2024BCF
:103220009A81012318467047340B0020001000409B
:10323000681E0020094B1B78002B05D0012B07D1FD
:10324000074B084A1A6005E0054B074A1A6001E07F
:10325000002300E001231846704700BF340B002014
:10326000741E0020AD300000E1300000184B5B7A86
:10327000022B06D0022B21DC002B16D0012B0AD00A
:103280001CE0144B4FF6FF72C3F83C25114B124A59
:10329000C3F8382514E00F4BFF22C3F83C250D4B33
:1032A00040F20712C3F838250AE00A4B0022C3F89F
:1032B0003C25084B0022C3F8382501E0002305E037
:1032C000034B5A7A034BC3F8342501231846704741
:1032D000340B0020001000402110010000B583B025
:1032E00001238DF80730FFF759FFFFF763FF03460F
:1032F0001A469DF807301340002B14BF012300230A
:103300008DF80730FFF796FF03461A469DF8073001
:103310001340002B14BF012300238DF80730FFF763
:10332000A5FF03461A469DF807301340002B14BF33
:10333000012300238DF80730054B1B68054AD27C1A
:10334000104698479DF80730184603B05DF804FB17
:10335000741E0020340B0020094B00221A62084B17
:1033600000225A62064B00229A62064B00221A6221
:10337000044B00225A62034B00229A6200BF70473E
:1033800054130020881B002000B585B0FFF7E4FF30
:10339000002303930CE0039A13461B0213442E4AA6
:1033A0001A442E49039B41F82320039B01330393C6
:1033B000039B072BEFDD002302930CE0029A1346D8
:1033C0001B021344264A1A442649029B41F8232033
:1033D000029B01330293029B072BEFDD0023019335
:1033E00024E0019A13461B0213441B4A99181E48F5
:1033F000019A13465B0013449B00034419601A4969
:10340000019A13465B0013449B000B4404330022D3
:103410001A701549019A13465B0013449B000B4434
:10342000083300221A60019B01330193019B072B93
:10343000D7DD0023009307E00C4A009B002142F8EF
:103440002310009B01330093009B072BF4DD00BF8A
:1034500000BF05B05DF804FB4C0B002054130020A6
:1034600080130020881B0020B41D0020141E0020A3
:1034700008B5154B1B7883F00103DBB2002B01D09C
:1034800008231EE0114B9B6A002B02D14FF480737E
:1034900017E00120FFF7CAFC0C4B9B6A013B0B4A6B
:1034A00093620A4B5B6A0133084A5362074B5B6ABB
:1034B000072B02D9054B00225A620120FFF79CFC22
:1034C0000023184608BD00BF280B0020541300201D
:1034D00000B583B003460A468DF8073013468DF8D1
:1034E00006303E4B9B6A072B73D83D4B1B78012B54
:1034F0000ED13C4B1B78FC2B01D900236AE0374BE3
:103500001B6A364A52F82330364A12781A7013E092
:10351000334B5B78002B07D1304B1B6A2F4A52F894
:10352000233000221A7007E02C4B1B6A2B4A52F8FA
:1035300023302B4AD27C1A70284B1B6A274A52F838
:103540002330581D254B1B6A244A52F823301B7820
:103550001A46254902F0EAFB204B1B6A1F4A52F823
:1035600023309DF807205A70204BD3F848151B4B89
:103570001B6A1A4A52F823304AB29A70174B1B6AD8
:10358000164A52F823309DF806201A71154B5B78C5
:1035900003F00103002B0CBF01230023D9B20F4B12
:1035A0001B6A0E4A52F823300A46DA700B4B1B6A2C
:1035B00001330A4A1362094B1B6A072B02D9074BD6
:1035C00000221A62054B9B6A0133044A936201236D
:1035D00000E00023184603B05DF804FB881B0020C0
:1035E000340B0020B41C0020B61C0020001000404A
:1035F000074B0422C3F81025054B0022C3F8082509
:10360000034B40F20222C3F8002200BF704700BF04
:1036100000A00040104B114AC3F860250E4B104A21
:10362000C3F864250C4B0F4AC3F868250A4B0E4AB1
:10363000C3F86C25084B0D4AC3F87025064B0C4A9D
:10364000C3F87425044B0B4AC3F87825024B0A4A89
:10365000C3F87C2500BF704700F001400011004016
:1036600000A000400411004010A0004040A1004014
:103670001010004044A100400010004000B583B08D
:103680006D4B01221A606D4B5B6A6C4A52F8233015
:103690006B4A13606B4B1B78002B02D0012B30D090
:1036A00098E0694B1B68664A126812781046984782
:1036B000634B1B681A79654B1A70644B00225A7071
:1036C0005F4B1B68591D5E4B1B681B781A46604890
:1036D00002F02CFB5F4B1B685F4A43F00803C2F803
:1036E00000325D4B1122C3F80423564BDB891A4686
:1036F0005A4B1A605A4B5B4A1A605B4B02221A7093
:1037000068E04F4B1B68DB78002B06D04D4B1B7DD0
:1037100083F00103DBB2002B01D0012300E0002382
:103720008DF807309DF8073003F001038DF807305E
:10373000434B1B681A78454B1A70414B1B681B7929
:103740005B00DAB2414B5A70404B5B785AB23C4B4B
:103750001B68DB78002B0CBF01230023DBB25BB2BC
:1037600013435BB2DAB2394B5A70354B1B68591DA3
:10377000334B1B681B781A46354802F0D7FA9DF880
:103780000730002B16D0334B1B68334A43F0080335
:10379000C2F80032304B1122C3F80423294BDB89D5
:1037A0001A462E4B1A602E4B2E4A1A602E4B0222BE
:1037B0001A700EE0284A274B1B68C2F80032264BCD
:1037C0001022C3F80423264B284A1A60264B0122F4
:1037D0001A7000BF1A4B1B685A781F4BC3F82C2570
:1037E000174B1B685B781A46012303FA02F21A4B47
:1037F000C3F830251E4BDA7C174BC3F80825164B4F
:10380000124AC3F804250120FFF74EFB0120FFF701
:10381000F3FA114B0022C3F804210F4B0022C3F826
:1038200008210D4B0022C3F810210B4B01221A6016
:1038300000BF03B05DF804FB641E00205413002099
:103840002C0B0020340B0020741E0020B41B002021
:10385000B61B00204401002000100040601E002024
:103860006C1E0020B9380000290B002075380000BC
:103870003001002008B50D4B1B6843F001030B4AD3
:103880001360FFF7F5FD0A4B9B6A002B06D1094B2D
:1038900000221A701420FFF7EBFA04E01420FFF75F
:1038A000E7FAFFF7EBFE00BF08BD00BF341E0020A3
:1038B00054130020290B002008B51F4A1F4B1B681A
:1038C000C2F800321E4A1F4B1B68C2F840351E4B1F
:1038D0009B89A3F182021A4BC3F84425184B01229D
:1038E000DA60174B0022C3F84021154B0022C3F8C1
:1038F0004421164B4FF4E052C3F80425134B4FF408
:103900000052C3F808250C4B0022C3F80C210E4BC3
:103910001B78002B03D10E4B1B6800209847064BE9
:103920000C4AC3F804250C4B0C4A1A600C4B0322BA
:103930001A7000BF08BD00BF001000404401002005
:1039400000A00040681E0020340B002000F0014061
:10395000741E0020B41C00206C1E0020653900007D
:10396000290B002008B5534B4FF4E052C3F808254B
:10397000514BD3F80C31002B4FD04F4BD3F80034C0
:10398000002B4AD04D4B01221A614A4B4FF4005292
:10399000C3F808254A4B1B6843F00103484A1360EB
:1039A000484BDB891A46484B1B68D31A0133474AF8
:1039B0001360FFF75DFD434B1B78002B18D0444B81
:1039C0001B78002B14D03C4BD3F82C35DAB2404B8B
:1039D0005B785B08DBB219461046FFF779FD0346BA
:1039E000002B05D0364B1B6843F00403344A1360A8
:1039F000384B9B6A002B03D0324B1B7C012B06D12A
:103A0000354B00221A701420FFF732FA50E01420D0
:103A1000FFF72EFAFFF732FE4AE02B4B1B685A1EC7
:103A200029490A60002B1AD1244B01221A61214B2B
:103A30004FF40052C3F80825224BDB8901331A46A4
:103A4000224B1A601E4B1B6843F002031C4A136092
:103A5000214B00221A701420FFF70AFA28E01F4BAE
:103A60001B68154A43F00803C2F800321C4B1B6860
:103A70001C4A12681278104698470F4B1A4AC3F82E
:103A800004251A4B1A4A1A60134B02221A700B4B68
:103A900001221A60074B4FF40052C3F80425074B6C
:103AA000D3F84431002B03D0034B01221A60FFE707
:103AB00000BF08BD00F001400010004000A0004021
:103AC000341E0020340B0020601E0020641E0020E5
:103AD000B41C002054130020290B002044010020B6
:103AE000741E00202C0B0020B41B00206C1E002034
:103AF000B938000008B5164A164B1B68C2F80032E8
:103B0000154B1B68154AD27C10469847104B144A37
:103B1000C3F804250E4B0022C3F810210C4B0122E0
:103B20001A6100BF0A4BD3F81031002BFAD0084BB2
:103B30000022C3F81021074B1B68054A43F0040319
:103B4000C2F80032024B01225A6000BF08BD00BF1C
:103B50000010004044010020741E0020340B00209F
:103B6000B41C002000B585B000238DF80F30002371
:103B70008DF80E3001238DF80D30914BD3F80034C1
:103B8000002B02D1FFF7B6FF16E18E4B9B6A072B85
:103B900002D9FFF7AFFF0FE1894BD3F808349B0040
:103BA000894A13440293864BD3F80C34029A128844
:103BB00093420DD1854B5B785B08DAB2029B9B7810
:103BC0009A4205D101238DF80E3000238DF80D3077
:103BD0007E4B5B785B08DAB2029B9A70784BD3F825
:103BE0000C349AB2029B1A80794B1B7D83F001033F
:103BF000DBB2002B05D1754B5B7803F00103002B82
:103C000002D001238DF80F309DF80F30002B00F00B
:103C1000B780704B1B686A4A43F00803C2F8003251
:103C20006B4B1B78002B00F08E80012B40F09780AF
:103C3000694B9B6A002B77D0614BD3F80834674AF5
:103C400052F82330002B6FD05D4BD3F80834634A11
:103C500052F823301B68624A1360029BDB78002B0A
:103C600039D09DF80E3083F00103DBB2002B32D047
:103C7000534BD3F808340193584A019B52F8233030
:103C800000221A71554A019B52F823309A68534911
:103C9000019B41F82320504B9B6A013B4E4A9362A3
:103CA0004D4B9B6A002B0DD04C4A019B52F82330A0
:103CB000002B07D0494A019B52F823301B68484A21
:103CC000136002E0464B00221A60464B1B6843F02B
:103CD0000103444A1360424B1B68002B19D0029B1E
:103CE0000122DA70404B1B683D4A12681278104678
:103CF00098473B4B1B681A783C4B1A70384B1B6833
:103D0000591D374B1B681B781A46394802F00EF8CC
:103D100014E0029B0022DA70334B1B6800209847A6
:103D2000324B00221A7009E0029B0022DA702E4BFF
:103D30001B68002098472D4B00221A70234B5A789D
:103D40002A4B5A700BE0284B1B68002098471F4BEA
:103D50001A78264B1A70254B00225A7000BF254B4B
:103D600005221A70164B164AD3F80834C2F82C35BF
:103D7000134B1E4AC3F804251F4B204A1A6001E06A
:103D8000FFF7B8FE9DF80D30002B15D00C4BD3F883
:103D90000834DAB2029B9B7819461046FFF798FB6D
:103DA0000346002B08D00F4B1B6843F004030D4A59
:103DB00013601420FFF75CF805B05DF804FB00BF4A
:103DC00000100040881B0020401E0020B41C002072
:103DD000340B00204401002054130020141E002046
:103DE0002C0B0020341E0020741E0020B41B002069
:103DF000B61B0020290B00206C1E0020013E000095
:103E000008B50C4B1B680C4A43F00403C2F800329F
:103E10000A4B1B680A4AD27C10469847064B094A4F
:103E2000C3F80425084B094A1A60094B04221A708A
:103E300000BF08BD4401002000100040741E002097
:103E4000340B0020B41C00206C1E0020653B0000D9
:103E5000290B002000B583B00190104B1B7883F034
:103E60000103DBB2002B01D0082312E0019B002BE1
:103E700001D10E230DE00120FEF7D8FF084B1A6890
:103E8000019B1A60064B00221A600120FEF7B4FF66
:103E90000023184603B05DF804FB00BF280B002088
:103EA000341E002008B5204BD3F80031002B0AD077
:103EB0001D4BD3F8043303F00103002B03D01A4B3E
:103EC0000022C3F80021184BD3F80C31002B11D07D
:103ED000154BD3F8043303F00803002B0AD0124B20
:103EE0000022C3F80C21114B1B68002B02D00F4B92
:103EF0001B6898470C4BD3F81031002B11D00A4B9C
:103F0000D3F8043303F01003002B0AD0064B002231
:103F1000C3F81021064B1B68002B02D0044B1B6812
:103F2000984700BF08BD00BF00100040701E002071
:103F30006C1E002000B585B00190019B002B01D1C3
:103F40000E236CE0384B1B78002B07D000F082F872
:103F50000390039B002B01D0039B60E0019B5B68F7
:103F6000324A136018220199314801F0DFFE314BCB
:103F700000221A60202200212F4801F009FF0822A8
:103F800000212E4801F004FFFFF7A8F9034683F053
:103F90000103DBB2002B01D0072340E0284B4FF098
:103FA000E732C3F81C25264B4FF04332C3F82025D7
:103FB000234B244AC3F82425214B234AC3F8282540
:103FC000FFF7E2F9FFF714FBFFF724FB184B5B7CCC
:103FD00003F0070319460120FEF782FF144B9B7C78
:103FE00003F0070319461420FEF77AFF1420FEF7AA
:103FF00003FF164B00221A700B4B01221A704FF070
:104000008053D3F8043103F47F43B3F58A4F05D1CD
:104010000F4B1B680E4A43F480631360002318465D
:1040200005B05DF804FB00BF280B0020300B00201A
:10403000340B0020341E0020401E0020381E0020BB
:1040400000100040E743C323A363E313290B0020C0
:104050003C17004008B5104B4FF47052C3F80825C8
:104060000E4B00221A700E4B00221A70FFF774F9E3
:10407000202200210B4801F08BFE082200210A4873
:1040800001F086FE1420FEF7D1FE084B0322C3F890
:1040900000220023184608BD00F00140290B002033
:1040A000280B0020401E0020381E00200010004079
:1040B00000B585B01C4B1B68019302AB1846FFF797
:1040C000C9FE0390039B002B2AD1184B1B68002BC1
:1040D00026D0029B03F00103002B07D000238DF8AC
:1040E0000030124B1B686A4610469847029B03F04B
:1040F0000203002B07D001238DF800300B4B1B6807
:104100006A4610469847029B03F00403002B07D031
:1041100002238DF80030054B1B686A46104698470D
:1041200000BF05B05DF804FB641E0020300B0020CA
:1041300082B00023019318E00F49019A13465B00F7
:1041400013449B000B4404331B7883F00103DBB260
:10415000002B07D0019A13465B0013449B00064ACC
:10416000134406E0019B01330193019B072BE3DD20
:104170000023184602B07047B41D002000B585B07A
:1041800001906D4B1B7883F00103DBB2002B01D053
:104190000823CDE0019B002B01D10E23C8E0019B39
:1041A0001B78002B0DD0019B1B78FC2B09D8634B8F
:1041B0001B78002B07D1019B1A78604BDB7C9A425D
:1041C00001D90923B4E05E4B9B6A072B01D9042374
:1041D000AEE0019B5B78072B01D90723A8E0012003
:1041E000FEF724FE554B5B78002B39D1544B1B6AEC
:1041F000534A52F8233040F201120199184601F057
:1042000095FD019B5B781A464E4B9B5C01335A42ED
:1042100003F0030302F0030258BF5342019A52789D
:10422000D9B2484B9954019B5B781946444B1B6AA1
:10423000434A52F82330434A525C1A71404B1B6A7E
:1042400001333F4A13623E4B1B6A072B02D93C4B9A
:1042500000221A623A4B9B6A0133394A936254E056
:10426000FFF766FF0290029B002B4ED0029B0122BB
:104270001A71029B00229A60029B1B6840F2011295
:104280000199184601F052FD019B5B781A462D4BAF
:104290009B5C01335A4203F0030302F0030258BF50
:1042A0005342019A5278D9B2264B9954019B5B78BC
:1042B0001946029B1B68234A525C1A71019B5B786A
:1042C0001A46214B53F82230002B07D1019B5B7813
:1042D00019461D4A029B42F8213011E0019B5B7890
:1042E0001A46194B53F82230039302E0039B9B6854
:1042F0000393039B9B68002BF8D1039B029A9A605F
:104300000F4B9B6A01330E4A93620120FEF774FD46
:104310000A4B5B78002B0AD1084B1B7C002B06D183
:104320000A4B1B78DBB2002B01D1FFF7A7F9002362
:10433000184605B05DF804FB280B0020340B002064
:1043400054130020381E0020141E0020290B0020CA
:1043500000B583B00190334B1B7883F00103DBB2CF
:10436000002B01D0082358E0019B002B01D10E2324
:1043700053E02D4B9B6A002B01D105234DE001201A
:10438000FEF754FD284B5B6A274A52F823301A780F
:10439000019B1A70244B5B6A234A52F823305A78E7
:1043A000019B5A70204B5B6A1F4A52F8233093F9E5
:1043B0000220019B9A701C4B5B6A1B4A52F8233007
:1043C0001A79019B1A71184B5B6A174A52F823300D
:1043D000DA78019BDA70019B581D134B5B6A124A15
:1043E00052F82330591D019B1B781A4601F09EFCA0
:1043F0000D4B5B6A01330C4A53620B4B5B6A072B14
:1044000002D9094B00225A62074B9B6A013B064ABC
:1044100093620120FEF7F0FC0023184603B05DF81C
:1044200004FB00BF280B0020881B002008B5234B8D
:104430001B78DBB2002B01D011233DE0204B4FF065
:10444000FF32C3F808231E4B0022C3F810211D4B76
:104450001D4A1A601D4B1B68194A43F00403C2F839
:104460000032174B1022C3F80423144B04221A7095
:10447000174B9A7C124BC3F83025154BDA7C104B46
:10448000C3F808250E4B134AC3F804250120FEF794
:104490000BFD0120FEF7B0FC094B0022C3F80421FC
:1044A000074B0022C3F80821054B0022C3F8102156
:1044B000034B01225A600023184608BD290B002037
:1044C000001000406C1E0020653B000044010020ED
:1044D00030010020B41C002008B500F035F800F0D1
:1044E00053F8164B1B78DBB2042B04D0134B1B780C
:1044F000DBB2052B1DD1124B0022C3F80022104B5A
:104500004FF0FF32C3F808230E4B00221A600C4B09
:104510000022C3F810210A4B01221A6100BF084B88
:10452000D3F81031002BFAD0044B00221A7000236C
:1045300001E040F20113184608BD00BF290B00201E
:10454000001000406C1E002008B50D4B1B7883F056
:104550000103DBB2002B01D008230FE00120FEF79E
:1045600065FC084B00229A62064B00221A62054B3A
:1045700000225A620120FEF73FFC0023184608BDC6
:10458000280B00205413002008B5104B1B7883F033
:104590000103DBB2002B01D0082314E00120FEF759
:1045A00045FC0B4B00229A62094B00221A62084B11
:1045B00000225A6220220021064801F0E9FB012076
:1045C000FEF71AFC0023184608BD00BF280B002088
:1045D000881B0020401E002000B585B001901E4BB6
:1045E0001B78DBB2002B01D0112331E0019B002BA3
:1045F00001D10E232CE04FF08053D3F8043103F4A3
:104600007F43B3F5844F18D1144B5B7C052B01D14C
:10461000134B01E04FF07F4303930198FEF79AFCA0
:104620000246039B1340002B07D10E4BD3F82435D1
:10463000DBB2002B01D107230AE0019B1B681A465D
:10464000064B1A600120FEF769FDFEF791FC034658
:10465000184605B05DF804FB290B0020300100204E
:104660000000FFFF0010004000B585B00190324B04
:104670001B78DBB2002B01D0112359E0019B002BEA
:1046800001D10E2354E04FF08053D3F8043103F4EA
:104690007F43B3F5844F40D1284B5B7C052B01D180
:1046A000274B01E04FF07F4303930198FEF752FC44
:1046B0000246039B1340002B2FD1224BD3F8243505
:1046C00003F47F43002B26D01E4BD3F8243503F48C
:1046D0007F03002B1FD01B4BD3F82435B3F1807F11
:1046E00019D3184BD3F82835B3F1807F13D3154B6A
:1046F000D3F8283503F47F03002B0CD0114BD3F8EB
:10470000283503F47F43002B05D00E4BD3F8283512
:10471000DBB2002B01D107230AE0019B1B681A467C
:10472000064B5A600220FEF7F9FCFEF721FC034617
:10473000184605B05DF804FB290B0020300100206D
:104740000000FFFF0010004000B585B001900B464F
:104750008DF80330394B1B78DBB2002B01D01123CD
:1047600067E0019B002B01D10E2362E09DF803302E
:10477000082B01D907235CE04FF08053D3F80431B4
:1047800003F47F43B3F5844F38D12D4B5B7C052B6D
:1047900001D12C4B01E04FF07F4302939DF8033091
:1047A000002B0CD0284BD3F81C25029B1340002B68
:1047B00005D1019B1B78002B01D1072339E0224B47
:1047C000D3F82025029B1340002B17D101238DF82D
:1047D0000F300DE09DF80F30019A13441B78002B29
:1047E00001D1072325E09DF80F3001338DF80F30FC
:1047F0009DF80F209DF803309A42EBD39DF80330CB
:104800001A460199114801F091FA0D4A9DF80330BA
:1048100013749DF80330C3F10803FF2242FA03F337
:10482000DAB2074B9A740420FEF778FCFEF7A0FB7F
:104830000346184605B05DF804FB00BF290B0020B5
:10484000300100200000FFFF001000403801002070
:10485000094BD3F84031002B0BD0074B0022C3F893
:104860004021064B1B78DBB2032B02D1044B012203
:104870001A6100BF704700BF00A00140290B002053
:104880000010004000B585B00190019B002B0AD0BC
:10489000074B43F001030393019B9B010293039B8E
:1048A0000298984700E000BF05B05DF804FB00BF28
:1048B000106A000000B583B00190019B002B0AD064
:1048C0004FF47A70FFF7DEFF019B013B0193019BE0
:1048D000002BF5D100E000BF03B05DF804FB08B584
:1048E00001F0FEF900BF08BD00B589B00390029148
:1048F0000192019B002B33D00023079303230693DF
:10490000029A079B1344019A1946002001F098F976
:104910000590079A059B13440793019A059BD31AA8
:104920000193059B002B13D10F4B1B7883F00103E0
:10493000DBB2002B13D10120FFF7BCFF069B013B2C
:104940000693069B002B03D1074B00221A7007E049
:10495000054B01221A70019B002BD1D100E000BF52
:1049600000BF09B05DF804FB781E002000B585B0DB
:1049700003900291054B00934023054A0299039846
:1049800000F012F800BF05B05DF804FBE948000034
:104990007C1E002082B0019000BF02B0704782B040
:1049A000019000BF02B0704700B5A1B0059004911E
:1049B000039202930498FEF7BFF8039B1593029BA2
:1049C00016930023179300238DF86030002319936A
:1049D000229B1A9300231F930FA91F9B0822049860
:1049E000FEF784F908231F93119B1293BDF8403002
:1049F000ADF84C30BDF84230ADF84E3000238DF8A4
:104A000051309DF83C3003F00303DBB2012B26D17B
:104A10000F9BC3F395231C939DF83C30C3F3C20353
:104A2000DBB28DF85030BDF83C30C3F38313DBB2FA
:104A30001B931B9B9A0009A91F9B0498FEF756F92C
:104A40001B9B9B001F9A13441F9312AA09A915AB25
:104A5000009313461B9A1C9800F0D4FE2FE09DF89B
:104A60003C3003F00303DBB2022B28D1BDF83E300B
:104A7000C3F389139BB21E939DF83C30C3F3C2036A
:104A8000DBB28DF850301E9B082B28BF08231D93E6
:104A900007A91F9B1D9A0498FEF728F91F9A1D9BD2
:104AA00013441F931E9A1D9BD31A1E9315AB12AA73
:104AB00007A81D9900F048FF1E9B002BE3D1049826
:104AC000FEF749F800BF21B05DF804FB82B0019009
:104AD000019BDB6801225A7100BF02B070470000E1
:104AE00000B583B04FF0FF330193FFF7F8FE0421C8
:104AF000084800F0A3FD0190019B002B03DA064952
:104B00004120FDF70AFA0348FFF7E0FF00BF03B0BA
:104B10005DF804FBE45E0000286A000000B583B085
:104B200001900091019B1B681B68009901989847B0
:104B300000BF03B05DF804FB00B583B00190019B9A
:104B40001B685B680198984700BF03B05DF804FBE1
:104B500000B583B00190019B1B689B680198984742
:104B600000BF03B05DF804FB82B001900B468DF8E6
:104B70000330019BDB689DF803201A7100BF02B06F
:104B8000704782B00190019BDB681B79184602B028
:104B9000704782B00190019BDB6801225A7100BF0F
:104BA00002B0704782B00190019BDB685B791846C8
:104BB00002B0704700B585B0019000910C4B002207
:104BC0001A700C48FDF71CFF0390039B002B01D0CB
:104BD000039B08E00848FEF7A9F8084A084BD31AD7
:104BE000DB0802930023184605B05DF804FB00BF04
:104BF00024200020F45E0000906A0000E45E0000C3
:104C0000C45E0000024A034BD31ADB081846704703
:104C1000E45E0000C45E000000B587B001900B4662
:104C20008DF803309DF80330002B1FD0FFF7EAFF0B
:104C300004900023059313E0059B9B000E4A134448
:104C40000393039B1B881A46019B1B689A4204D15D
:104C5000019B059A1A60002309E0059B0133059327
:104C6000059A049B9A42E7D3052300E000231846E7
:104C700007B05DF804FB00BF0000002000B585B060
:104C800001900B468DF803309DF8032001AB1146CF
:104C90001846FFF7C1FF0346002B07D1019BDB003D
:104CA000054A13440393039B1B6800E00023184646
:104CB00005B05DF804FB00BFC45E000084B0019045
:104CC0000B468DF80330019BDB00174A1344029317
:104CD0009DF80330013B032B1CD801A252F823F0AE
:104CE000F14C0000F94C0000014D00000B4D00009C
:104CF00002238DF80F3011E004238DF80F300DE002
:104D0000029B1B798DF80F3008E0029B5B798DF8D0
:104D10000F3003E000238DF80F3000BF9DF80F30F7
:104D2000184604B0704700BFC45E000084B0019014
:104D3000009100238DF80F30019B1B7803F00403D2
:104D4000DBB2002B24D0019B1B78C3F30103DBB241
:104D5000012B02D0022B0CD017E0009B1B68019A9C
:104D60001288C2F38312D2B213449A1C009B1A60B9
:104D70000BE0009B1B68019A5288C2F3891292B221
:104D800013449A1C009B1A6000BF01238DF80F305A
:104D90009DF80F30184604B07047000000B58BB086
:104DA0000023ADF826303E48FDF744F93D48FDF7B5
:104DB00041F93D4B9B6804933C4B1B680693049A56
:104DC000069B134002339B00374A13440433089375
:104DD00004AB19460898FFF7A9FF0346002B09D03A
:104DE000049A069B134002339B002F4A134404335A
:104DF0000893EDE700BF0023079311E0049B5A1CC2
:104E00000492069A1340079A920001A90A4426497F
:104E100002339B000B445B681360079B01330793CD
:104E2000079B012BEAD99DF80430C3F30103DBB2E1
:104E3000012B10D0022B1CD1BDF80A30ADF8263062
:104E4000BDF80630C3F389139BB203339A08049B61
:104E50001344049313E0BDF80A30ADF82630BDF8D2
:104E60000430C3F38313DBB21A46049B1344049348
:104E700005E00F494FF4C270FDF74FF800BF094835
:104E8000FDF7E4F80590059B002B02D0049B064A31
:104E90009360BDF8263018460BB05DF804FB00BFE8
:104EA0003C24002038240020242000205001002031
:104EB000A06A000000B585B000210748FDF743F85F
:104EC0000390039B0293029B83F310030193019BC6
:104ED000184605B05DF804FB4024002000B589B0F9
:104EE0000390029101920093039B1B0C0793FFF721
:104EF000E1FF0690FFF786FE0246079B934204D32C
:104F0000214940F2A910FDF708F8069B1904009BFF
:104F10005A1C0A9B1340079A0A431C4902339B0000
:104F20000B445A60009A0A9B134002339B00174AB5
:104F3000134404330593039B03F00703D9B2059A86
:104F4000137861F3C5031370019B03F00F03D9B20B
:104F5000059A138861F389131380029BC3F315012B
:104F6000059A136861F39F231360059A1378012152
:104F700061F301031370059A137823F0040313708F
:104F800000BF09B05DF804FBA06A000024200020E7
:104F900000BF704700B58BB00390029113468DF8A7
:104FA0000730039B0233089301238DF81F30002044
:104FB000FCF76CFF3E4B5A68029B1A603D4B1A6827
:104FC0003B4B99683A4B5B68CB1A13440133099306
:104FD00014E001213848FCF7FDFFFFF7DFFE0590E4
:104FE00005993548FCF7F6FF324B1A68304B996843
:104FF0002F4B5B68CB1A134401330993089A099B22
:105000009A42E6D89DF81F30002B48D00023049325
:105010009DF80730002B17D09DF81030012262F365
:1050200001038DF810309DF8103043F004038DF823
:105030001030039B03F00F03DAB2BDF8103062F3B7
:105040008913ADF8103016E09DF81030022262F39B
:1050500001038DF810309DF8103043F004038DF8F3
:105060001030039BC3F309039AB2BDF8123062F308
:105070008F13ADF812300E4B5A680E4B1B6813405D
:1050800002339B000A4A134404330693049A069B96
:105090001A60074B5A68089B1344054A5360002066
:1050A000FCF708FF9DF81F3018460BB05DF804FBB5
:1050B00024200020500100204024002000B58BB0A7
:1050C00005900491039202931F4B1B68079306AB54
:1050D000012219460298FFF75DFF0346002B24D0FA
:1050E000069B023309930023089311E0089B9B0061
:1050F000039A1A44099B591C099107990B4012689D
:10510000124902339B000B445A60089B01330893F9
:10511000089A029B9A42E9D3069A079B009313468A
:10512000029A04990598FFF7D9FE084B1B78002BCB
:1051300004D000F07FF80346002BFAD1FFF728FFD8
:1051400000BF0BB05DF804FB5001002024200020BC
:1051500000B583B0019000910023002200990198CE
:10516000FFF7ACFF00BF03B05DF804FB00B587B0EC
:10517000039002910192019B059305AA01230299D4
:105180000398FFF79BFF00BF07B05DF804FB00B575
:1051900087B00390029101920093019B0493009BBE
:1051A000059304AA022302990398FFF787FF00BF23
:1051B00007B05DF804FB00B589B00390029101923D
:1051C0000093019B0593009B06930A9B079305AAF6
:1051D000032302990398FFF771FF00BF09B05DF840
:1051E00004FB00B58BB00390029101920093019BE8
:1051F0000593009B06930C9B07930D9B08930E9BB6
:10520000099305AA052302990398FFF757FF00BFEA
:105210000BB05DF804FB0000054B9A68044B5B681B
:105220009A420CBF01230023DBB21846704700BF2F
:105230002420002000B599B0FFF7EEFF0346002BB5
:1052400001D00023B9E19B4B0022C3F81824BFF31F
:105250004F8F00BF974B9B680493974B1B6810932D
:10526000049A109B134002339B00924A1344043368
:105270001193002317930023169300230F9304AB7D
:1052800019461198FFF752FD0346002B19D0894BA0
:10529000D3F81834002B14D1864B5A68049B9A42D9
:1052A00005D8844B5B68834A9360002385E1049AA8
:1052B000109B134002339B007E4A13440433119326
:1052C000DDE70023159311E0049B5A1C0492109A09
:1052D0001340159A920001A90A44764902339B00B3
:1052E0000B445B681360159B01331593159B012BD1
:1052F000EAD99DF8043003F00303DBB2022B40F03F
:105300009C80BDF80630C3F389139BB20D93BDF8A2
:105310000630C3F389139BB2502B28BF50239BB296
:105320000C930C9BC3F309039AB2BDF8063062F3E9
:105330008F13ADF806300C9B08330B939DF80430A7
:10534000C3F3C203DBB20F930B995C48FDF763FB19
:105350001790179B002B00F0D3801798FDF7ECFBFC
:1053600001A9169B08221798FDF7A2FC169B08338B
:105370001693049BDA43109B134001339B000A935E
:105380000C9A0A9B9A4242D90A9B002B08D0049A95
:10539000109B134002339B00464A1344043300E041
:1053A000474B08930A9B002B02D00A9BDBB201E01B
:1053B0000C9BDBB28DF81F300A9B002B01D0404BB9
:1053C00000E0002306930A9B002B06D00C9BDAB268
:1053D0000A9BDBB2D31ADBB200E000238DF8173052
:1053E0009DF81F20169B08991798FDF761FC9DF802
:1053F0001F30169A13441693069B002B16D09DF867
:105400001720169B06991798FDF752FC0EE0049A98
:10541000109B134002339B00264A13440433099324
:10542000169B0C9A09991798FDF742FC0D9B0333C4
:105430009A08049B1344049362E09DF8043003F03F
:105440000303DBB2012B5BD1BDF80430C3F383133C
:10545000DBB2062B28BF0623DAB2BDF8043062F3B4
:105460008913ADF80430BDF80430C3F38313DBB205
:1054700002330E939DF80430C3F3C203DBB20F93E3
:105480000E9B9B0019460D48FDF7C5FA1790179B18
:10549000002B35D01798FDF74FFB01A9169B08226A
:1054A0001798FDF705FC169B0833169300231593F8
:1054B0001DE000BF2420002050010020F45E000009
:1054C00030200020049B5A1C0492109A134002338F
:1054D0009B003C4A1344191D169B04221798FDF7A4
:1054E000E7FB169B04331693159B01331593BDF808
:1054F0000430C3F38313DBB21A46159B9342E1D306
:10550000179B002B39D02F4BD3F8103414932D4B0D
:10551000D3F81834002B1BD01798FDF71CFB46E07E
:1055200000238DF84F301498FFF73CFB0346002B07
:1055300002D001238DF84F309DF84F30002B03D05F
:1055400017991498FFF7EAFA149BDB681B68149309
:10555000149B002BE4D11798FDF7FDFA0020FCF70F
:1055600095FC184BD3F81834002B02D1049B154A34
:1055700093600020FCF79EFC19E0124BD3F8103426
:10558000129306E01298FFF7E3FA129BDB681B68A0
:105590001293129B002BF5D10B4A0C4BD31ADB084C
:1055A0001B0443F002030A491846FFF7D1FDFFF739
:1055B00033FE034683F00103DBB2184619B05DF8F1
:1055C00004FB00BF24200020DC5E0000C45E00005D
:1055D000006B000000B585B00023039323E0164B59
:1055E000D3F81034029301238DF807300FE00298AE
:1055F000FFF7C7FA03461A46039B934203D10023E1
:105600008DF8073006E0029BDB681B680293029B63
:10561000002BECD19DF80730002B01D0039B07E055
:10562000039B01330393039B092BD8DD4FF0FF331A
:10563000184605B05DF804FB2420002000B585B0B5
:1056400001900B468DF80330FFF7C4FF0390039BD6
:10565000B3F1FF3F01D1039B22E0039BDBB219466C
:105660000198FFF781FA104BD3F81034002B08D1C2
:105670000D4A019BC2F81034019BDB6800221A60BE
:105680000DE0094BD3F81034DA68019BDB6812682F
:105690001A60054BD3F81034DB68019A1A60039B3B
:1056A000184605B05DF804FB2420002000B583B047
:1056B0000C4BD3F8103401930A4B01221A7009E005
:1056C0000198FFF766FA0198FFF736FA019BDB684D
:1056D0001B680193019B002BF2D100BF00BF03B0F8
:1056E0005DF804FB2420002082B00190009100BFEF
:1056F00002B0704710B584B003900291039BDB8821
:10570000002B0AD0039BDB881A461F4B00931346DD
:105710001E4A1F490298FCF7C7FD039B1B7A052B05
:105720002ED0039B5B7A002B12D0039B9B881A46DA
:10573000039B1B7A19461046FFF7C0FA03461A4628
:10574000144B53F822301A4613490298FCF7ACFD6B
:10575000039B1B6819460298FFF7C6FF039B1B7A41
:105760001A460E4B53F82240039B9B880021184693
:10577000FFF784FA0346224609490298FCF794FD94
:1057800000BF04B010BD00BF346B0000446B0000CC
:105790007C6B000068010020946B00005401002025
:1057A000986B000000B585B00390029113468DF808
:1057B0000730039B1B7A052B0FD0039B5B7A002BD2
:1057C00006D00D4B1B681A460C490298FCF76CFD7D
:1057D0000B490298FCF768FD07E09DF80730002BA5
:1057E00003D007490298FCF75FFD0298FCF73AFDE9
:1057F00000BF05B05DF804FB68010020946B000059
:10580000A46B000030B58BB007900691059204930D
:105810000E9B1B7B8DF827300E9B00221A730E996E
:105820000498FFF767FF059B062B7FD801A252F86B
:1058300023F000BF515800005B5800006B58000077
:105840007F5800009D580000C5580000F558000022
:1058500007990E98FCF728FD69E0069B1B681A461D
:1058600007990E98FCF720FD61E0069B1A68069BDD
:1058700004331B6807990E98FCF716FD57E0069B4A
:105880001A68069B04331968069B08331B6800934B
:105890000B4607990E98FCF707FD48E0069B196830
:1058A000069B04331868069B08331B68069A0C3263
:1058B00012680192009303460A4607990E98FCF776
:1058C000F3FC34E0069B1868069B04331C68069BB7
:1058D00008331B68069A0C32126806991031096861
:1058E0000291019200932346024607990E98FCF715
:1058F000DBFC1CE0069B1C68069B04331D68069BB2
:1059000008331B68069A0C32126806991031096830
:1059100006981430006803900291019200932B4680
:10592000224607990E98FCF7BFFC00E000BF00225A
:105930000E990498FFF736FF0E9B9DF827201A73E7
:1059400000BF0BB030BD00BF00B587B0039002911F
:1059500001920093029B082B60D8009B1B7B8DF863
:105960001330009B00221A7300990198FFF7C2FEC2
:105970000023059314E0059A029B9A4209D2039AE8
:10598000059B13441B781A4626490098FCF78CFCAB
:1059900003E025490098FCF787FC059B013305933C
:1059A000059B072BE7D921490098FCF77DFC0023D4
:1059B000059326E0059A029B9A421BD2039A059B07
:1059C00013441B788DF812309DF812307E2B0AD8C4
:1059D0009DF81230184600F02BFA0346002B02D037
:1059E0009DF8123000E02E231A4611490098FCF76A
:1059F0005BFC03E00F490098FCF756FC059B013364
:105A00000593059B072BD5D9012200990198FFF733
:105A1000C9FE009B9DF813201A7300E000BF07B079
:105A20005DF804FBA86B0000B06B0000B46B0000D5
:105A3000B86B0000BC6B000082B0204B0193019B4F
:105A400002221A61019B02225A61019B1C4A9A613F
:105A5000019B1C4ADA61019B4FF400721A62019BA0
:105A600000229A62019B00225A62019B0022DA62A4
:105A7000019B134A9A64019B134ADA64019B10222A
:105A80001A65019B00229A65019B00225A65019BC1
:105A90000022DA65019B07330C4A10681860019BED
:105AA0000B4A106818609188927999809A71019BCD
:105AB00020229A7100BF02B0704700BF442400202A
:105AC000C06B0000BC240020BC260020CC6B000072
:105AD000D06B000000B589B00390029101920023C1
