:1000000000000120850300006D0300006F03000065
:10001000710300007303000075030000000000007E
:100020000000000000000000000000007703000056
:1000300079030000000000007B0300007D03000046
:100040007F0300008D640000D12C00007F030000BE
:100050007F0300007F0300007F0300007F03000098
:100060007F0300007F0300007F0300007F03000088
:100070007F0300007F0300007F0300007F03000078
:100080007F0300007F0300007F0300007F03000068
:10009000996600007F0300007F0300007F030000DB
:1000A0007F0300007F030000FD6C00007F03000061
:1000B0007F0300007F03000000000000000000003C
:1000C0007F0300007F0300007F0300007F03000028
:1000D0007F0300007F0300007F030000000000009A
:1000E0000000000000000000000000000000000010
:1000F0000000000000000000000000000000000000
:1001000000000000000000000000000000000000EF
:1001100000000000000000000000000000000000DF
:1001200000000000000000000000000000000000CF
:1001300000000000000000000000000000000000BF
:1001400000000000000000000000000000000000AF
:10015000000000000000000000000000000000009F
:10016000000000000000000000000000000000008F
:10017000000000000000000000000000000000007F
:10018000000000000000000000000000000000006F
:10019000000000000000000000000000000000005F
:1001A000000000000000000000000000000000004F
:1001B000000000000000000000000000000000003F
:1001C000000000000000000000000000000000002F
:1001D000000000000000000000000000000000001F
:1001E000000000000000000000000000000000000F
:1001F00000000000000000000000000000000000FF
:1002000039493A480A1A02D0072291438D463849A3
:1002100038480A1A06D00722914381F3098802223E
:1002200082F3148834483549354A00F03EF83548A1
:100230003549364A00F039F835483649364A00F033
:1002400034F836483649374A00F02FF836483749EF
:10025000374A00F02AF837483749384A00F025F87D
:1002600037483849384A00F020F8384838490022E1
:1002700000F033F837483849002200F02EF83748AC
:100280003749091A06F054FD364A90472448254953
:10029000884205D00268043003B4904703BCF7E7F6
:1002A00000200021304A9047FEE7884214D0521ABD
:1002B00012D003460B4313430324234206D10368A1
:1002C00004300B600431043AF9D1704703780130EF
:1002D0000B700131013AF9D17047884202D00270A7
:1002E0000130FAE7704700000000012000E0002024
:1002F0000000012000000120547F000000000020C9
:1003000094010020E0030000E0030000086F0000FB
:10031000547F000000000020000000205C6F0000FF
:100320005C6F00005C6F00005C6F00005C6F0000A1
:100330005C6F00005C6F00005C6F0000517F00008C
:10034000E880000094010020940100209401002026
:10035000F81E0020F81E0020F81E0020F81E0020C5
:10036000F83E0020AD030000214A0000FEE7FEE752
:10037000FEE7FEE7FEE7FEE7FEE7FEE7FEE7FEE755
:1003800000F002B8FFF7FCBF0F484FF007018843A9
:1003900085460E4880470E48016841F470010160AF
:1003A000BFF34F8FBFF36F8FFFF72ABF09480A498A
:1003B0000A4A884207D0521A05D0037801300B70E0
:1003C0000131013AF9D17047000001209554000035
:1003D00088ED00E05C6F00000000002000000020BD
:1003E00000B585B00190019B002B0AD0074B43F06C
:1003F00001030393019B9B010293039B029898477F
:1004000000E000BF05B05DF804FB00BF706F0000A6
:1004100000B583B00190019B002B0AD04FF47A7095
:10042000FFF7DEFF019B013B0193019B002BF5D100
:1004300000E000BF03B05DF804FB08B504F012FD56
:1004400000BF08BD00B589B0039002910192019BE5
:10045000002B33D00023079303230693029A079BB4
:100460001344019A1946002004F0ACFC0590079A49
:10047000059B13440793019A059BD31A0193059B8F
:10048000002B13D10F4B1B7883F00103DBB2002B41
:1004900013D10120FFF7BCFF069B013B0693069B8F
:1004A000002B03D1074B00221A7007E0054B0122F5
:1004B0001A70019B002BD1D100E000BF00BF09B032
:1004C0005DF804FB9401002000B585B00390029113
:1004D000054B00934023054A0299039800F012F857
:1004E00000BF05B05DF804FB450400009801002042
:1004F00082B0019000BF02B0704782B0019000BF8F
:1005000002B0704700B5A1B0059004910392029328
:10051000049802F0CDF9039B1593029B16930023D8
:10052000179300238DF8603000231993229B1A93B0
:1005300000231F930FA91F9B0822049802F092FA30
:1005400008231F93119B1293BDF84030ADF84C3037
:10055000BDF84230ADF84E3000238DF851309DF893
:100560003C3003F00303DBB2012B26D10F9BC3F316
:1005700095231C939DF83C30C3F3C203DBB28DF886
:100580005030BDF83C30C3F38313DBB21B931B9B8D
:100590009A0009A91F9B049802F064FA1B9B9B0018
:1005A0001F9A13441F9312AA09A915AB009313466F
:1005B0001B9A1C9800F0FAFF2FE09DF83C3003F0E6
:1005C0000303DBB2022B28D1BDF83E30C3F38913FD
:1005D0009BB21E939DF83C30C3F3C203DBB28DF88F
:1005E00050301E9B082B28BF08231D9307A91F9B73
:1005F0001D9A049802F036FA1F9A1D9B13441F930C
:100600001E9A1D9BD31A1E9315AB12AA07A81D99FB
:1006100001F06EF81E9B002BE3D1049802F057F90D
:1006200000BF21B05DF804FB00B583B00190019BD1
:100630001B781A460C4B9B5C002B05D0019B0433A6
:10064000184603F0E9FD0BE0019B1B781A46064BA8
:100650009B5C002B04D1019B0C33184602F07EFFFB
:1006600000BF03B05DF804FBB807002000B587B0F9
:100670000390029113468DF8073000230593039BE6
:100680001B781A46114B9B5C002B09D0039B04334B
:100690009DF807200299184603F020FE05900FE010
:1006A000039B1B781A46094B9B5C002B08D1039BCC
:1006B0000C339DF807200299184602F0C7FF0590F9
:1006C000059B184607B05DF804FB00BFB807002083
:1006D00082B001900091034B01221A7000BF02B05A
:1006E000704700BF1802002030B58DB003468DF86A
:1006F00007301A4B02AC1D460FCD0FC495E80F0012
:1007000084E80F00062302934FF0FF3303934FF06A
:10071000FF3304934FF0FF3305934FF0EB730893CF
:100720009DF80730002B01D00D4A00E0002202ABFB
:1007300019460C4802F06CFA0B900B9B0A930A9B2B
:10074000002B04D0084A43210A9801F09AF9074A7D
:100750009DF80730137000BF0DB030BDE46F00008E
:10076000D106000000000020786F00001902002070
:1007700000B583B001238DF807309DF80730184687
:10078000FFF7B2FF00BF03B05DF804FB00B589B00E
:10079000039002910192019B8DF81F30124B0022B1
:1007A0001A709DF81F301A4602991048FFF75EFF35
:1007B0000690069B0593059B002B04D00C4A532101
:1007C000059801F05EF900BF0A4B1B78002B07D09B
:1007D000054B1B78DBB283F00103DBB2002BF3D1B6
:1007E00000BF09B05DF804FB1802002000000020E3
:1007F000786F00001902002000B585B003900291C7
:10080000054B00934023054A02990398FFF77AFEAF
:1008100000BF05B05DF804FB8D070000D801002083
:1008200082B0019000BF02B07047000000B583B0F5
:1008300001900548FFF7F8FE0020FFF755FF00BFC5
:1008400003B05DF804FB00BF0000002082B00190FF
:10085000019BDB6801225A7100BF02B070470000A3
:1008600000B583B04FF0FF330193FFF7E6FD04219D
:10087000114800F0B7FD0190019B002B03DA0F49EE
:10088000412001F006FA0C48FFF7E0FFFFF770FF88
:1008900004210B4800F0A6FD0190019B002B03DA18
:1008A0000649482001F0F5F90548FFF7CFFF00BFE2
:1008B00003B05DF804FB00BF286F00003470000037
:1008C000386F000000B583B001900091019B1B6858
:1008D0001B6800990198984700BF03B05DF804FBBE
:1008E00000B583B00190019B1B685B680198984735
:1008F00000BF03B05DF804FB00B583B00190019B1D
:100900001B689B680198984700BF03B05DF804FB23
:1009100082B001900B468DF80330019BDB689DF897
:1009200003201A7100BF02B0704782B00190019B92
:10093000DB681B79184602B0704782B00190019BBA
:10094000DB6801225A7100BF02B0704782B001908B
:10095000019BDB685B79184602B0704700B585B033
:10096000019000910C4B00221A700C4801F004FF1A
:100970000390039B002B01D0039B08E0084802F082
:1009800091F8084A084BD31ADB0802930023184653
:1009900005B05DF804FB00BF84030020486F000031
:1009A000A4700000286F0000086F0000024A034B8B
:1009B000D31ADB0818467047286F0000086F000044
:1009C00000B587B001900B468DF803309DF80330D9
:1009D000002B1FD0FFF7EAFF04900023059313E0DC
:1009E000059B9B000E4A13440393039B1B881A46E6
:1009F000019B1B689A4204D1019B059A1A6000234F
:100A000009E0059B01330593059A049B9A42E7D3BD
:100A1000052300E00023184607B05DF804FB00BF83
:100A20000000002000B585B001900B468DF8033022
:100A30009DF8032001AB11461846FFF7C1FF03469E
:100A4000002B07D1019BDB00054A13440393039B52
:100A50001B6800E00023184605B05DF804FB00BFEA
:100A6000086F000084B001900B468DF80330019BA5
:100A7000DB00174A134402939DF80330013B032B1C
:100A80001CD801A252F823F0990A0000A10A000024
:100A9000A90A0000B30A000002238DF80F3011E00C
:100AA00004238DF80F300DE0029B1B798DF80F3079
:100AB00008E0029B5B798DF80F3003E000238DF88E
:100AC0000F3000BF9DF80F30184604B0704700BFCC
:100AD000086F000084B00190009100238DF80F3062
:100AE000019B1B7803F00403DBB2002B24D0019B95
:100AF0001B78C3F30103DBB2012B02D0022B0CD015
:100B000017E0009B1B68019A1288C2F38312D2B2CD
:100B100013449A1C009B1A600BE0009B1B68019A0F
:100B20005288C2F3891292B213449A1C009B1A6035
:100B300000BF01238DF80F309DF80F30184604B028
:100B40007047000000B58BB00023ADF826303E485A
:100B500001F02CF93D4801F029F93D4B9B680493C5
:100B60003C4B1B680693049A069B134002339B0080
:100B7000374A13440433089304AB19460898FFF727
:100B8000A9FF0346002B09D0049A069B13400233A9
:100B90009B002F4A134404330893EDE700BF002362
:100BA000079311E0049B5A1C0492069A1340079A7B
:100BB000920001A90A44264902339B000B445B685A
:100BC0001360079B01330793079B012BEAD99DF81C
:100BD0000430C3F30103DBB2012B10D0022B1CD174
:100BE000BDF80A30ADF82630BDF80630C3F38913DE
:100BF0009BB203339A08049B1344049313E0BDF89B
:100C00000A30ADF82630BDF80430C3F38313DBB2ED
:100C10001A46049B1344049305E00F494FF4C27035
:100C200001F037F800BF094801F0CCF80590059BAA
:100C3000002B02D0049B064A9360BDF8263018466C
:100C40000BB05DF804FB00BF9C0700209807002054
:100C50008403002024000020B470000000B585B09B
:100C60000021074801F02BF80390039B0293029B9D
:100C700083F310030193019B184605B05DF804FB54
:100C8000A007002000B589B0039002910192009363
:100C9000039B1B0C0793FFF7E1FF0690FFF786FE0F
:100CA0000246079B934204D3214940F2A91000F069
:100CB000F0FF069B1904009B5A1C0A9B1340079ADD
:100CC0000A431C4902339B000B445A60009A0A9B5A
:100CD000134002339B00174A134404330593039BCC
:100CE00003F00703D9B2059A137861F3C5031370B3
:100CF000019B03F00F03D9B2059A138861F389139E
:100D00001380029BC3F31501059A136861F39F23B7
:100D10001360059A1378012161F301031370059A9A
:100D2000137823F00403137000BF09B05DF804FBCF
:100D3000B47000008403002000BF704700B58BB082
:100D40000390029113468DF80730039B02330893FA
:100D500001238DF81F30002000F054FF3E4B5A68ED
:100D6000029B1A603D4B1A683B4B99683A4B5B6893
:100D7000CB1A13440133099314E00121384800F0E1
:100D8000E5FFFFF7DFFE05900599354800F0DEFF2F
:100D9000324B1A68304B99682F4B5B68CB1A13445F
:100DA00001330993089A099B9A42E6D89DF81F30AF
:100DB000002B48D0002304939DF80730002B17D058
:100DC0009DF81030012262F301038DF810309DF878
:100DD000103043F004038DF81030039B03F00F0331
:100DE000DAB2BDF8103062F38913ADF8103016E0B6
:100DF0009DF81030022262F301038DF810309DF847
:100E0000103043F004038DF81030039BC3F3090343
:100E10009AB2BDF8123062F38F13ADF812300E4B58
:100E20005A680E4B1B68134002339B000A4A134456
:100E300004330693049A069B1A60074B5A68089B72
:100E40001344054A5360002000F0F0FE9DF81F3067
:100E500018460BB05DF804FB84030020240000203A
:100E6000A007002000B58BB0059004910392029377
:100E70001F4B1B68079306AB012219460298FFF728
:100E80005DFF0346002B24D0069B02330993002309
:100E9000089311E0089B9B00039A1A44099B591C74
:100EA000099107990B401268124902339B000B44C9
:100EB0005A60089B01330893089A029B9A42E9D32F
:100EC000069A079B00931346029A04990598FFF728
:100ED000D9FE084B1B78002B04D000F07FF80346A6
:100EE000002BFAD1FFF728FF00BF0BB05DF804FB21
:100EF000240000208403002000B583B001900091FD
:100F00000023002200990198FFF7ACFF00BF03B057
:100F10005DF804FB00B587B0039002910192019B3C
:100F2000059305AA012302990398FFF79BFF00BFD1
:100F300007B05DF804FB00B587B003900291019201
:100F40000093019B0493009B059304AA022302993A
:100F50000398FFF787FF00BF07B05DF804FB00B5FB
:100F600089B00390029101920093019B0593009B2D
:100F700006930A9B079305AA032302990398FFF798
:100F800071FF00BF09B05DF804FB00B58BB00390A2
:100F9000029101920093019B0593009B06930C9B89
:100FA00007930D9B08930E9B099305AA05230299AD
:100FB0000398FFF757FF00BF0BB05DF804FB00007C
:100FC000054B9A68044B5B689A420CBF01230023CF
:100FD000DBB21846704700BF8403002000B599B00B
:100FE000FFF7EEFF0346002B01D00023B9E19B4B36
:100FF0000022C3F81824BFF34F8F00BF974B9B68A4
:101000000493974B1B681093049A109B1340023370
:101010009B00924A13440433119300231793002337
:10102000169300230F9304AB19461198FFF752FD56
:101030000346002B19D0894BD3F81834002B14D158
:10104000864B5A68049B9A4205D8844B5B68834A56
:101050009360002385E1049A109B134002339B00A8
:101060007E4A134404331193DDE70023159311E006
:10107000049B5A1C0492109A1340159A920001A9DD
:101080000A44764902339B000B445B681360159B4E
:1010900001331593159B012BEAD99DF8043003F019
:1010A0000303DBB2022B40F09C80BDF80630C3F393
:1010B00089139BB20D93BDF80630C3F389139BB21D
:1010C000502B28BF50239BB20C930C9BC3F30903F6
:1010D0009AB2BDF8063062F38F13ADF806300C9B60
:1010E00008330B939DF80430C3F3C203DBB20F93B4
:1010F0000B995C4801F04BFB1790179B002B00F0FD
:10110000D380179801F0D4FB01A9169B08221798E9
:1011100001F08AFC169B08331693049BDA43109B5C
:10112000134001339B000A930C9A0A9B9A4242D9BE
:101130000A9B002B08D0049A109B134002339B009B
:10114000464A1344043300E0474B08930A9B002BA4
:1011500002D00A9BDBB201E00C9BDBB28DF81F30A2
:101160000A9B002B01D0404B00E0002306930A9B12
:10117000002B06D00C9BDAB20A9BDBB2D31ADBB28F
:1011800000E000238DF817309DF81F20169B08996A
:10119000179801F049FC9DF81F30169A13441693D6
:1011A000069B002B16D09DF81720169B06991798C2
:1011B00001F03AFC0EE0049A109B134002339B00AE
:1011C000264A134404330993169B0C9A09991798DD
:1011D00001F02AFC0D9B03339A08049B13440493EB
:1011E00062E09DF8043003F00303DBB2012B5BD116
:1011F000BDF80430C3F38313DBB2062B28BF0623EC
:10120000DAB2BDF8043062F38913ADF80430BDF8EA
:101210000430C3F38313DBB202330E939DF8043022
:10122000C3F3C203DBB20F930E9B9B0019460D481C
:1012300001F0ADFA1790179B002B35D0179801F0ED
:1012400037FB01A9169B0822179801F0EDFB169BAE
:1012500008331693002315931DE000BF840300207C
:1012600024000020486F000090030020049B5A1CBB
:101270000492109A134002339B003C4A1344191DF8
:10128000169B0422179801F0CFFB169B043316938C
:10129000159B01331593BDF80430C3F38313DBB200
:1012A0001A46159B9342E1D3179B002B39D02F4B45
:1012B000D3F8103414932D4BD3F81834002B1BD0D3
:1012C000179801F004FB46E000238DF84F30149886
:1012D000FFF73CFB0346002B02D001238DF84F3073
:1012E0009DF84F30002B03D017991498FFF7EAFAB6
:1012F000149BDB681B681493149B002BE4D1179894
:1013000001F0E5FA002000F07DFC184BD3F818340A
:10131000002B02D1049B154A9360002000F086FC4C
:1013200019E0124BD3F81034129306E01298FFF72D
:10133000E3FA129BDB681B681293129B002BF5D11A
:101340000B4A0C4BD31ADB081B0443F002030A4977
:101350001846FFF7D1FDFFF733FE034683F0010384
:10136000DBB2184619B05DF804FB00BF840300200F
:10137000206F0000086F00001C71000000B585B0F0
:101380000023039323E0164BD3F810340293012378
:101390008DF807300FE00298FFF7C7FA03461A46A8
:1013A000039B934203D100238DF8073006E0029B94
:1013B000DB681B680293029B002BECD19DF8073081
:1013C000002B01D0039B07E0039B01330393039B96
:1013D000092BD8DD4FF0FF33184605B05DF804FB4C
:1013E0008403002000B585B001900B468DF80330D2
:1013F000FFF7C4FF0390039BB3F1FF3F01D1039BB1
:1014000022E0039BDBB219460198FFF781FA104BEB
:10141000D3F81034002B08D10D4A019BC2F81034C8
:10142000019BDB6800221A600DE0094BD3F81034F1
:10143000DA68019BDB6812681A60054BD3F8103438
:10144000DB68019A1A60039B184605B05DF804FB3F
:101450008403002000B583B00C4BD3F81034019303
:101460000A4B01221A7009E00198FFF766FA019809
:10147000FFF736FA019BDB681B680193019B002B89
:10148000F2D100BF00BF03B05DF804FB840300206D
:1014900082B00190009100BF02B0704710B584B0D7
:1014A00003900291039BDB88002B0AD0039BDB880F
:1014B0001A461F4B009313461E4A1F49029800F01C
:1014C000AFFD039B1B7A052B2ED0039B5B7A002B71
:1014D00012D0039B9B881A46039B1B7A1946104621
:1014E000FFF7C0FA03461A46144B53F822301A4647
:1014F0001349029800F094FD039B1B68194602985B
:10150000FFF7C6FF039B1B7A1A460E4B53F8224087
:10151000039B9B8800211846FFF784FA0346224666
:101520000949029800F07CFD00BF04B010BD00BF67
:101530005071000060710000987100003C000020B4
:10154000B071000028000020B471000000B585B023
:101550000390029113468DF80730039B1B7A052BED
:101560000FD0039B5B7A002B06D00D4B1B681A46ED
:101570000C49029800F054FD0B49029800F050FD10
:1015800007E09DF80730002B03D00749029800F0D0
:1015900047FD029800F022FD00BF05B05DF804FB96
:1015A0003C000020B0710000C071000030B58BB06D
:1015B00007900691059204930E9B1B7B8DF82730B4
:1015C0000E9B00221A730E990498FFF767FF059B84
:1015D000062B7FD801A252F823F000BFF9150000B6
:1015E0000316000013160000271600004516000021
:1015F0006D1600009D16000007990E9800F010FD72
:1016000069E0069B1B681A4607990E9800F008FDD2
:1016100061E0069B1A68069B04331B6807990E98C5
:1016200000F0FEFC57E0069B1A68069B043319681D
:10163000069B08331B6800930B4607990E9800F031
:10164000EFFC48E0069B1968069B04331868069B6C
:1016500008331B68069A0C32126801920093034605
:101660000A4607990E9800F0DBFC34E0069B1868E8
:10167000069B04331C68069B08331B68069A0C32D1
:10168000126806991031096802910192009323466D
:10169000024607990E9800F0C3FC1CE0069B1C68EC
:1016A000069B04331D68069B08331B68069A0C32A0
:1016B0001268069910310968069814300068039082
:1016C0000291019200932B46224607990E9800F052
:1016D000A7FC00E000BF00220E990498FFF736FF38
:1016E0000E9B9DF827201A7300BF0BB030BD00BFC2
:1016F00000B587B00390029101920093029B082BE2
:1017000060D8009B1B7B8DF81330009B00221A735E
:1017100000990198FFF7C2FE0023059314E0059A93
:10172000029B9A4209D2039A059B13441B781A46DE
:101730002649009800F074FC03E02549009800F069
:101740006FFC059B01330593059B072BE7D92149C6
:10175000009800F065FC0023059326E0059A029BA3
:101760009A421BD2039A059B13441B788DF81230C2
:101770009DF812307E2B0AD89DF81230184605F0DD
:1017800079FB0346002B02D09DF8123000E02E2397
:101790001A461149009800F043FC03E00F490098F5
:1017A00000F03EFC059B01330593059B072BD5D923
:1017B000012200990198FFF7C9FE009B9DF81320B4
:1017C0001A7300E000BF07B05DF804FBC4710000AD
:1017D000CC710000D0710000D4710000D8710000FD
:1017E00000B583B00190019B1B68184600F0B5F866
:1017F0000346002B04D105494FF4F67000F049FA76
:101800004FF0A043184603B05DF804FBDC71000004
:1018100000B585B00190084611461A4603468DF87A
:1018200003300B468DF8023013468DF8013001ABC2
:101830001846FFF7D5FF03909DF803209DF802306E
:101840005B001A439DF801309B001A439DF8183045
:101850001B0242EA03019DF81C301B04019A194344
:10186000039B02F5E07243F8221000BF05B05DF85B
:1018700004FB00B585B0039000230193002300937F
:101880000023012201210398FFF7C2FF00BF05B02A
:101890005DF804FB00B585B003900B468DF80B3066
:1018A0009DF80B30002201920022009200220021BC
:1018B0000398FFF7ADFF00BF05B05DF804FB00B56E
:1018C00085B0019001AB1846FFF78AFF0390019B9A
:1018D000012202FA03F31946039800F02AF800BF28
:1018E00005B05DF804FB00B585B0019001AB18466A
:1018F000FFF776FF0390019B012202FA03F31946DA
:10190000039800F020F800BF05B05DF804FB00B5B7
:1019100083B001900091009B002B03D10198FFF749
:10192000E2FF02E00198FFF7CAFF00BF03B05DF8D5
:1019300004FB82B001900091019B009AC3F8082536
:1019400000BF02B0704782B001900091019B009AE5
:10195000C3F80C2500BF02B0704784B00190019B12
:101960005B09029300230393029B002B03D14FF0EA
:10197000FF33039300BF019B03F01F030193039AFE
:10198000019B22FA03F303F00103DBB2184604B013
:101990007047000000B583B00190019B032B03D971
:1019A0000749472000F075F9064A019B13441B784C
:1019B00001211846FFF7ABFF00BF03B05DF804FB41
:1019C0000C7200005C72000000B583B0002301932C
:1019D00005E00198FFF7DEFF019B01330193019BB6
:1019E000032BF6D900BF00BF03B05DF804FB000075
:1019F00000B583B00023019309E0094A019B134419
:101A00001B781846FFF735FF019B01330193019BBB
:101A1000032BF2D9FFF7D8FF00BF03B05DF804FB3A
:101A20005C72000000B583B0002301930AE0094A0C
:101A3000019B13441B7803211846FFF72BFF019BE2
:101A400001330193019B032BF1D900BF00BF03B009
:101A50005DF804FB6072000000B583B00190019B4B
:101A600003F00103002B01D0FFF7C2FF019B03F03D
:101A70000203002B01D0FFF7D5FF00BF03B05DF8D4
:101A800004FB00B583B002900091019244F2010082
:101A900071466A4600F018F803B000BD00BF0000B0
:101AA000BFF34F8F00BF064BDB6803F4E0620449CD
:101AB000044B1343CB60BFF34F8F00BF00BFFDE764
:101AC00000ED00E00400FA0530B58BB007900691F8
:101AD000059272B600BFFFF7BDFCFFF77FFA034621
:101AE000002BFAD1079B44F20102934216D0079BC8
:101AF00044F2020293423ED1059B09932C4A2D4B9E
:101B0000D31ADB081B0443F00100099B5B681A46EB
:101B1000099B1B682849FFF70EFA39E0059B0893DB
:101B2000234A244BD31ADB081B0443F00104089B0F
:101B30009D68089B9B68184600F0D2FF0346184634
:101B4000089B5B681946089B1B68069A02920193E2
:101B5000009103462A4619492046FFF716FA144A0F
:101B6000144BD31ADB081B0443F001031449184635
:101B7000FFF7C2F90CE00E4A0E4BD31ADB081B0428
:101B800043F00103069A0F491846FFF7C3F900BF57
:101B9000074A084BD31ADB081B0443F00300059BDC
:101BA0000093069B079A0849FFF7D9F9FFF778FFDA
:101BB000206F0000086F0000647200008072000057
:101BC000A8720000BC720000D472000072B600BFA0
:101BD000034B1B680133024A136000BF704700BF0C
:101BE000A4070020064B1B68013B054A1360044B09
:101BF0001B68002B01D162B600BF00BF704700BF59
:101C0000A407002000B583B0019000F025F803463A
:101C1000012B03D00449432000F03BF8FFF7D6FF27
:101C200000BF03B05DF804FBF872000000B583B09C
:101C300003468DF8073000F00FF80346012B03D060
:101C40000449512000F025F8FFF7CCFF00BF03B096
:101C50005DF804FBF872000084B0EFF30583019394
:101C6000019BC3F308030393039B002B0DD1EFF3F8
:101C700014830093009B0293029B03F00103002B4B
:101C80000CBF01230023DBB200E00123184604B09F
:101C9000704700B585B003460091ADF80630BDF839
:101CA00006300293009B039302AB1A46002144F2D4
:101CB0000200FFF709FF00BF05B05DF804FB10B498
:101CC00087B001900091019B009A53E8004F1046A5
:101CD00043E8000191F0000FF7D1059404900391BF
:101CE000059B184607B05DF8044B704710B487B0E9
:101CF00001900091019B009A53E8004F44EA0200D2
:101D000043E8000191F0000FF6D10594049003918F
:101D1000049B184607B05DF8044B704710B487B0B9
:101D200001900091019B009A53E8004F04EA0200E1
:101D300043E8000191F0000FF6D10594049003915F
:101D4000059B184607B05DF8044B704710B487B088
:101D500001900091019B009A53E8004F04EB0200B0
:101D600043E8000191F0000FF6D10594049003912F
:101D7000049B184607B05DF8044B704710B487B059
:101D800001900091019B009A53E8004FA4EB0200E0
:101D900043E8000191F0000FF6D1059404900391FF
:101DA000049B184607B05DF8044B704700B583B03C
:101DB000019001210198FFF799FF0346184603B0EF
:101DC0005DF804FB00B583B0019000210198FFF796
:101DD000A5FF0346184603B05DF804FB00B583B0C9
:101DE00001900B468DF80330019B002B03D108496D
:101DF000E820FFF74EFF019BDA689DF80330019958
:101E0000098A01FB03F31344184603B05DF804FB91
:101E10005C73000000B583B001900091019B002B22
:101E200003D10849F520FFF734FF009B019AD268DF
:101E30009B1A019A128AB3FBF2F3DBB2184603B085
:101E40005DF804FB5C73000000B585B00190019B58
:101E5000002B01D10E234CE0019B1B68002B03D10A
:101E60002649FF20FFF715FF019B5B68002B04D17B
:101E700022494FF48070FFF70CFF019B9B68002BF9
:101E800004D11E4940F20110FFF703FF019BDB68FC
:101E9000002B04D119494FF48170FFF7FAFE019B22
:101EA0001B8A002B04D1154940F20310FFF7F1FE05
:101EB000019B9A68019B5B68D31A8DF80F30019BD8
:101EC0001B68019A52681A6007E0019B1A68136840
:101ED000591C11609DF80F201A709DF80F305A1E82
:101EE0008DF80F20002BF0D1019B1B6800221A7186
:101EF0000023184605B05DF804FB00BF5C730000CA
:101F000000B585B00190019B002B04D11C494FF412
:101F10009270FFF7BEFE002303930020FFF772FECE
:101F2000019B1B681A68019B5B689A421FD9019B41
:101F30001B681A68013A1A601B681B7819460198D9
:101F4000FFF74CFF0390019B9A68019B1B681B687D
:101F5000D31A8DF80B30019B1B681B799DF80B2061
:101F60009A4204D9019B1B689DF80B201A7100202E
:101F7000FFF75CFE039B184605B05DF804FB00BF4D
:101F80005C73000010B584B001900091019B002BA0
:101F900004D1114940F24710FFF77BFE009B002B54
:101FA00004D10D494FF4A470FFF773FE009B039317
:101FB0000020FFF727FE019B1B681C68621C1A604B
:101FC00003990198FFF726FF034623700020FFF7CF
:101FD0002DFE00BF04B010BD5C73000000B583B0DF
:101FE0000190019B002B03D10C493120FFF751FEDA
:101FF000019B9B68002B0CD0019B5B69019A1069C7
:10200000019A1168019A92689847019B00229A6090
:1020100000E000BF03B05DF804FB00BFBC7300002C
:102020000EB400B584B00190019B002B03D1184978
:102030004220FFF72EFE019B5B69002B03D1144960
:102040004320FFF726FE019B1B68002B03D110499C
:102050004420FFF71EFE019B5B68002B03D10C4957
:102060004520FFF716FE059B002B0AD000230393A3
:1020700006AB039303AB1A460599019800F0B8F933
:1020800000E000BF04B05DF804EB03B0704700BF90
:10209000BC73000000B583B001900B468DF803308F
:1020A0009DF803300A2B03D10D210198FFF7F2FFB1
:1020B000019B1A68019B9B68581C01998860134416
:1020C0009DF803201A70019B9A68019B5B689A42F5
:1020D00002D30198FFF782FF00BF03B05DF804FB55
:1020E00000B587B0039002910192009300230593FD
:1020F000009B03F00103002B24D00BE0029B013373
:102100000293059B013305939DF8133019460398FC
:10211000FFF7C0FF029B1B788DF813309DF813303A
:10212000002BEBD106E0019B013B0193202103989A
:10213000FFF7B0FF019A059B9A422ED9019B002B15
:10214000F1D12AE0029B002B0BD0029804F0FBFD9A
:10215000059006E0019B013B019320210398FFF7C6
:1021600099FF019A059B9A420FD9019B002BF1D14F
:102170000BE0029B01330293059B013305939DF80D
:10218000133019460398FFF785FF029B1B788DF8E3
:1021900013309DF81330002BEBD100BF07B05DF872
:1021A00004FB000000B589B00390029101920093F6
:1021B000029B07930123069307E0079A019BB2FB5A
:1021C000F3F30793069B01330693079A019B9A4208
:1021D000F3D2009A069B9A4201D9009B06930B9B6F
:1021E00003F00103002B22D10A9B002B1FD00B9B75
:1021F00003F00203002B06D0009B002B03D13023F9
:102200008DF8173002E020238DF8173008E00A9B84
:10221000013B0A939DF8173019460398FFF73AFFE0
:102220000A9B002B03D0069A0A9B9A42EFD3012304
:102230000793009B012B03D9009B013B009309E00E
:10224000029A079BB2FBF3F30493049A019B9A4210
:1022500000D205E0079B019A02FB03F30793E8E72E
:10226000029A079BB2FBF3F30493049B079A02FBC9
:1022700003F3029AD31A0293154A049B13441B7862
:1022800019460398FFF706FF079A019BB2FBF3F389
:102290000793079B002BE3D10B9B03F00103002B5B
:1022A00011D00A9B002B0ED006E00A9B013B0A933B
:1022B00020210398FFF7EEFE0A9B002B03D0069A1D
:1022C0000A9B9A42F1D300BF09B05DF804FB00BF3E
:1022D0006C74000000B589B00590049103920293DC
:1022E000049B002BB8BF5B4206930123079307E0D2
:1022F000039B069A92FBF3F30693079B0133079324
:10230000039B069A9A42F3DA029A079B9A4201D9F2
:10231000029B07930A9B002B0AD0049B002B04DB33
:102320000B9B03F00403002B02D00A9B013B0A9392
:102330000B9B03F00203002B02D0029B002B16D054
:102340000B9B03F00103002B11D10A9B002B0ED035
:1023500006E00A9B013B0A9320210598FFF79AFEAD
:102360000A9B002B03D0079A0A9B9A42F1D3049B45
:10237000002B07DA049B5B4204932D210598FFF79D
:1023800089FE08E00B9B03F00403002B03D02B21F4
:102390000598FFF77FFE0B9B03F00203002B19D07B
:1023A0000B9B03F00103002B14D1029B002B11D1D6
:1023B0000A9B002B0ED006E00A9B013B0A933021BA
:1023C0000598FFF767FE0A9B002B03D0079A0A9B2C
:1023D0009A42F1D304990B9B01930A9B0093029BB1
:1023E000039A0598FFF7DEFE00BF09B05DF804FB15
:1023F00000B58FB0059004910392059B002B04D18A
:10240000AD4940F25220FFF744FC059B5B69002B6D
:1024100004D1A9494FF41570FFF73BFC059B1B68DD
:10242000002B04D1A44940F25520FFF732FC059B54
:102430005B68002B04D1A04940F25620FFF729FC2D
:10244000049B002B00F09381049B1B788DF83730A0
:10245000049B013304939DF83730002B00F07E81FC
:102460009DF83730252B40F06D8100230A9301231E
:102470000C93049B1B788DF837309DF83730302B48
:102480000DD0302B1BDC2B2B11D02D2B17D10A9B01
:1024900043F001030A93049B0133049312E00A9B67
:1024A00043F002030A93049B013304930AE00A9B5E
:1024B00043F004030A93049B0133049302E00023D6
:1024C0000C9300BF0C9B002BD3D1002309939DF8E4
:1024D00037302A2B0CD1039B1B68191D039A1160FE
:1024E0001B68099A13440993049B013304931AE06F
:1024F000049B1B788DF837309DF837302F2B12D97D
:102500009DF83730392B0ED8049B01330493099A78
:1025100013469B0013445B001A469DF83730134462
:10252000303B0993D3E700230B93049B1B788DF872
:1025300037309DF837302E2B1DD1049B0133049387
:10254000049B1B788DF837309DF837302F2B12D92C
:102550009DF83730392B0ED8049B013304930B9A26
:1025600013469B0013445B001A469DF83730134412
:10257000303B0B93E4E7049B1B788DF837309DF8D4
:1025800037306C2B03D09DF83730682B07D1049B74
:1025900001330493049B1B788DF83730EFE79DF8E7
:1025A0003730252B00F0C480252BC0F2C680782B55
:1025B00000F3C380582BC0F2C080583B202B00F2A0
:1025C000BC8001A252F823F0BD2600003B2700008A
:1025D0003B2700003B2700003B2700003B27000073
:1025E0003B2700003B2700003B2700003B27000063
:1025F0003B2700004D2600006F2600003B2700000F
:102600003B2700003B2700003B2700006F2600000F
:102610003B2700003B2700003B2700003B27000032
:102620003B2700003B270000FD2600003B27000061
:102630003B270000E12600003B2700009326000016
:102640003B2700003B270000BD260000039B1B68C2
:10265000191D039A11601B680C930C9B8DF81F3099
:102660009DF81F3019460598FFF714FD66E0039B9F
:102670001B68191D039A11601B680C930A9B019338
:10268000099B00930B9B0A220C990598FFF722FEE9
:1026900054E0039B1B68191D039A11601B680C937F
:1026A0000C990A9B0193099B00930B9B0A220598A6
:1026B000FFF778FD42E000BF10740000039B1B6829
:1026C000191D039A11601B680C930C990A9B0193C6
:1026D000099B00930B9B10220598FFF763FD2DE0EB
:1026E000039B1B68191D039A11601B6808930A9BC2
:1026F000099A08990598FFF7F3FC1FE0039B1B68F4
:10270000191D039A11601B680C9330210598FFF77F
:10271000C1FC78210598FFF7BDFC0C9900230193BB
:1027200008230093082310220598FFF73BFD05E0DE
:1027300025210598FFF7AEFC00E000BF049B0133A4
:10274000049305E09DF8373019460598FFF7A2FC81
:10275000049B1B78002B7FF477AE00E000BF059B45
:102760001B7B002B04D00598FFF738FC00E000BF6E
:102770000FB05DF804FB00BF00B583B00190019875
:10278000FFF762FB0346184603B05DF804FB00B593
:102790008BB001900091019B1B8A043B0793009A28
:1027A000079B1344DA1C079BB2FBF3F38DF81B3035
:1027B0000198FFF7A5FB0590059B002B01D1002395
:1027C00038E0059B00221A71059B01225A71079B74
:1027D0009AB2059BDA80059B09939DF81B30013B5B
:1027E0000493099B019A1A60002308931DE0019845
:1027F000FFF786FB0390039B002B0ED0059B5B79B4
:102800000133DAB2059B5A71099B039A1A60039B44
:10281000019A1A60039B099304E0059800F00EF8F2
:10282000002307E0089B01330893089A049B9A420F
:10283000DDD3059B18460BB05DF804FB00B58BB0EB
:102840000190019B0793079B5B798DF81B30019BDF
:1028500008939DF81B30013B05930023099305E085
:10286000089B1B680893099B01330993099A059BF0
:102870009A42F5D3089B1B680493019B089300239D
:1028800009930BE0089B1B68039308990498FFF7D2
:1028900079FB039B0893099B013309939DF81B3037
:1028A000099A9A42EED300BF00BF0BB05DF804FB5B
:1028B00000B585B00190019B0393039B0433012174
:1028C0001846FFF743FA00BF05B05DF804FB00B5FA
:1028D00087B00190019B0593059B043301211846A5
:1028E000FFF74CFA0346039303AB0493049B1B7856
:1028F000002B02D10198FFF7A1FF00BF07B05DF8E0
:1029000004FB000000B591B0039002910192009386
:10291000039B002B03D14349B620FFF7BAF9039B71
:102920000993039B0F93099BDB881A46099B5B79EC
:1029300002FB03F3043B0893009A089B9A4203D3DB
:102940003849C420FFF7A5F9099BDB880793009B52
:102950001A1D079BB2FBF3F30E93009B0433079AF7
:10296000B3FBF2F2079901FB02F29B1A0D93019B54
:102970001A68009B1344089A9A4203D2089A009B53
:10298000D31A01E0019B1B680C93019B0C9A1A60FF
:1029900005E00F9B1B680F930E9B013B0E930E9B54
:1029A000002BF6D100230B93079A0D9BD31A0A93A1
:1029B0000A9A0C9B934228BF13460A932AE0029A74
:1029C0000B9B134406930F9A0D9B134404330593FA
:1029D0009DF84830002B05D00A9A0599069804F016
:1029E000C7F904E00A9A0699059804F0C1F9002392
:1029F0000D930F9B1B680F930C9A0A9BD31A0C9391
:102A00000B9A0A9B13440B93079A0C9B934228BF83
:102A100013460A930C9B002BD1D100BF00BF11B00D
:102A20005DF804FB7C74000000B589B0059004914A
:102A300003920293039B079307AA00230093029B30
:102A400004990598FFF75EFF079B039A9A4203D00B
:102A50000349F620FFF71DF900BF09B05DF804FB3C
:102A60007C74000000B589B0059004910392029334
:102A7000039B079307AA01230093029B04990598DF
:102A8000FFF740FF079B039A9A4204D004494FF492
:102A90008070FFF7FEF800BF09B05DF804FB00BFCF
:102AA0007C74000082B00190019B9B6800229A60B8
:102AB000019B9B6800221A61019B9B6800225A615E
:102AC000019B9B680022DA60019B9B6800225A6090
:102AD000019B9B6800221A6000BF02B07047000093
:102AE00000B585B00190019800F00EF80390039BAB
:102AF000002B01D0039B00E0024B184605B05DF8A7
:102B000004FB00BFDC74000086B00190164B0593F7
:102B1000164B04931FE0049A059BD31ADB10DA0FBF
:102B200013445B10DB00059A13440393039B1B685B
:102B30000293029A019B9A4202D9039B04930AE0F2
:102B4000029A019B9A4203D2039B0833059302E049
:102B5000039B5B6804E0059A049B9A42DBD3002345
:102B6000184606B0704700BFB0780000C879000072
:102B700000B589B001900091009B0793019B1B78E1
:102B80008DF80C30019B5B680493019B9B68DBB262
:102B90008DF81430019BDB680693074A079B52F8B7
:102BA00023300649079A51F8221003AA1046984785
:102BB00000BF09B05DF804FBA8070020B0070020A3
:102BC00000B589B001900091009B0793019B1B7891
:102BD0008DF80C30019B5B680493019B9B68DBB212
:102BE0008DF81430019BDB680693074A079B52F867
:102BF00023300649079A51F8221003AA1046984735
:102C000000BF09B05DF804FBA8070020B007002052
:102C100030B58FB0039002910192039B1B780C9307
:102C200026490C9B019A41F82320029B1A692449EA
:102C30000C9B41F82320029B5B7F1946214A0C9B89
:102C400013440A461A70029B04AC1D460FCD0FC4F4
:102C500095E80F0084E80F000C9B089300230D9368
:102C6000039B1B781A46174B9B5C002B0DD0039BD4
:102C7000181D019B002B01D0134A00E0002204AB79
:102C8000194601F063FA0D9014E0039B1B781A4675
:102C90000C4B9B5C002B0DD1039B03F10C00019BA3
:102CA000002B01D0094A00E0002204AB194600F0D5
:102CB000EBFB0D900D9B18460FB030BDA807002010
:102CC000B0070020B8070020712B0000C12B0000C6
:102CD00008B5064B1B68002B03D105495120FEF7B0
:102CE000D8FF024B1B68984708BD00BFBC070020F7
:102CF000CC79000082B00190019B044A934201D13B
:102D0000034B00E00023184602B07047002000404B
:102D1000BC07002000B587B001900091019B002BFB
:102D200003D118497720FEF7B4FF0198FFF7E2FFBF
:102D30000590059B002B1ED000238DF8133000203A
:102D4000FEF760FF059B1B79002B03D001238DF854
:102D5000133005E0059B009A1A60059B01221A7149
:102D60000020FEF763FF9DF81330002B03D01123E2
:102D70000393039B02E000230393039B184607B0D1
:102D80005DF804FBCC79000000B585B00190019B93
:102D9000002B03D10A499B20FEF77BFF0198FFF728
:102DA000A9FF0390039B002B05D0039B00221A6010
:102DB000039B00221A7100BF05B05DF804FB00BF41
:102DC000CC79000082B003468DF807309DF90730BA
:102DD000002B0CDB9DF8073003F01F0205499DF91D
:102DE00007305B09012000FA02F241F8232000BFFE
:102DF00002B0704700E100E082B003468DF8073072
:102E00009DF90730002B13DB9DF8073003F01F02FC
:102E100009499DF907305B09012000FA02F22033CD
:102E200041F82320BFF34F8F00BFBFF36F8F00BF68
:102E300000BF02B0704700BF00E100E082B003466F
:102E400000918DF807309DF90730002B0ADB009BBD
:102E5000DAB20C499DF907305201D2B20B4483F823
:102E600000230BE0009BDAB207499DF8073003F01E
:102E70000F03043B5201D2B20B441A7600BF02B0DA
:102E8000704700BF00E100E000ED00E082B001907B
:102E9000019B1B0B5BB2184602B0704700B583B0B4
:102EA00003460A468DF8073013468DF806309DF824
:102EB0000630072B03D908496B20FEF7EAFE9DF880
:102EC00006209DF9073011461846FFF7B7FF00BFEF
:102ED00003B05DF804FB00BF2C7A000000B583B09E
:102EE00003468DF807309DF907301846FFF76AFF53
:102EF00000BF03B05DF804FB00B583B003468DF856
:102F000007309DF907301846FFF776FF00BF03B082
:102F10005DF804FB84B001900B46ADF80230BDF8BB
:102F20000230019A134400221A60BDF80230019A5F
:102F300013441B680393039B00BF04B0704782B027
:102F400001900B46ADF80230BDF80230019A1344EF
:102F50001B68002B14BF01230023DBB2184602B00C
:102F6000704782B001900091019B009AC3F804233E
:102F700000BF02B0704782B001900091019BD3F86E
:102F80000423009B1340002B14BF01230023DBB25A
:102F9000184602B0704782B001900091019B009AE0
:102FA000C3F8082300BF02B0704784B00190019BB2
:102FB000D3F880340393019B039AC3F88024039BC6
:102FC000184604B0704782B00190019B0422C3F8F8
:102FD000002500BF02B0704782B00190019B002223
:102FE000C3F8002500BF02B0704784B0039002917F
:102FF0000192039B019AC3F81425039B029AC3F81C
:103000000C2500BF04B0704700B583B001904FF0AD
:10301000FF324FF0FF310198FFF7E7FF00BF03B029
:103020005DF804FB82B00190019BD3F80C35184683
:1030300002B0704782B00190019BD3F81435184656
:1030400002B0704782B00190019BD3F80835184652
:1030500002B0704782B00190019BD3F8103518463A
:1030600002B0704784B0039002910192039B029AD0
:10307000C3F80825039B019AC3F8102500BF04B0CC
:10308000704700B583B001904FF0FF324FF0FF3131
:103090000198FFF7E7FF00BF03B05DF804FB82B0C3
:1030A0000190019BD3F81835DBB2184602B0704787
:1030B00082B001900B468DF803309DF80320019BF0
:1030C000C3F81C2500BF02B0704782B001900B46C8
:1030D0008DF803309DF80330019A134401221A60E1
:1030E00000BF02B0704782B001900B468DF80330EC
:1030F00013468DF802309DF803209DF802301343EB
:10310000DBB21A46019BC3F86C2500BF02B07047C2
:1031100082B001900091019B009AC3F8242500BF62
:1031200002B0704700B583B00190019B1B68184640
:1031300000F096F80346002B04D105494FF4F670D1
:10314000FEF7A7FD4FF0A043184603B05DF804FB5F
:103150005C7A000000B585B00190084611461A4619
:1031600003468DF803300B468DF8023013468DF878
:10317000013001AB1846FFF7D5FF03909DF80320FF
:103180009DF802305B001A439DF801309B001A4302
:103190009DF818301B0242EA03019DF81C301B0405
:1031A000019A1943039B02F5E07243F8221000BF15
:1031B00005B05DF804FB00B585B0039000230193D2
:1031C000002300930023012201210398FFF7C2FF8F
:1031D00000BF05B05DF804FB00B585B003900B4659
:1031E0008DF80B309DF80B300022019200220092E6
:1031F000002200210398FFF7ADFF00BF05B05DF886
:1032000004FB00B585B003900023019300230093D5
:103210000023012200210398FFF79CFF00BF05B0A7
:103220005DF804FB00B585B0019001AB1846FFF7CF
:1032300079FF0390019B012202FA03F319460398D8
:1032400000F004F800BF05B05DF804FB82B0019007
:103250000091019B009AC3F8082500BF02B0704797
:1032600084B00190019B5B09029300230393029BAE
:10327000002B03D14FF0FF33039300BF019B03F0FA
:103280001F030193039A019B22FA03F303F0010346
:10329000DBB2184604B0704700B583B001900091CE
:1032A000009B1B68B3F1FF3F09D0009B1B681846C9
:1032B000FFF7B8FF009B1B681846FFF77CFF009BD9
:1032C0005B68B3F1FF3F05D0009B5B6800211846A7
:1032D000FFF782FF019B1A68009B9B691946104605
:1032E000FFF716FF019B1868009B597D009B1B7D13
:1032F0001A46FFF7F8FE019B1868009B1968009BAF
:103300005B681A46FFF771FE009B1B7D012B22D1E3
:10331000009B9B68B3F1FF3F05D0009B9B68002199
:103320001846FFF759FF009BDB68B3F1FF3F09D058
:10333000009BDB681846FFF775FF009BDB681846AB
:10334000FFF739FF019B1868009BD968009B9B68B9
:103350001A46FFF787FE00BF03B05DF804FB0000CC
:1033600000B583B001900B468DF80330019B1B68BC
:103370004FF48E711846FFF7CDFD019B1B684FF48B
:10338000A2711846FFF7C6FD019B1B680E4918463F
:10339000FFF7E7FD019B1B681846FFF777FD034623
:1033A0001A469DF8033019461046FFF777FD019B3A
:1033B0001B681846FFF76AFD03461846FFF78EFDA7
:1033C00000BF03B05DF804FB8000020000B583B0CD
:1033D0000190019B1B6808491846FFF7DCFD019B23
:1033E0001B681846FFF752FD03461846FFF784FD99
:1033F00000BF03B05DF804FB8402020000B587B093
:103400000190019B1B681846FFF70CFE0590019B7D
:103410001B681846FFF70EFE0490019B1B681846B8
:10342000FFF710FE0390019B1B681846FFF712FE82
:103430000290019B1B681846FFF7E6FD019B1B6885
:103440001846FFF71EFE059BB3F1FF3F02D005981B
:10345000FFF7D7FE049BB3F1FF3F02D00498FFF7BC
:10346000D0FE029BB3F1FF3F02D00298FFF7C9FEE6
:10347000039BB3F1FF3F02D00398FFF7C2FE00BFEA
:1034800007B05DF804FB000000B587B0039002911F
:103490000192029B002B03D12D49AA20FEF7F9FBD4
:1034A000039B1B791A462C2302FB03F3294A13447E
:1034B000049300230593049B93F82A30002B03D038
:1034C00008230593059B3EE0039B1A68039B1B7929
:1034D0001946214B53F8213019461046FFF71AFCC4
:1034E0000346002B03D011230593059B2BE0029983
:1034F0000398FFF7D1FE049B019A5A60029B1A6958
:10350000049B1A60049B5B68002B05D0029B1B7F09
:1035100019460398FFF724FF039B1B681846FFF723
:1035200052FD049B00229A61049B0022DA61049BF5
:10353000002283F82920049B00225A61049B012267
:1035400083F82A20059B184607B05DF804FB00BFEE
:10355000947A0000C4070020F07A000000B585B01E
:103560000190019B1B791A462C2302FB03F3114A9D
:1035700013440393019B1B681846FFF72DFD039B23
:103580005B68002B02D00198FFF720FF0198FFF73E
:1035900035FF019B1B681846FFF7F6FB039B0022D3
:1035A00083F82A20039B00225A6000BF05B05DF813
:1035B00004FB00BFC407002000B585B00190009156
:1035C0004FF48E710198FFF7A5FC009B9A68009B51
:1035D0001B6A13441B788DF80F30009B1B6A5A1C22
:1035E000009B1A629DF80F3019460198FFF760FDA5
:1035F00000BF05B05DF804FB00B585B001900091F7
:10360000009B5B69039316E0009B93F82830DBB2C4
:10361000002B01D0002314E04FF48E710198FFF7C6
:103620008EFC034683F00103DBB2002BECD1009942
:103630000198FFF7C1FF009B1B6A039A9A42EBD8DF
:103640000123184605B05DF804FB000000B587B003
:10365000039002910192039B1B791A462C2302FBD3
:1036600003F33C4A13440493049B93F82A30012B40
:1036700004D039494FF48C70FEF70BFB029B002BF2
:1036800004D1354940F21910FEF703FB019B002BD2
:1036900004D131494FF48D70FEF7FBFA039800F026
:1036A0005DF80346002B03D011230593059B4CE0E6
:1036B000049B019A5A61049B029A9A60049B00221F
:1036C0001A62049B002283F8282000230593039BA1
:1036D0001B684FF48E711846FFF71CFC039B1B6898
:1036E00008211846FFF7F1FC039B1B680499184654
:1036F000FFF762FF049B5B68002B25D1039B1B68CF
:1037000004991846FFF778FF034683F00103DBB204
:10371000002B02D00F23059313E000BF039B1B680F
:103720004FF48E711846FFF70AFC034683F001033D
:10373000DBB2002BF2D1039B1B680C211846FFF76C
:10374000C4FC049B00225A61059B184607B05DF833
:1037500004FB00BFC4070020947A000082B00190EF
:10376000019B1B791946074A2C2301FB03F31344E1
:1037700014331B68002B14BF01230023DBB218464F
:1037800002B07047C407002010B582B001900091CC
:10379000009B9B69002B08D14FF484710198FFF7BF
:1037A000B9FB0198FFF77BFC13E04FF4847101989B
:1037B000FFF7B0FB009BDA68009B5B6AD4180198A6
:1037C000FFF76DFC03462370009B5B6A5A1C009B4D
:1037D0005A6202B010BD00B589B003900291019207
:1037E00001238DF81030029B0693019B0593039BE8
:1037F0005B68039A116804AA1046984700BF09B095
:103800005DF804FB00B587B00190009100238DF8AE
:103810000830009B0493019B9B680393019B00224B
:103820005A61019B5B68019A116802AA1046984789
:1038300000BF07B05DF804FB00B58BB001900091AC
:103840004FF400710198FFF796FB0346002B39D027
:103850004FF492710198FFF772FB0346002B31D0B1
:103860004FF492710198FFF755FB4FF401710198E5
:10387000FFF791FB009B93F8293083F00103DBB243
:10388000002B03D004210198FFF71FFC02238DF8C1
:103890000C300198FFF789FB03460693009B9B6958
:1038A0000593009BDB680493009B00229A61009BB8
:1038B0000022DA61009B5B68009A116803AA104637
:1038C000984752E004210198FFF755FB0346002B6F
:1038D0004BD04FF484710198FFF731FB0346002B66
:1038E00043D000990198FFF74FFF009B9A69009B16
:1038F0005B6A9A4239D1009BDB69002B19D0009B8F
:10390000DB680993009B5B6A0893009BDA69009B64
:103910009A61009B1A69009BDA60009B0022DA61C1
:10392000009B00225A62099A08990098FFF753FFFA
:103930001BE0009B93F8293083F00103DBB2002BDE
:1039400003D004210198FFF7C0FB4FF401710198E7
:10395000FFF721FB009B00229A61009B596A009BA4
:10396000DB681A460098FFF736FF4FF48E71019816
:10397000FFF7E5FA0346002B24D0009B5B69079311
:10398000009B1B6A079A9A420DD9009B93F8283036
:10399000DBB283F00103DBB2002B04D00099019865
:1039A000FFF70AFE0EE04FF48E710198FFF7B2FAAE
:1039B000009B5B69002B05D0009B5B691946009852
:1039C000FFF720FF4FF4A2710198FFF7B8FA034602
:1039D000002B1CD04FF4A2710198FFF79BFA009BBB
:1039E00093F82930002B03D000210198FFF76DFBDD
:1039F000009B9B69002B0AD0009B00229A61009BD0
:103A0000596A009BDB681A460098FFF7E4FE00BF86
:103A10000BB05DF804FB000008B503490348FFF74D
:103A20000BFF00BF08BD00BFC407002000200040FE
:103A300082B003468DF807309DF90730002B0CDB70
:103A40009DF8073003F01F0205499DF907305B0917
:103A5000012000FA02F241F8232000BF02B07047B3
:103A600000E100E082B003468DF807309DF9073091
:103A7000002B13DB9DF8073003F01F0209499DF965
:103A800007305B09012000FA02F2203341F82320BD
:103A9000BFF34F8F00BFBFF36F8F00BF00BF02B0F7
:103AA000704700BF00E100E082B0034600918DF84E
:103AB00007309DF90730002B0ADB009BDAB20C4976
:103AC0009DF907305201D2B20B4483F800230BE07A
:103AD000009BDAB207499DF8073003F00F03043B5F
:103AE0005201D2B20B441A7600BF02B0704700BF39
:103AF00000E100E000ED00E082B00190019B03F0E6
:103B00006043B3F1005F0CBF01230023DBB2184612
:103B100002B0704782B00190019B1B0B5BB218464C
:103B200002B0704700B583B003460A468DF80730EF
:103B300013468DF806309DF80630072B03D9084947
:103B40006B20FEF7A6F89DF806209DF90730114678
:103B50001846FFF7A9FF00BF03B05DF804FB00BFE4
:103B6000F47A000000B583B003468DF807309DF964
:103B700007301846FFF75CFF00BF03B05DF804FB99
:103B800000B583B003468DF807309DF9073018461D
:103B9000FFF768FF00BF03B05DF804FB84B001903D
:103BA0000B46ADF80230BDF80230019A13440022F2
:103BB0001A60BDF80230019A13441B680393039BFB
:103BC00000BF04B0704782B001900B46ADF80230E0
:103BD000BDF80230019A13441B68002B14BF012367
:103BE0000023DBB2184602B0704782B0019000910A
:103BF000019BD3F80022009BDB431A40019BC3F8D2
:103C0000002200BF02B0704782B001900091019B7A
:103C1000009AC3F8042300BF02B0704782B001903D
:103C20000091019B009AC3F8082300BF02B07047BF
:103C300084B00190019BD3F880340393019B039AD5
:103C4000C3F88024039B184604B0704782B00190EB
:103C5000019B0822C3F8002500BF02B0704782B064
:103C60000190019B0022C3F8002500BF02B07047FD
:103C700084B0039002910192039B029AC3F80C2531
:103C8000039B019AC3F8142500BF04B0704700B528
:103C900083B001904FF0FF324FF0FF310198FFF7F2
:103CA000E7FF00BF03B05DF804FB82B00190019B09
:103CB000D3F80C35184602B0704782B00190019BD2
:103CC000D3F81435184602B0704782B00190019BBA
:103CD000D3F80835184602B0704782B00190019BB6
:103CE000D3F81035184602B0704784B003900291A3
:103CF0000192039B029AC3F80825039B019AC3F81B
:103D0000102500BF04B0704700B583B001904FF09C
:103D1000FF324FF0FF310198FFF7E7FF00BF03B01C
:103D20005DF804FB82B001900B468DF803309DF8DE
:103D30000330019A134401221A6000BF02B0704799
:103D400082B001900B468DF8033013468DF8023097
:103D50009DF803209DF802301343DBB21A46019B05
:103D6000C3F86C2500BF02B0704782B0019000918B
:103D7000019B009AC3F8242500BF02B0704784B0AD
:103D8000039002910192029A039BC3F84425039B7E
:103D9000019AC3F8482500BF04B0704782B0019073
:103DA000019BD3F84C35184602B0704782B00190A1
:103DB000019BD3F83C35184602B0704700B583B07C
:103DC0000190019B1B68184600F096F80346002BF3
:103DD00004D105494FF4F670FDF75BFF4FF0A043A7
:103DE000184603B05DF804FB247B000000B585B0E5
:103DF0000190084611461A4603468DF803300B46DB
:103E00008DF8023013468DF8013001AB1846FFF7EC
:103E1000D5FF03909DF803209DF802305B001A4304
:103E20009DF801309B001A439DF818301B0242EAAE
:103E300003019DF81C301B04019A1943039B02F5F2
:103E4000E07243F8221000BF05B05DF804FB00B536
:103E500085B00390002301930023009300230122E7
:103E600001210398FFF7C2FF00BF05B05DF804FB16
:103E700000B585B003900B468DF80B309DF80B30E4
:103E80000022019200220092002200210398FFF7F5
:103E9000ADFF00BF05B05DF804FB00B585B0039031
:103EA00000230193002300930023012200210398A3
:103EB000FFF79CFF00BF05B05DF804FB00B585B0BF
:103EC000019001AB1846FFF779FF0390019B012297
:103ED00002FA03F31946039800F004F800BF05B096
:103EE0005DF804FB82B001900091019B009AC3F839
:103EF000082500BF02B0704784B00190019B5B09A8
:103F0000029300230393029B002B03D14FF0FF3356
:103F1000039300BF019B03F01F030193039A019BCE
:103F200022FA03F303F00103DBB2184604B0704732
:103F300000B583B001900091009B1B68B3F1FF3F77
:103F400009D0009B1B681846FFF7B8FF009B1B6851
:103F50001846FFF77CFF009B5B68B3F1FF3F05D07D
:103F6000009B5B6800211846FFF782FF019B1A68DF
:103F7000009B9B6919461046FFF7F7FE019B1868E6
:103F8000009B597D009B1B7D1A46FFF7D9FE019BC4
:103F90001868009B1968009B5B681A46FFF768FE6B
:103FA000009B1B7D012B22D1009B9B68B3F1FF3F3F
:103FB00005D0009B9B6800211846FFF759FF009B26
:103FC000DB68B3F1FF3F09D0009BDB681846FFF7C1
:103FD00075FF009BDB681846FFF739FF019B1868E7
:103FE000009BD968009B9B681A46FFF77EFE00BFC6
:103FF00003B05DF804FB000000B583B001900B46F0
:104000008DF80330019B1B684FF488711846FFF749
:10401000C5FD019B1B684FF490711846FFF7BEFD6C
:10402000019B1B684FF492711846FFF7B7FD019B87
:104030001B684FF4A2711846FFF7B0FD019B1B6887
:104040004FF4AC711846FFF7A9FD019B1B680F499F
:104050001846FFF7D9FD019B1B681846FFF75AFD6C
:1040600003461A469DF8033019461046FFF75AFDDD
:10407000019B1B681846FFF74DFD03461846FFF7E6
:1040800071FD00BF03B05DF804FB00BF10034200E8
:1040900000B583B00190019B1B6808491846FFF7E3
:1040A000BDFD019B1B681846FFF734FD034618460B
:1040B000FFF766FD00BF03B05DF804FB100342008C
:1040C00000B587B00190019B1B681846FFF7EDFD16
:1040D0000590019B1B681846FFF7EFFD0490019BBC
:1040E0001B681846FFF7F1FD0390019B1B681846FB
:1040F000FFF7F3FD0290019B1B681846FFF7C7FD11
:10410000019B1B681846FFF7FFFD059BB3F1FF3FBE
:1041100002D00598FFF7C1FE049BB3F1FF3F02D028
:104120000498FFF7BAFE029BB3F1FF3F02D002985A
:10413000FFF7B3FE039BB3F1FF3F02D00398FFF7F5
:10414000ACFE00BF07B05DF804FB000000B587B00F
:10415000039002910192029B002B03D12B49CF20A7
:10416000FDF797FD039B1B791A461346DB001344AA
:104170009B00274A1344049300230593049B93F860
:104180002030002B03D008230593059B3AE0039BC6
:104190001A68039B1B7919461E4B53F821301946A8
:1041A0001046FEF7B7FD0346002B03D011230593FD
:1041B000059B27E002990398FFF7BAFE049B019A3A
:1041C0005A60029B1A69049B1A60049B5B68002B6F
:1041D00005D0029B1B7F19460398FFF70DFF039B39
:1041E0001B681846FFF732FD049B00229A61049B6E
:1041F0000022DA61049B00225A61049B012283F8A9
:104200002020059B184607B05DF804FB5C7B00008E
:10421000F0070020B87B000000B585B00190019B3D
:104220001B791A461346DB0013449B002A4A1344A9
:104230000393019B1B680293039B5B68002B02D0D6
:104240000198FFF725FF20210298FFF7CEFC039B82
:104250009B69002B08D04FF4A2710298FFF79EFCD7
:1042600004210298FFF75EFD4FF4AC710298FFF74E
:1042700095FC0C210298FFF755FD00BF4FF4AC717F
:104280000298FFF7A0FC034683F00103DBB2002B8A
:10429000F4D1039B9B69002B0AD04FF4A2710298C2
:1042A000FFF791FC034683F00103DBB2002BE5D15D
:1042B0000298FFF7D4FC0198FFF702FF0298FEF77F
:1042C00063FD039B002283F82020039B00225A6099
:1042D00000BF05B05DF804FBF007002000B589B011
:1042E000039002910192039B1B791A461346DB004F
:1042F00013449B00564A13440593059B93F82030C2
:10430000012B04D0534940F25310FDF7C2FC029B2D
:10431000002B04D14F494FF4AA70FDF7BAFC019B62
:10432000002B04D14B4940F25510FDF7B2FC039B22
:104330001B79002B02D1019BFF2B04D945494FF477
:10434000AB70FDF7A6FC0298FFF7D6FB034683F09F
:104350000103DBB2002B03D010230793079B73E00C
:10436000039800F079F80346002B03D0112307933C
:10437000079B69E0059B019A5A61059B029A9A6026
:1043800000230793039B1B684FF490711846FFF7B7
:1043900005FC039B1B684FF4AC711846FFF7FEFB4E
:1043A000039B1868059B9968059B5B691A46FFF794
:1043B000E6FC039B1B6808211846FFF7B3FC059B2E
:1043C0005B68002B3FD1039B1B684FF4907118462C
:1043D000FFF7F9FB03468DF81B30039B1B684FF476
:1043E000AC711846FFF7EFFB03468DF81A309DF8C5
:1043F0001B3083F00103DBB2002B06D09DF81A308E
:1044000083F00103DBB2002BDDD19DF81A30002BC5
:1044100002D00F23079313E0039B1B680C2118465F
:10442000FFF780FC00BF039B1B684FF4AC7118467C
:10443000FFF7C9FB034683F00103DBB2002BF2D187
:10444000059B00225A61079B184609B05DF804FBE2
:10445000F00700205C7B000082B00190019B1B797B
:104460001946084A0B46DB000B449B0013441433E7
:104470001B68002B14BF01230023DBB2184602B0D7
:10448000704700BFF007002000B589B0039002918B
:10449000019201238DF81030029B0693019B059336
:1044A000039B5B68039A116804AA1046984700BFF3
:1044B00009B05DF804FB00B587B0019000910023BE
:1044C0008DF80830009B0493019B9B680393019B2C
:1044D00000225A61019B5B68019A116802AA10468A
:1044E000984700BF07B05DF804FB00B589B00190A4
:1044F00000914FF492710198FFF765FB0346002B82
:1045000022D04FF492710198FFF748FB02238DF8F7
:1045100008300198FFF78CFB034605930198FFF7DD
:1045200045FC03460493009BDB680393009B002239
:104530009A61009B0022DA61009B5B68009A116817
:1045400002AA104698473BE04FF488710198FFF7A4
:104550003AFB0346002B33D04FF488710198FFF7E4
:104560001DFB0198FFF722FC0790009B9B69079AAF
:104570009A4225D1009BDB69002B17D0009BDB689A
:10458000069320210198FFF730FB009BDA69009B1E
:104590009A61009B1A69009BDA60009B0022DA6135
:1045A000069A07990098FFF76FFF09E0009B002229
:1045B0009A61009BDB681A4607990098FFF764FF31
:1045C0004FF4A2710198FFF7FEFA0346002B18D0B2
:1045D0004FF4A2710198FFF7E1FA009B9B69002B51
:1045E0000FD0009B00229A61009B0022DA610198A3
:1045F000FFF7DCFB0146009BDB681A460098FFF7DB
:1046000043FF4FF490710198FFF7DDFA0346002B4A
:1046100014D04FF490710198FFF7C0FA0C21019863
:10462000FFF780FB009B5B69002B07D00198FFF729
:10463000B5FB034619460098FFF73DFF4FF4AC71F8
:104640000198FFF7C0FA0346002B10D04FF4AC716D
:104650000198FFF7A3FA009B5B69002B07D0019834
:10466000FFF79CFB034619460098FFF724FF00BFA5
:1046700009B05DF804FB000008B503490348FFF7E3
:1046800034FF00BF08BD00BFF0070020002000403D
:1046900000B585B00190019B002B0AD0074B43F079
:1046A00001030393019B9B010293039B029898478C
:1046B00000E000BF05B05DF804FB00BF107D000006
:1046C00000B583B00190019B1B68184600F0B4F858
:1046D0000346002B04D105494FF4F670FDF7D9FAD3
:1046E0004FF0A043184603B05DF804FBBC7B00000C
:1046F00000B583B00190009105E0019800F03DF80D
:10470000019B01330193019A009B9A42F5D900BFA6
:1047100000BF03B05DF804FB00B585B0019008460A
:1047200011461A4603468DF803300B468DF80230C9
:1047300013468DF8013001AB1846FFF7C1FF039017
:104740009DF803209DF802305B001A439DF801306C
:104750009B001A439DF818301B0242EA03019DF8A2
:104760001C301B04019A1943039B02F5E07243F8C5
:10477000221000BF05B05DF804FB00B585B00390C2
:1047800000230193002300930023012201210398B9
:10479000FFF7C2FF00BF05B05DF804FB00B585B0B0
:1047A000019001AB1846FFF78BFF0390019B01229C
:1047B00002FA03F31946039800F02AF800BF05B087
:1047C0005DF804FB00B585B0019001AB1846FFF71A
:1047D00077FF0390019B012202FA03F31946039825
:1047E00000F020F800BF05B05DF804FB00B583B011
:1047F00001900091009B002B03D10198FFF7E2FF8D
:1048000002E00198FFF7CAFF00BF03B05DF804FBA8
:1048100082B001900091019B009AC3F8082500BF67
:1048200002B0704782B001900091019B009AC3F8DA
:104830000C2500BF02B0704784B00190019B5B095A
:10484000029300230393029B002B03D14FF0FF330D
:10485000039300BF019B03F01F030193039A019B85
:1048600022FA03F303F00103DBB2184604B07047E9
:1048700000B583B00190019B1B78022B39D0022B2D
:104880003EDC002B02D0012B12D039E01E4A1F4B18
:10489000D31ADB081B0443F004031D491846FCF738
:1048A0002BFB1C4B1B780133DAB21A4B1A7027E032
:1048B000154A164BD31ADB081B0443F004031649B0
:1048C0001846FCF719FB02F0BDF802F0A3F817E058
:1048D000124B1B78002B0CD00B4A0C4BD31ADB0865
:1048E0001B0443F003030D4A92790D491846FCF767
:1048F00011FB0A4802F020F80346002BE8D000BF65
:1049000000BF03B05DF804FB206F0000086F0000DB
:10491000EC7B000015090020007C0000140800203A
:10492000107C00004FF080430022C3F800214FF0BC
:10493000804301221A6000BF4FF08043D3F800315A
:10494000002BF9D000BF00BF704708B50F21082029
:10495000FFF7CEFE0120FDF77FF800BF08BD000085
:1049600030B58FB04FF00B3308934FF0C23307933D
:1049700005238DF81830284B6C461D460FCD0FC40B
:1049800095E8030084E8030001238DF800304FF41C
:104990001673ADF80C3001238DF808301F4B0193CE
:1049A00000238DF8013000238DF814306B46184633
:1049B00001F0B4FD0D900D9B0C930C9B002B01D0CE
:1049C0000C9B25E008AB184602F05CF80D900D9B9F
:1049D0000B930B9B002B01D00B9B19E007AB1846E8
:1049E00002F098F80D900D9B0A930A9B002B01D0C2
:1049F0000A9B0DE006AB0121184602F0FBF80D9072
:104A00000D9B0993099B002B01D0099B00E00D9B96
:104A100018460FB030BD00BF287C00007148000070
:104A200000B589B000230693FFF78FFF0021002017
:104A3000FBF794FF0590059B0493049B002B04D087
:104A4000554ABD210498FDF71CF8FBF709FFFFF755
:104A500069FFFFF785FF0590059B0393039B002BE0
:104A600004D04D4AC4210398FDF70BF84B4A4C4B38
:104A7000D31ADB081B0443F004034A491846FCF729
:104A80003BFA0023079382E0444A454BD31ADB08E4
:104A90001B0443F00403444A927944491846FCF746
:104AA00039FA414B0022DA7006224149414802F0AE
:104AB0005FF93D4B06221A703B4801F053FE034656
:104AC000002B4DD1384B9B7903F00703DBB2002B51
:104AD00006D0354B9B7903F00703DBB2042B01D9D9
:104AE000012300E0002319461120FFF77FFE2E4B23
:104AF0009B7903F00603DBB2002B06D02A4B9B798F
:104B000003F00703DBB2052B01D9012300E00023EA
:104B100019461220FFF76AFE234B9B7903F0070327
:104B2000DBB2022B06D9204B9B7903F00703DBB2E3
:104B3000062B01D9012300E0002319461320FFF7BB
:104B400055FE194B9B7903F00403DBB2002B0CBF1D
:104B500001230023DBB219461420FFF747FE0AE0C9
:104B60000E4A0F4BD31ADB081B0443F00203124911
:104B70001846FCF7C1F94CF25030FFF789FDFCF7FD
:104B80002DFA0346002BFAD1079B01330793079BAD
:104B9000002B7FF779AF74E7407C0000206F0000A6
:104BA000086F00009C7C000060000020D07C0000AA
:104BB000EC7C000065000020F47C000082B0204BFB
:104BC0000193019B02221A61019B02225A61019BFF
:104BD0001C4A9A61019B1C4ADA61019B4FF40072E6
:104BE0001A62019B00229A62019B00225A62019B79
:104BF0000022DA62019B134A9A64019B134ADA6429
:104C0000019B10221A65019B00229A65019B0022DC
:104C10005A65019B0022DA65019B07330C4A106834
:104C20001860019B0B4A10681860918892799980EE
:104C30009A71019B20229A7100BF02B0704700BF99
:104C400018090020187D000090090020900B00201A
:104C5000247D0000287D000000B589B003900291FA
:104C6000019200230693039BDB680593039B1B695A
:104C70000493049A059B9A4205D9049A059BD31A7A
:104C8000013B079307E0039B9A680499059BCB1AA5
:104C90001344013B0793039B9A68059BD31A079A19
:104CA000934228BF13460793079A019B934228BF5C
:104CB00013460793039B5A68059B1344079A02996E
:104CC000184602F055F8069A079B13440693029A79
:104CD000079B13440293019A079BD31A0193059AE9
:104CE000079B13440593039B9B68059A9A4201D145
:104CF00000230593039B059ADA60019B002BB5D135
:104D0000069B184609B05DF804FB00B589B0039016
:104D100002910192039BDB680793039B9A68079BB0
:104D2000D31A0693069A019B9A420ED9039B5A689E
:104D3000079B1344019A0299184602F019F8079A42
:104D4000019B1A44039BDA601AE0069B0593039BC0
:104D50005A68079B1344059A0299184602F008F80E
:104D6000019A069BD31A0593039B5868029A069BE7
:104D70001344059A194601F0FBFF039B059ADA607C
:104D800000BF09B05DF804FB86B00190019B1B6970
:104D90000493019BDB680393049A039B9A4208D80F
:104DA000019B9A68039BD21A049B1344013B059311
:104DB00004E0049A039BD31A013B0593059B184614
:104DC00006B0704700B589B0039002910192029B32
:104DD0000693039B5A1C13465B001344DB00204AD6
:104DE00013440593059B5B69022B29D0022B2ED817
:104DF000002B02D0012B13D029E00598FFF7C4FF48
:104E00000490049A019B9A4202D20023079321E066
:104E1000019B0793019A06990598FFF776FF19E021
:104E20000598FFF7B1FF0490019A049B934228BFB5
:104E300013460793079A06990598FFF766FF09E05E
:104E4000019A06990598FFF707FF079002E00023F3
:104E5000079300BF079B184609B05DF804FB00BF2D
:104E60001809002008B5FFF7A9FE00BF08BD000023
:104E7000BFF34F8F00BF064BDB6803F4E0620449C9
:104E8000044B1343CB60BFF34F8F00BF00BFFDE760
:104E900000ED00E00400FA0582B01D4B1B68B3F181
:104EA000FF3F0AD11B4B1B68DBB201931A4B1B68F7
:104EB0001B0903F00F03009305E0154B1B680193DA
:104EC000164B1B680093019B062B1DD1009B033BD7
:104ED000042B17D801A252F823F000BFF14E0000B6
:104EE000F54E0000F94E0000FD4E0000014F00009D
:104EF00001230AE0012308E0012306E0012304E086
:104F0000012302E0012300E00023184602B07047AD
:104F100030010010E00F00F0E80F00F03401001045
:104F200082B0174B1B68DBB20193164B1B681B0941
:104F300003F00F030093019B062B1DD1009B033B45
:104F4000042B17D801A252F823F000BF614F0000D4
:104F5000654F0000694F00006D4F0000714F000069
:104F600001230AE0002308E0002306E0002304E018
:104F7000002302E0002300E00023184602B070473F
:104F8000E00F00F0E80F00F082B01D4B1B68B3F19A
:104F9000FF3F0AD11B4B1B68DBB201931A4B1B6806
:104FA0001B0903F00F03009305E0154B1B680193E9
:104FB000164B1B680093019B062B1DD1009B033BE6
:104FC000042B17D801A252F823F000BFE14F0000D4
:104FD000E54F0000E94F0000ED4F0000F14F0000E9
:104FE00001230AE0012308E0012306E0012304E095
:104FF000012302E0012300E00023184602B07047BD
:1050000030010010E00F00F0E80F00F03401001054
:1050100082B0174B1B68DBB20193164B1B681B0950
:1050200003F00F030093019B062B1DD1009B033B54
:10503000042B17D801A252F823F000BF51500000F2
:1050400055500000595000005D50000061500000B4
:1050500001230AE0002308E0002306E0002304E027
:10506000002302E0002300E00023184602B070474E
:10507000E00F00F0E80F00F082B01D4B1B68B3F1A9
:10508000FF3F0AD11B4B1B68DBB201931A4B1B6815
:105090001B0903F00F03009305E0154B1B680193F8
:1050A000164B1B680093019B062B1DD1009B033BF5
:1050B000042B17D801A252F823F000BFD1500000F2
:1050C000D5500000D9500000DD500000E150000034
:1050D00001230AE0012308E0012306E0012304E0A4
:1050E000012302E0012300E00023184602B07047CC
:1050F00030010010E00F00F0E80F00F03401001064
:1051000082B0174B1B68DBB20193164B1B681B095F
:1051100003F00F030093019B062B1DD1009B033B63
:10512000042B17D801A252F823F000BF4151000010
:1051300045510000495100004D51000051510000FF
:1051400001230AE0002308E0002306E0002304E036
:10515000002302E0002300E00023184602B070475D
:10516000E00F00F0E80F00F082B0174B1B68DBB2D5
:105170000193164B1B681B0903F00F030093019B5F
:10518000062B1DD1009B033B042B17D801A252F81C
:1051900023F000BFA9510000AD510000B151000043
:1051A000B5510000B951000001230AE0002308E0D6
:1051B000002306E0002304E0002302E0002300E0D7
:1051C0000023184602B07047E00F00F0E80F00F02F
:1051D00082B01D4B1B68B3F1FF3F0AD11B4B1B680C
:1051E000DBB201931A4B1B681B0903F00F030093FA
:1051F00005E0154B1B680193164B1B680093019B40
:10520000062B1DD1009B033B042B17D801A252F89B
:1052100023F000BF295200002D520000315200003F
:10522000355200003952000000230AE0002308E054
:10523000012306E0012304E0012302E0012300E052
:105240000023184602B0704730010010E00F00F054
:10525000E80F00F03401001082B01D4B1B68B3F161
:10526000FF3F0AD11B4B1B68DBB201931A4B1B6833
:105270001B0903F00F03009305E0154B1B68019316
:10528000164B1B680093019B062B1DD1009B033B13
:10529000042B17D801A252F823F000BFB15200002E
:1052A000B5520000B9520000BD520000C1520000CA
:1052B00001230AE0012308E0012306E0012304E0C2
:1052C000012302E0012300E00023184602B07047EA
:1052D00030010010E00F00F0E80F00F03401001082
:1052E00082B01D4B1B68B3F1FF3F0AD11B4B1B68FB
:1052F000DBB201931A4B1B681B0903F00F030093E9
:1053000005E0154B1B680193164B1B680093019B2E
:10531000062B1DD1009B033B042B17D801A252F88A
:1053200023F000BF395300003D53000041530000FB
:10533000455300004953000001230AE0012308E01F
:10534000012306E0012304E0012302E0012300E041
:105350000023184602B0704730010010E00F00F043
:10536000E80F00F03401001082B0154B1B68019368
:10537000144B1B680093019B062B1DD1009B033B24
:10538000042B17D801A252F823F000BFA15300004C
:10539000A5530000A9530000AD530000B153000015
:1053A00000230AE0002308E0002306E0012304E0D4
:1053B000012302E0012300E00023184602B07047F9
:1053C000300100103401001082B0154B1B680193AE
:1053D000144B1B680093019B062B1DD1009B033BC4
:1053E000042B17D801A252F823F000BF015400008B
:1053F00005540000095400000D5400001154000031
:1054000000230AE0002308E0002306E0002304E074
:10541000012302E0012300E00023184602B0704798
:10542000300100103401001008B5FFF7CDFF03462E
:10543000002B07D04FF010234FF08042D3F80832F2
:10544000C2F8583500BF08BD00BF044BD3F8003484
:10545000002BFAD000BF00BF704700BF00E0014042
:1054600000B583B00190054A019BC2F80435FFF7EF
:10547000EBFF00BF03B05DF804FB00BF00E001409C
:10548000024B034A1A6000BF704700BF640100204E
:105490000090D00308B5FFF7FFFC0346002B06D0B1
:1054A000964B1B681B0A964A03F01F031360FFF715
:1054B00037FD0346002B02D0924B934A1A60FFF748
:1054C00063FD0346002B06D0904B1B685B0B904A94
:1054D00003F007031360FFF79BFD0346002B05D085
:1054E0008C4BDB688B4A23F08073D360FFF7C4FDDD
:1054F0000346002B0ED04FF080430022C3F80C214E
:105500004FF080430022C3F810214FF08043002267
:10551000C3F83825FFF7F4FD0346002B02D07E4B7D
:1055200003221A60FFF720FE0346002B0BD07B4BB3
:1055300005221A607A4B01221A607A4B00221A6007
:10554000794B3F221A60FFF743FE0346002B76D0CB
:105550004FF08053754AD3F80434C2F820354FF029
:105560008053724AD3F80834C2F824354FF0805380
:105570006E4AD3F80C34C2F828354FF080536B4A8A
:10558000D3F81034C2F82C354FF08053674AD3F863
:105590001434C2F830354FF08053644AD3F81834CD
:1055A000C2F834354FF08053604AD3F81C34C2F847
:1055B00040354FF080535D4AD3F82034C2F844356B
:1055C0004FF08053594AD3F82434C2F848354FF08D
:1055D0008053564AD3F82834C2F84C354FF08053E4
:1055E000524AD3F82C34C2F850354FF080534F4A0A
:1055F000D3F83034C2F854354FF080534B4AD3F8C7
:105600003434C2F860354FF08053484AD3F8383408
:10561000C2F864354FF08053444AD3F83C34C2F8A2
:1056200068354FF08053414AD3F84034C2F86C35A6
:105630004FF080533D4AD3F84434C2F87035FFF739
:105640000BFE0346002B05D0394B1B68394A03F08B
:105650004F031360FFF744FE0346002B0DD04FF0BD
:105660008043D3F8003403F00103002B05D04FF042
:1056700080436FF00102C3F80024FFF775FE034674
:10568000002B05D02C4B1B682B4A43F4806313601E
:105690002A4BD3F88830294A43F47003C2F8883083
:1056A000BFF34F8F00BFBFF36F8F00BFFFF7BCFE8C
:1056B0004FF01023D3F80032002B05DB4FF01023FE
:1056C000D3F80432002B15DA0120FFF7C9FE4FF0A2
:1056D00010231522C3F80022FFF7B6FE4FF0102367
:1056E0001522C3F80422FFF7AFFE0020FFF7B8FE33
:1056F000FFF7BEFBFFF7C4FE00BF08BD2403001088
:105700004035014074C007400DF0ADBA44020010AE
:105710003C050040F0ED00E0A005004010560040C0
:1057200088560040185600401456004000C0004003
:1057300058020010E40E00403C17004000ED00E06D
:1057400082B003468DF807309DF90730002B0CDB43
:105750009DF8073003F01F0205499DF907305B09EA
:10576000012000FA02F241F8232000BF02B0704786
:1057700000E100E082B003468DF807309DF9073064
:10578000002B13DB9DF8073003F01F0209499DF938
:1057900007305B09012000FA02F2203341F8232090
:1057A000BFF34F8F00BFBFF36F8F00BF00BF02B0CA
:1057B000704700BF00E100E082B003468DF807307B
:1057C0009DF90730002B0DDB9DF8073003F01F0219
:1057D00006499DF907305B09012000FA02F24033C7
:1057E00041F8232000BF02B0704700BF00E100E095
:1057F00082B003468DF807309DF90730002B0DDB92
:105800009DF8073003F01F0206499DF907305B0938
:10581000012000FA02F2603341F8232000BF02B0F9
:10582000704700BF00E100E082B0034600918DF8B0
:1058300007309DF90730002B0ADB009BDAB20C49D8
:105840009DF907305201D2B20B4483F800230BE0DC
:10585000009BDAB207499DF8073003F00F03043BC1
:105860005201D2B20B441A7600BF02B0704700BF9B
:1058700000E100E000ED00E086B00190019B1B68B4
:105880000593059B0393039B93FAA3F30293029B57
:105890000493049B1BBA184606B0704700B585B048
:1058A00001900198FFF7E8FF03460393039B1BBA9F
:1058B000184605B05DF804FB8CB04FF08053D3F868
:1058C000043103F47F43B3F5844F11D1454BD3F832
:1058D0005036444A23F00103C2F85036424B1B684D
:1058E00023F0807323F001033F4A43F08073136079
:1058F0004FF08053D3F8043103F47F43B3F58A4F5C
:105900006CD13A4B5B7C052B01D1394B01E04FF058
:105910007F430B93334BD3F81C350B9A13400A93F8
:10592000304BD3F820350B9A134009930A9A099B00
:105930009A4253D12B4BD3F82435DBB20893294B31
:10594000D3F824351B0ADBB20793264BD3F8243552
:105950001B0CDBB20693234BD3F824351B0EDBB2B2
:105960000593204BD3F82835DBB204931D4BD3F8B5
:1059700028351B0ADBB203931A4BD3F828351B0CCE
:10598000DBB20293174BD3F828351B0EDBB2019321
:10599000089A079B9A4217D0089A069B9A4213D0FE
:1059A000089A059B9A420FD0089A049B9A420BD002
:1059B000089A039B9A4207D0089A029B9A4203D006
:1059C000089A019B9A4209D1074B1B6823F0807308
:1059D00023F00103044A43F0807313600023184648
:1059E0000CB07047001000407417004068010020A0
:1059F0000000FFFF82B00190084B094AC3F814254C
:105A0000084B5B7C013B1B04044A43F0807343F06A
:105A1000FC03C2F8183500BF02B070470010004008
:105A2000080003006801002082B001900A4B0B4A75
:105A3000C3F814250A4B5B7C013B1A04019B1B0233
:105A40001A43019B1343044A43F08073C2F818358C
:105A500000BF02B0704700BF00100040000101000D
:105A60006801002010B582B003468DF807309DF81C
:105A7000073003F00103002B06D0154C1548FFF743
:105A80000DFF0346C4F81C359DF8073003F00203F0
:105A9000002B06D00E4C1048FFF700FF0346C4F859
:105AA00020359DF8073003F00403002B0DD0084C7F
:105AB0000A48FFF7E1FE0346C4F82435044C0848C1
:105AC000FFF7DAFE0346C4F8283500BF02B010BD68
:105AD00000100040680100206C01002070010020CF
