:020000022000DC
:106000000000012019620200016202000362020026
:10601000056202000762020009620200000000003F
:106020000000000000000000000000000B62020001
:106030000D620200000000000F6202001162020007
:106040007DD4020013620200A5E402001362020084
:106050001362020013620200D5E002007DE8020034
:10606000B9F40200D1F402001362020013620200CC
:106070001362020013620200136202001362020044
:1060800013620200752C0300136202001362020007
:10609000136202001362020065DC03001362020057
:1060A0001362020013620200136202001362020014
:1060B00013620200136202000000000000000000F2
:1060C00013620200136202001362020013620200F4
:1060D000136202001362020013620200000000005B
:1060E00000000000000000000000000000000000B0
:1060F00000000000000000000000000000000000A0
:10610000000000000000000000000000000000008F
:10611000000000000000000000000000000000007F
:10612000000000000000000000000000000000006F
:10613000000000000000000000000000000000005F
:10614000000000000000000000000000000000004F
:10615000000000000000000000000000000000003F
:10616000000000000000000000000000000000002F
:10617000000000000000000000000000000000001F
:10618000000000000000000000000000000000000F
:1061900000000000000000000000000000000000FF
:1061A00000000000000000000000000000000000EF
:1061B00000000000000000000000000000000000DF
:1061C00000000000000000000000000000000000CF
:1061D00000000000000000000000000000000000BF
:1061E00000000000000000000000000000000000AF
:1061F000000000000000000000000000000000009F
:10620000FEE7FEE7FEE7FEE7FEE7FEE7FEE7FEE766
:10621000FEE7FEE700F002B8FFF7FCBF0F484FF0C3
:106220000701884385460E4880470E48016841F4BF
:1062300070010160BFF34F8FBFF36F8F00F01AB88A
:1062400009480A490A4A884207D0521A05D00378F9
:1062500001300B700131013AF9D170470000012083
:106260008996020088ED00E0F8E50300E82A0020A6
:10627000FC2A002039493A480A1A02D007229143E1
:106280008D46384938480A1A06D00722914381F3CF
:106290000988022282F3148834483549354A00F0CF
:1062A0003EF835483549364A00F039F83548364920
:1062B000364A00F034F836483649374A00F02FF8AD
:1062C00036483749374A00F02AF837483749384ABC
:1062D00000F025F837483849384A00F020F83848A7
:1062E0003849002200F033F837483849002200F0DE
:1062F0002EF837483749091A17F0AAFF364A90474F
:1063000024482549884205D00268043003B49047E8
:1063100003BCF7E700200021304A9047FEE788429F
:1063200014D0521A12D003460B43134303242342C2
:1063300006D1036804300B600431043AF9D1704788
:10634000037801300B700131013AF9D1704788426E
:1063500002D002700130FAE770470000000001200F
:1063600000E0002000000120000001205420040073
:10637000FC2A0020602C0020E0630200E0630200A1
:1063800074E4030054200400FC2A0020FC2A0020AE
:106390000CE603000CE603000CE603000CE6030029
:1063A0000CE603000CE603000CE603000CE6030019
:1063B00051200400B8210400602C0020602C002033
:1063C000602C0020CC540020CC540020CC54002061
:1063D000CC540020CC74002041620200197C0200E1
:1063E000BFF34F8F00BF064BDB6803F4E062044944
:1063F000044B1343CB60BFF34F8F00BF00BFFDE7DB
:1064000000ED00E00400FA0576DF704700BF184693
:106410007ADF704700BF18467CDF704700BF184620
:1064200067DF704700BF184608B5FFF7D9FF0000C7
:1064300000B585B00190019B002B0AD0074B43F0BB
:1064400001030393019B9B010293039B02989847CE
:1064500000E000BF05B05DF804FB00BFF0EA0300F8
:1064600082B001900B46ADF80230BDF80230019ABF
:106470001344184602B0704782B00190019BD3F8D4
:106480001035DBB2184602B0704782B00190019B14
:106490009B0003F5A0739BB2184602B07047000042
:1064A0002DE9F04F87B001908DF803109DF803108F
:1064B0000591019900200E460746304639464FF0B7
:1064C000000A4FF0000B4FEA411B4BEAD06B4FEA3A
:1064D000401A50465946821B61EB07034FF00000FB
:1064E0004FF00001990041EA9271900002460B467C
:1064F00012EB060843EB07094FF000024FF00003D0
:106500004FEAC91343EA58634FEAC81290469946C6
:1065100042464B460599C1F12006A1F1200022FA1E
:1065200001F403FA06F6344323FA00F0044323FA95
:1065300001F5CDE90245DDE90223012B04D305492C
:106540004FF4317000F088FC029B184607B0BDE89C
:10655000F08F00BF0CE6030010B582B001900091EF
:10656000019B5B791A46009B934204D3094940F290
:10657000711000F071FC019B1C680098FFF785FF0B
:10658000034619462046FFF76BFF0346184602B044
:1065900010BD00BF3CE6030000B583B00190009140
:1065A000019B1B681846FFF767FF034619460098D2
:1065B000FFF776FF0346184603B05DF804FB0000C2
:1065C00000B583B00190019B1B68184600F0D2F81B
:1065D0000346002B04D105494FF4F67000F03CFC53
:1065E0004FF0A043184603B05DF804FB78E60300C3
:1065F00000B585B00190084611461A4603468DF84D
:1066000003300B468DF8023013468DF8013001AB94
:106610001846FFF7D5FF03909DF803209DF8023040
:106620005B001A439DF801309B001A439DF8183017
:106630001B0242EA03019DF81C301B04019A194316
:10664000039B02F5E07243F8221000BF05B05DF82D
:1066500004FB00B585B00390002301930023009351
:106660000023012201210398FFF7C2FF00BF05B0FC
:106670005DF804FB00B585B003900B468DF80B3038
:106680009DF80B300022019200220092002200218E
:106690000398FFF7ADFF00BF05B05DF804FB00B540
:1066A00085B0019001AB1846FFF78AFF0390019B6C
:1066B000012202FA03F31946039800F047F800BFDD
:1066C00005B05DF804FB00B585B0019001AB18463C
:1066D000FFF776FF0390019B012202FA03F31946AC
:1066E000039800F03DF800BF05B05DF804FB00B56D
:1066F00083B001900091009B002B03D10198FFF71C
:10670000E2FF02E00198FFF7CAFF00BF03B05DF8A7
:1067100004FB00B585B0019001AB1846FFF750FFB0
:106720000390039800F00AF80246019B22FA03F353
:1067300003F00103184605B05DF804FB82B0019038
:10674000019BD3F81035184602B0704782B0019013
:106750000091019B009AC3F8082500BF02B0704762
:1067600082B001900091019B009AC3F80C2500BFF4
:1067700002B0704784B00190019B5B090293002333
:106780000393029B002B03D14FF0FF33039300BF11
:10679000019B03F01F030193039A019B22FA03F369
:1067A00003F00103DBB2184604B0704700B583B0B4
:1067B0000190019B002B0AD04FF47A70FFF738FE4E
:1067C000019B013B0193019B002BF5D100E000BF31
:1067D00003B05DF804FB000000B583B001900091A8
:1067E000019B002B01D1054B01930099019808F002
:1067F00071F90346184603B05DF804FBF8EA03009C
:1068000000B5AFB001ABAC220021184617F098FDDF
:1068100002238DF8043000238DF8063005238DF80F
:1068200007300123ADF85030114B159301238DF83B
:1068300080304023239343F6982324930D4B2A93CF
:1068400001AB19460C4804F0C3F82D902D9B2C93F6
:106850002C9B002B04D0094ADB212C980AF0AEFDBA
:106860000121054804F0A7F800BF2FB05DF804FB34
:10687000282B002069740200042D0020C8E60300C4
:1068800000B583B00321094804F07AF90190019B17
:106890000093009B002B04D0054AE42100980AF0E5
:1068A0008DFD00BF03B05DF804FB00BF042D002088
:1068B000C8E6030000B587B001AB00221A605A6039
:1068C00001AB03AA4AF2010149F201000EF026F8D9
:1068D0000346002B05D103AB18460DF07BFF0DF0EE
:1068E000EBFF00BF07B05DF804FB00B587B001AB5C
:1068F00000221A605A6001AB03AA4AF2020149F26F
:1069000001000EF00BF80346002B05D103AB18462F
:106910000DF060FF0DF0D0FF00BF07B05DF804FB85
:1069200000B58BB0019049F20103ADF818304AF27E
:106930000103ADF81A30019B0793019817F0B8FCDA
:10694000034604339B080893FFF7B4FF06AA03AB82
:10695000114618460DF01AFF0990099B002B0BD128
:106960000D4A0E4BD31ADB081B0443F003030C49FA
:10697000184615F0F5FF0BE0074A084BD31ADB0861
:106980001B0443F00103099A0649184615F0F6FF67
:1069900000BF0BB05DF804FB48E5030008E5030009
:1069A00028E7030048E7030000B58BB003AB0022E3
:1069B0001A605A600123099303AB05AA4AF2010148
:1069C00049F201000DF0AAFF0346002B28D101AACD
:1069D00005AB114618460DF04FFE0990099B002BA0
:1069E0001CD1029B0893164A164BD31ADB081B04D2
:1069F00043F00303089A1449184615F0BFFF08989E
:106A000017F056FC03461A460899104817F066FC22
:106A100005AB18460DF06EFE099B0DE0099B0BE0DF
:106A2000074A084BD31ADB081B0443F00303084949
:106A3000184615F095FF099B18460BB05DF804FB4E
:106A400048E5030008E5030068E703007C2C00200C
:106A500084E7030000B58BB0019000238DF8273048
:106A6000FFF743FF019B1B78302B42D9019B1B781A
:106A70003F2B40D849F20103ADF814304AF202032B
:106A8000ADF81630019B0693019817F011FC0346F0
:106A900004339B08079305AA02AB114618460DF074
:106AA00075FE0890164A174BD31ADB081B0443F0F7
:106AB00003031549184615F053FF089B002B0BD113
:106AC0000F4A104BD31ADB081B0443F003030F4992
:106AD000184615F045FF0FE0094A0A4BD31ADB08A8
:106AE0001B0443F00103089A0949184615F046FFB4
:106AF00002E000BF00E000BF0BB05DF804FB00BF88
:106B000048E5030008E50300A4E7030028E70300C5
:106B100048E7030000B58BB002AB00221A605A6050
:106B200000238DF827300123089302AB04AA4AF210
:106B3000020149F201000DF0F1FE0346002B3FD1A6
:106B40006A4604AB114618460DF096FD0890089B66
:106B5000002B33D100238DF82730019B0793204A67
:106B6000204BD31ADB081B0443F00303079A1E498A
:106B7000184615F003FF079817F09AFB03461A46CC
:106B800007991A4817F0AAFB184B1B788DF8273085
:106B90009DF82730002B08D09DF82730092B04D80A
:106BA000134A9DF82730137002E0114B05221A702A
:106BB00004AB18460DF09EFD089B0DE0089B0BE012
:106BC000074A084BD31ADB081B0443F003030949A7
:106BD000184615F0C5FE089B18460BB05DF804FB7F
:106BE00048E5030008E5030068E70300C02C002027
:106BF000FC2A002084E7030010B5FFF7D5FE03460A
:106C0000002B04D01848FFF78BFEFFF7CDFEFFF7EF
:106C100081FF0346002B04D01448FFF71BFFFFF74A
:106C200079FF134A134BD31ADB081B0443F0030408
:106C3000114815F0FBFD03461A461049204615F091
:106C40009DFE0B4A0B4BD31ADB081B0443F00304D5
:106C50000B4815F0EBFD03461A460A49204615F08D
:106C60008DFE00BF10BD00BFD4E70300E4E70300C2
:106C700048E5030008E503007C2C0020E8E703005A
:106C8000C02C0020F8E7030010B586B00390039BEA
:106C90001B78042B2CD0042B5CDC002B02D0032BA4
:106CA0000CD057E02E4A2F4BD31ADB081B0443F0BD
:106CB00003032D49184615F053FE4EE0284A294B90
:106CC000D31ADB081B0443F00304039B5B881846BC
:106CD00004F058FD03461A46039B5B881946039B44
:106CE0001B7A00930B462149204615F06CFE34E0D8
:106CF0001B4A1C4BD31ADB081B0443F003031C493B
:106D0000184615F02DFE164A164BD31ADB081B0445
:106D100043F003031749184615F022FE039B9B8896
:106D2000184613F001FA039B5B880021184613F004
:106D3000D3F90590059B002B0ED0094A094BD31AB5
:106D4000DB081B0443F00203059A0B49184615F0B3
:106D500015FE01E000BF00E000BF00BF06B010BD9F
:106D600048E5030008E5030014E8030030E80300E9
:106D700070E803008CE80300C0E8030000B587B0AA
:106D800013F0A8F80590059B0493049B002B05D0F5
:106D90002F4A40F2DB1104980AF010FB6B460522E3
:106DA0000021184617F0CCFA9DF8003043F001039B
:106DB0008DF800309DF8003043F002038DF800306C
:106DC0009DF8003023F070038DF8003007238DF814
:106DD000013010238DF802309DF8033043F0010399
:106DE0008DF803309DF8033043F002038DF8033033
:106DF0009DF8043043F001038DF804309DF8043011
:106E000043F002038DF804306B46184613F04CF93A
:106E10000590059B0393039B002B05D00C4A4FF470
:106E2000F57103980AF0CAFA0A4813F015F90590AB
:106E3000059B0293029B002B05D0054A40F2ED1101
:106E400002980AF0BBFA00BF07B05DF804FB00BF70
:106E5000C8E60300896C020000B583B003460091C8
:106E6000ADF80630BDF80630009A194603480AF01E
:106E7000A5FA00BF03B05DF804FB00BFEFBEADDEB6
:106E800000B583B00AF00AFF0190019B0093009BBC
:106E9000002B05D0044A40F2062100980AF08EFA31
:106EA00000BF03B05DF804FBC8E6030000B58BB07B
:106EB0009DF80C30012262F303038DF80C309DF82D
:106EC0000C30012262F307138DF80C302C4817F0B8
:106ED000EFF903469AB203AB29491846FFF79CFA2B
:106EE0000990099B0893089B002B05D0254A40F286
:106EF0001A2108980AF062FA04AB08220021184609
:106F000017F01EFA1023ADF810302823ADF8123018
:106F10000023ADF814304FF4C873ADF8163004AB4D
:106F20001846FFF775FA0990099B0793079B002BFA
:106F300005D0144A4FF4097107980AF03FFA124A33
:106F400001AB92E8030018600433198002330A0C85
:106F50001A700E4A01AB13600C492220FFF760FA49
:106F60000990099B0693069B002B05D0054A40F229
:106F70002A2106980AF022FA00BF0BB05DF804FB44
:106F80007C2C0020C8E603000CE803003831002008
:106F900000B585B00190019B1B78002B25D1154BC6
:106FA00001221A70019B5B680521184607F0A6FEB6
:106FB0000390039B0293029B002B05D00E4A40F2E4
:106FC000372102980AF0FAF9142200210B4817F031
:106FD000B7F9019B5B6814221946084817F07EF93F
:106FE000074B1B680133064A136000BF05B05DF80C
:106FF00004FB00BF9C2C0020C8E60300C82C002026
:10700000602C002082B003460091ADF8063000BF2E
:1070100002B0704700B58DB005F0EEFF0B900B9BF2
:107020000A930A9B002B05D0334A40F24D210A985F
:107030000AF0C4F900238DF8083000238DF80930D8
:1070400000238DF80A3006238DF80B3000230393BC
:1070500003238DF80A3002AB284A1946284808F065
:107060004FF80B900B9B0993099B002B05D0224AEC
:1070700040F2522109980AF0A1F94FF4C871204852
:10708000FFF78AFA0890002300930123089A002151
:107090001B4808F09EF91A4808F034F900211848F6
:1070A000FFF75AFA079007F017FE0690154807F009
:1070B00031F90B900B9B0593059B002B05D00E4AD5
:1070C00040F25F2105980AF079F90E4B1B78069A79
:1070D0000799184607F078F90B900B9B0493049BD3
:1070E000002B05D0044A4FF4197104980AF066F990
:1070F00000BF0DB05DF804FBC8E603000570020098
:10710000E4EA0300782C002000B589B0244A6B46DD
:1071100007CA03C31A7023490020FFF75DFB0790DD
:10712000079B0693069B002B05D01F4A40F26F2158
:1071300006980AF043F96B461946002007F03AFD1D
:107140000790079B0593059B002B05D0164A40F23C
:10715000722105980AF032F90521144807F0CEFD96
:107160000790079B0493049B002B05D00E4A40F226
:10717000752104980AF022F905210D4807F0BEFD9B
:107180000790079B0393039B002B05D0064A4FF4FF
:107190001E7103980AF012F900BF09B05DF804FBF4
:1071A000DCE80300916F0200C8E60300642C0020B5
:1071B0006E2C002000B583B00190054A40F2852175
:1071C00001980AF0FBF800BF03B05DF804FB00BFB4
:1071D000C8E6030000B587B00190019B1B78002B27
:1071E00074D13C4A3C4BD31ADB081B0443F0040324
:1071F0003A49184615F0B4FB364A374BD31ADB0828
:107200001B0443F00400019B1969019B9B8A1A46E9
:1072100015F00AFC0023059342E02E4A2E4BD31AA8
:10722000DB081B0443F00300019B1A69059B134410
:107230001B781A462A4915F0A1FB2A4B01221A8015
:1072400001211420FFF753FA019B1A69059B13448F
:107250001B7818460BF03EF80490049B002B19D0C5
:10726000049B112B16D01B4A1B4BD31ADB081B04A3
:1072700043F00103049A1C49184615F07FFB049B58
:107280000393039B002B05D0184A4FF42D710398EC
:107290000AF094F8049B112BBFD0059B0133059392
:1072A000019B9B8A1A46059B9342B6D3019B1A69A0
:1072B000019B9B8A013B13441B780D2B06D100BF19
:1072C0000A200BF007F80346112BF9D000BF07B0D6
:1072D0005DF804FB48E5030008E50300E8E8030067
:1072E0001CE903004031002020E90300C8E6030048
:1072F00000B587B000230193174B019301AB1946EA
:10730000164805F0CDF90590059B0493049B002BCE
:1073100005D0134A40F2CE2104980AF04FF802AB90
:1073200004220021184617F00BF80E4B029302AB13
:1073300019460D4805F0F4FB0590059B0393039B4C
:10734000002B05D0064A40F2D62103980AF036F801
:1073500000BF07B05DF804FBB5710200F82C0020F7
:10736000C8E60300D5710200082B002000B585B0E7
:107370000190019B1B78002B11D10B4B1B883B21EB
:107380001846FFF741F80390039B0293029B002BE2
:1073900005D0064A4FF43B7102980AF00FF800BF7F
:1073A00005B05DF804FB00BF242B0020C8E60300F5
:1073B00000B583B00190054A40F2F721019809F029
:1073C000FDFF00BF03B05DF804FB00BFC8E603008B
:1073D00000B58BB001AB1C220021184616F0B0FF9F
:1073E000002301934FF4A03302934FF4F02303934F
:1073F00003238DF810300023ADF8123000238DF8F0
:1074000014300C4B06930C4B079301AB184603F05A
:1074100079FE0990099B0893089B002B05D0074A29
:1074200040F20E31089809F0C9FF00BF0BB05DF8BB
:1074300004FB00BF6D730200B1730200C8E60300D5
:1074400000B583B001F08BFD0190019B0093009B80
:10745000002B05D0034A40F21F31009809F0AEFF1F
:10746000FEF7BEFFC8E6030000B585B003468DF801
:1074700007309DF80730002B11D0032B26D10220B6
:1074800001F0E4FB0390039B0293029B002B1FD0AF
:10749000124A40F23531029809F090FF18E0104B83
:1074A0001B780133DAB20E4B1A700D4B1A780D4B64
:1074B0001B789A4205D3FFF7C3FF094B00221A70CD
:1074C00007E00321084803F05BFB02E000BF00E097
:1074D00000BF00BF05B05DF804FB00BFC8E60300B5
:1074E000DC2C0020FC2A0020042D002000B583B0F5
:1074F0000190019B1B78022B37D0022B47DC002B1D
:1075000002D0012B3AD042E001211320FFF7EFF81F
:10751000214B1B781A46214B134418460AF0A0FE53
:107520001D4B1B78F22B03D91B4B00221A7005E070
:10753000194B1B780133DAB2174B1A70184B012222
:107540001A70184A184BD31ADB081B0443F00300C7
:10755000114B1B781946104B1B78013B0F4AD35C2B
:107560000A46124915F01BFA12E0019B5B68104AAB
:107570004FF45F71184609F021FF09E0019B5B6839
:107580000B4A4FF46071184609F018FF00E000BF85
:1075900000BF03B05DF804FB3D32002048310020FD
:1075A0003C32002048E5030008E503004CE90300F5
:1075B000C8E6030000B585B001900091019B1B88CF
:1075C000103B0A2B00F2828001A252F823F000BF88
:1075D000FD7502006D760200CD7602008576020010
:1075E000CD760200CD760200CD760200CD76020087
:1075F000CD7602009D760200B57602003C4A3D4BF6
:10760000D31ADB081B0443F003033B49184615F06B
:10761000A7F9019B9A88394B1A80384B1B88194669
:10762000374805F05FF80390039B0293029B002B01
:1076300005D0344A40F2D931029809F0BFFE019BCF
:107640009B880021184612F047FD0390039B002BF6
:1076500049D0274A274BD31ADB081B0443F0020307
:10766000039A2949184615F089F93CE0204A214B34
:10767000D31ADB081B0443F003032449184615F012
:107680006FF931E01A4A1B4BD31ADB081B0443F095
:1076900003031F49184615F063F925E0144A154BFA
:1076A000D31ADB081B0443F003031A49184615F0EC
:1076B00057F919E00E4A0F4BD31ADB081B0443F0AD
:1076C00003031549184615F04BF90DE013490198CD
:1076D00004F018FF0A49019805F0A7F8104901982D
:1076E00003F06CFB00E000BF00BF05B05DF804FBD9
:1076F00048E5030008E5030058E90300242B0020B7
:10770000F82C0020C8E60300C0E8030064E9030089
:1077100074E903009CE90300BCE90300E42C0020A9
:10772000042D002000B587B016F0A4F90590059B44
:107730000493049B002B05D0164A40F2074104989D
:1077400009F03CFE0023019301AB1946012016F01D
:10775000BFFA0590059B0393039B002B05D00D4AB0
:1077600040F20D41039809F029FE01AB184616F0CE
:10777000CDFB0590059B0293029B002B05D0054A8B
:1077800040F21141029809F019FE00BF07B05DF800
:1077900004FB00BFC8E6030000B583B00190009170
:1077A000009B5A88184B1B889A421AD1009B1B8851
:1077B00040F67722934214D1009B9B88033B9AB2F8
:1077C000124B1A80124A134BD31ADB081B0443F0E6
:1077D00003000E4B1B881A460C4B1B880E4915F0F4
:1077E000DEF80B4A0B4BD31ADB081B0443F00400F2
:1077F000019B5B881A46019B1B88084915F0CFF84E
:1078000000BF03B05DF804FB242B0020262B0020D2
:1078100048E5030008E50300DCE90300F8E903009C
:1078200000B585B01149124804F024FE0390039B73
:107830000293029B002B05D00E4A40F22C41029885
:1078400009F0BCFDF7210A4804F03FFE0390039BBA
:107850000193019B002B05D0064A40F22F4101986D
:1078600009F0ACFD00BF05B05DF804FB997702009C
:10787000E42C0020C8E6030000B583B00A4B1B7857
:10788000184606F0DAFD0190019B0093009B002B47
:1078900005D0064A40F23641009809F08FFD00BF3E
:1078A00003B05DF804FB00BF782C0020C8E603009D
:1078B00000B587B003468DF807309DF807300A2BD6
:1078C00006D00A2B36DC042B05D0072B19D031E06B
:1078D000FFF7B6FD33E01C4B1B8813211846FEF75B
:1078E00093FD0590059B082B26D0059B0393039BD6
:1078F000002B21D0154A40F24941039809F05EFD62
:107900001AE0114B1B884FF6FF72934216D11048B4
:1079100003F079FA0590059B082B0FD0059B049383
:10792000049B002B0AD0094A40F25341049809F005
:1079300045FD03E000BF02E000BF00E000BF00BF64
:1079400007B05DF804FB00BF242B0020C8E603004D
:10795000042D002030B58DB0134B04AC1D460FCD67
:107960000FC495E8030084E80300104B00934FF424
:10797000006301930E4B02934FF400630393694637
:1079800004A807230B4A0AF0DBFB0B900B9B0A931E
:107990000A9B002B05D0084A40F2DD410A9809F005
:1079A0000DFD00BF0DB030BD64EA03004C32002075
:1079B0004C3A0020ED740200C8E6030000B587B021
:1079C00001901749032001F05BF90590059B049392
:1079D000049B002B05D0134A40F2F141049809F0B2
:1079E000EDFC0DF10B031946002001F01BFB059087
:1079F000059B0393039B002B05D00A4A40F2F441F8
:107A0000039809F0DBFC9DF80B30022B0CBF01231F
:107A10000023DAB2019B1A7000BF07B05DF804FBC7
:107A2000B1780200C8E6030000B583B04FF480418E
:107A3000002014F06FFC0190019B0093009B002B31
:107A400005D0064A40F2FF41009809F0B7FC14F057
:107A5000F7FB00BF03B05DF804FB00BFC8E60300FE
:107A600000B583B010F032FB0190019B0093009BA6
:107A7000002B05D0044A40F20B51009809F09EFCFF
:107A800000BF03B05DF804FBC8E6030008B514208E
:107A9000FEF7DFFD1220FEF7DCFD1320FEF7D9FD17
:107AA00000211420FEF723FE00211220FEF71FFE06
:107AB00000211320FEF71BFE00BF08BD08B5012101
:107AC0000B20FEF7D7FD0720FEF7C3FD00BF08BD62
:107AD00000B583B00B20FEF71CFE0190019B1846F9
:107AE00003B05DF804FB000000B583B00B4B00222F
:107AF0006FF07F4118460AF049F90190019B00930D
:107B0000009B002B05D0064A40F23B51009809F03B
:107B100055FC00BF03B05DF804FB00BF302B002014
:107B2000C8E6030000B583B0094B18460AF086F991
:107B30000190019B0093009B002B05D0054A40F269
:107B40004251009809F03AFC00BF03B05DF804FB15
:107B5000302B0020C8E6030000B583B00AF0C0F95E
:107B60000190019B184603B05DF804FB00B585B099
:107B700001900091009901980AF0A6F90390039BE7
:107B8000184605B05DF804FB00B583B0019001997B
:107B90000720FEF7ACFD00BF03B05DF804FB00005A
:107BA00082B0002301930CE0194A019B32F81320A4
:107BB000184B1B8813449AB2164B1A80019B013351
:107BC0000193019B012BEFDD124B1B885B089AB2DE
:107BD000104B1A800F4B1B88452B08D90D4B1B8867
:107BE000552B04D80B4B00221A8032230CE0094B92
:107BF0001B88552B04D9074B00221A80642303E00D
:107C0000044B00221A801923184602B0704700BFA7
:107C1000C82C00204032002000B587B00023059317
:107C20000023ADF812300023ADF81030FFF76CFAE6
:107C3000FFF7F0F9FFF720FEFFF78CFEFFF7F4FEE9
:107C4000FFF71EF90DF107031846FFF7B7FEFFF720
:107C50001DFFFFF733FFFFF703FFFFF78FF8FEF776
:107C6000CBFFFFF75FFDFFF721F9FFF7D9FDFFF726
:107C70003FFBFEF7C5FDFFF7ABFBAC4AAC4BD31A9D
:107C8000DB081B0443F00303AA49184614F068FEFE
:107C9000FEF7F6FD00BF14F079FF0346002BFAD182
:107CA000A54B1B78012B40F0848000230393A34B4A
:107CB0001B680133A14A1360A14B1A78A14B1B78B2
:107CC0009A4207D39E4B1B781A469E4B1B78D31AB9
:107CD0009BB204E09B4B1B78C3F1F4039BB2ADF85D
:107CE0000430964B1B68984A934250D9BDF8043033
:107CF000002B4CD08D4A8E4BD31ADB081B0443F06B
:107D00000300BDF804301A468E4B1B788F4914F0DF
:107D100046FE8C4B1B781A468D4BD1188D4B1B8819
:107D200001AA8D4804F0A2FF0390039B082B10D0FA
:107D3000039B132B0DD0039B052B0AD0039B0293AF
:107D4000029B002B05D0854A40F2BD51029809F0F4
:107D500035FB7C4B1B781A46BDF804301344F32BDB
:107D600007DCBDF80430DAB2764B1B781344DBB283
:107D700000E00023734A13700023ADF804306F4B0A
:107D800000221A6000211320FEF7B1FC11E0BDF8BB
:107D90000430002B0DD16B4B00221A70684B00226F
:107DA0001A70654B00221A70F4220021684816F000
:107DB000C7FA6B4B1B889BB2002B14D05F4B1B6820
:107DC00001335E4A13605D4B1B6842F20F729342AF
:107DD00009D900211420FEF78AFC614B00221A8089
:107DE000564B00221A605F4B1B78002B04D1FFF723
:107DF0006FFE0346002B4FD15A4B1B78002B07D147
:107E0000FFF772FEFFF7A8FE0590564B01221A708D
:107E1000FFF7A2FE034605991846FFF7A7FE0346A3
:107E2000B3F5804F14D9504B1B78002B10D1012093
:107E3000FFF7AAFEFFF776FE01211220FEF757FC9E
:107E400000230593484B01221A70464B00221A70FA
:107E5000FFF782FE034605991846FFF787FE0346A3
:107E6000B3F5404F18D9404B1B78012B14D1FFF7C5
:107E70002FFE0346002B07D10020FFF785FE0121CE
:107E80001420FEF734FC02E0364B00221A70FFF794
:107E900049FE354B00221A70344B1B78012B20D140
:107EA000224A234BD31ADB081B0443F00303304957
:107EB000184614F055FD2F48FEF732FD6420FEF7FA
:107EC00075FC2A4B00221A70184A194BD31ADB088A
:107ED0001B0443F003032849184614F041FDFEF744
:107EE000A3FA224B1B78022B0AD12448FEF7B2FDDD
:107EF0006420FEF75BFC1D4B00221A70FEF794FA1B
:107F00001F4B1B78012B7FF4C6AEFFF749FE0346DB
:107F1000ADF812301A4B00221A70BDF81230642BE3
:107F200030D101211220FEF7E2FBB4E648E5030060
:107F300008E503007CEA03003C32002044310020C5
:107F40003D3200203E320020EF490200A8EA030043
:107F500048310020242B0020082B0020C8E6030015
:107F6000403100204232002048320020DD2C002029
:107F7000B4EA0300A02C0020CCEA0300C02C0020AF
:107F80009C2C0020BDF81230322B15D10D4B1B68F4
:107F900001330C4A136001211220FEF7A8FB094BA4
:107FA0001B68012B7FF677AE00211220FEF79FFBA6
:107FB000044B00221A606EE600211220FEF797FBA8
:107FC00069E600BF4432002000B583B00190019BF8
:107FD0001B68184600F011F90346002B04D105492F
:107FE0004FF4F670FEF738FF4FF0A043184603B089
:107FF0005DF804FBFCEA030000B585B0019008467B
:1080000011461A4603468DF803300B468DF80230B0
:1080100013468DF8013001AB1846FFF7D5FF0390EA
:108020009DF803209DF802305B001A439DF8013053
:108030009B001A439DF818301B0242EA03019DF889
:108040001C301B04019A1943039B02F5E07243F8AC
:10805000221000BF05B05DF804FB00B585B00390A9
:1080600000230193002300930023012201210398A0
:10807000FFF7C2FF00BF05B05DF804FB00B585B097
:1080800003900B468DF80B309DF80B3000220192C7
:1080900000220092002200210398FFF7ADFF00BFED
:1080A00005B05DF804FB00B585B0019001AB184642
:1080B000FFF78AFF0390019B012202FA03F319469E
:1080C000039800F086F800BF05B05DF804FB00B52A
:1080D00085B0019001AB1846FFF776FF0390019B36
:1080E000012202FA03F31946039800F07CF800BF5E
:1080F00005B05DF804FB00B585B0019001AB1846F2
:10810000FFF762FF0390039BD3F804350293029BB1
:10811000DA43019B012101FA03F31A40039BC3F8E0
:108120000825019B01229A40029B1A40039BC3F839
:108130000C2500BF05B05DF804FB00B583B00190CD
:108140000091009B002B03D10198FFF7C0FF02E0D4
:108150000198FFF7A8FF00BF03B05DF804FB00B56E
:1081600085B0019001AB1846FFF72EFF03900398EE
:1081700000F01FF80246019B22FA03F303F001030B
:10818000184605B05DF804FB00B585B0019001AB61
:108190001846FFF719FF0390039800F012F8024603
:1081A000019B22FA03F303F00103184605B05DF8C2
:1081B00004FB82B00190019BD3F81035184602B041
:1081C000704782B00190019BD3F80435184602B085
:1081D000704782B001900091019B009AC3F8082576
:1081E00000BF02B0704782B001900091019B009ADD
:1081F000C3F80C2500BF02B0704784B00190019B0A
:108200005B09029300230393029B002B03D14FF0E1
:10821000FF33039300BF019B03F01F030193039AF5
:10822000019B22FA03F303F00103DBB2184604B00A
:108230007047000000B585B00190019B032B03D966
:1082400011493A20FEF708FE104A019B13441B789F
:108250001846FFF799FF0346002B14BF01230023A4
:108260008DF80F309DF80F30002B14BF0123002331
:10827000DBB283F00103DBB203F00103DBB218468B
:1082800005B05DF804FB00BF2CEB03007CEB0300A2
:1082900000B583B00190019B032B03D9074941200E
:1082A000FEF7DAFD064A019B13441B7800211846AD
:1082B000FFF743FF00BF03B05DF804FB2CEB0300A6
:1082C0007CEB030000B583B00190019B032B03D925
:1082D00007494720FEF7C0FD064A019B13441B785F
:1082E00001211846FFF729FF00BF03B05DF804FB2A
:1082F0002CEB03007CEB030000B583B0002301935B
:1083000005E00198FFF7DEFF019B01330193019B1C
:10831000032BF6D900BF00BF03B05DF804FB00B526
:1083200083B00023019305E00198FFF7B1FF019BA3
:1083300001330193019B032BF6D900BF00BF03B0AB
:108340005DF804FB00B583B00190019B032B03D9BA
:1083500007495F20FEF780FD064A019B13441B7806
:108360001846FFF7C8FE00BF03B05DF804FB00BF6E
:108370002CEB03007CEB030000B583B000230193DA
:1083800009E0094A019B13441B781846FFF765FE74
:10839000019B01330193019B032BF2D9FFF7ACFF43
:1083A00000BF03B05DF804FB7CEB030000B585B0B3
:1083B0000190019B032B03D91149AC20FEF74CFD22
:1083C000104A019B13441B781846FFF7C8FE03466A
:1083D000002B14BF012300238DF80F309DF80F30C0
:1083E000002B14BF01230023DBB283F00103DBB2B7
:1083F00003F00103DBB2184605B05DF804FB00BFD3
:108400002CEB030080EB030000B583B00023019345
:108410000AE0094A019B13441B7803211846FFF721
:108420002DFE019B01330193019B032BF1D900BF6A
:1084300000BF03B05DF804FB80EB030084B0019043
:108440004FF0FF330293002303930DE00A4A039B8E
:1084500013441B781A46019B934202D1039B02935B
:1084600005E0039B01330393039B032BEED9029B8F
:10847000184604B0704700BF80EB030000B583B01E
:108480000190019B032B03D90549CB20FEF7E4FCA7
:10849000044A019B13441B78184603B05DF804FBA3
:1084A0002CEB030080EB030000B583B00190019B2F
:1084B00003F00103002B01D0FFF75EFF019B03F0E7
:1084C0000203002B01D0FFF79FFF00BF03B05DF850
:1084D00004FB000000B583B00190019B1B681846A7
:1084E00000F03DF80346002B04D105494FF4F67027
:1084F000FEF7B2FC4FF0A043184603B05DF804FB52
:1085000084EB030000B585B001900B468DF8033075
:1085100001AB1846FFF7DEFF0390019A039B02F5BB
:10852000E07253F82230019A23F44031039B02F5A4
:10853000E07243F82210019A039B02F5E07253F8AF
:1085400022109DF803301B04019A1943039B02F586
:10855000E07243F8221000BF05B05DF804FB84B060
:108560000190019B5B09029300230393029B002B64
:1085700003D14FF0FF33039300BF019B03F01F03B0
:108580000193039A019B22FA03F303F00103DBB288
:10859000184604B0704700B583B00190019B032BCF
:1085A00004D80198FFF702FF034600E000231846B5
:1085B00003B05DF804FB000000B587B003460A462F
:1085C0008DF8073013468DF8063000238DF81730EC
:1085D000002304939DF807301846FFF72FFF0490FF
:1085E000049B032B62D89DF80630022B52D0022B3D
:1085F0005CDC002B31D0012B58D13549049A13464D
:108600005B0013440B441B788DF817303049049AF3
:1086100013465B0013440B4401331B78002B0ED030
:108620002C4B2D4A4FF48041184609F0AFFB0390C4
:10863000039B002B03D1284A9DF80730137024496F
:10864000049A13465B0013440B4402331978234AFF
:10865000049B13440A461A7028E01E4B184609F082
:10866000EDFB1E4A049B134419781948049A1346DB
:108670005B001344034402331B78994215D114491B
:10868000049A13465B0013440B4402331B788DF8A5
:1086900017300AE00E49049A13465B0013440B445A
:1086A00001331B788DF8173000E000BF9DF81730BC
:1086B000002B09D00A4B1B68002B05D0084B1B6808
:1086C0009DF817201046984700BF07B05DF804FBDF
:1086D0005C420020902B0020684200206C42002069
:1086E0005842002000B583B00190019B1B78022105
:1086F0001846FFF761FF00BF03B05DF804FB000000
:1087000000B583B00C4B1B78002B0FD000230193D6
:1087100008E0019B022B02D00198FFF7D3FD019BDB
:1087200001330193019B032BF3D901E0FFF7E4FD33
:1087300000BF03B05DF804FB544200202DE9D04F88
:1087400092B003468DF83F3000231193002310931D
:10875000CC4B1B78002B04D0CA4A00231370FFF7C0
:10876000CFFF9DF83F30172B00F23F8201A252F855
:1087700023F000BFD5870200ED870200ED870200DD
:108780008988020025890200A1890200358A020039
:10879000558A0200658A0200918A0200AF8A0200AF
:1087A000CD8A0200EB8A0200F98A0200F98A0200EF
:1087B000F98A0200F98A0200F98A02008D8B020010
:1087C0009B8B0200AF8B0200C38B0200DD8B02008B
:1087D000DD8B0200FFF794FFAB4B184609F02EFB30
:1087E0001190AA4A9DF83F301370FFE10020FFF777
:1087F00021FD0346002B0DD00020FFF763FD9DF8FF
:108800003F30022B02D14FF4E16301E04FF47A6371
:1088100010930BE00020FFF73BFD9DF83F30022B4B
:1088200001D1C82301E04FF4C8731093974A9DF813
:108830003F301370944C109B0022009301924FF034
:1088400000024FF00003DDE900673946CB033146F3
:1088500043EA51433146CA0312F57A71029143F15A
:10886000000303934FF4FA624FF00003DDE90201C5
:1088700015F056FC02460B461346002219462046C8
:1088800009F084FA1190B1E10020FFF7D3FC034610
:10889000002B0DD00020FFF715FD9DF83F30032B76
:1088A00002D14FF4487301E04FF47A6310930BE068
:1088B0000020FFF7EDFC9DF83F30032B01D1C823CA
:1088C00001E04FF4C8731093704A9DF83F30137065
:1088D0006D4C109B0022049305924FF000024FF064
:1088E0000003DDE904673946CB03314643EA5143CF
:1088F0003146CA0312F57A71069143F100030793DA
:108900004FF4FA624FF00003DDE9060115F008FCB0
:1089100002460B46134600221946204609F036FA55
:10892000119063E10020FFF785FC0346002B06D081
:108930000020FFF7C7FC4FF47A63109305E0002096
:10894000FFF7A6FC4FF4C8731093504A9DF83F30D0
:1089500013704D4C109B00229A4693464FF0000234
:108960004FF000034FEACB3343EA5A434FEACA328F
:1089700012F57A71089143F1000309934FF4FA62FA
:108980004FF00003DDE9080115F0CAFB02460B4673
:10899000134600221946204609F0F8F9119025E106
:1089A0000020FFF747FC0346002B0CD00020FFF708
:1089B00089FC9DF83F30052B01D1C82301E04FF41D
:1089C0007A6310930BE00020FFF762FC9DF83F30C4
:1089D000052B01D1C82301E04FF4C87310932B4A33
:1089E0009DF83F301370284C109B0022984691460A
:1089F0004FF000024FF000034FEAC93343EA5843F7
:108A00004FEAC83212F57A710A9143F100030B93D1
:108A10004FF4FA624FF00003DDE90A0115F080FB24
:108A200002460B46134600221946204609F0AEF9CD
:108A30001190DBE00020FFF785FC144A9DF83F30E1
:108A40001370114B002240F26661184609F09EF93E
:108A50001190CBE00020FFF71BFC0C4A9DF83F3043
:108A60001370C3E0074B01221A700120FFF76AFC64
:108A7000054B002240F26661184609F087F9119013
:108A8000B4E000BF4D420020502B00204C4200209B
:108A9000594B01221A700120FFF754FC574B00225A
:108AA0004FF40051184609F071F911909EE0524BB5
:108AB00001221A700120FFF745FC504B002240F2C2
:108AC0006661184609F062F911908FE04A4B012265
:108AD0001A700120FFF736FC484B00224FF400517A
:108AE000184609F053F9119080E0FFF718FC444A4A
:108AF0009DF83F30137079E0424B184609F09EF91B
:108B000011909DF83F30C3F111031093109B002B7F
:108B100035D0119B002B32D1109B012B28D9394C19
:108B2000109B9BB21A46C82302FB03F3DA171E46BA
:108B300017464FF000024FF00003FB0343EA564391
:108B4000F20312F57A710C9143F100030D934FF487
:108B5000FA624FF00003DDE90C0115F0E1FA02467C
:108B60000B46134600221946204609F00FF91190D2
:108B70000220FFF78DFB244B01221A7036E0022001
:108B8000FFF7A0FB204B00221A702FE0FFF7B8FD83
:108B90001B4A9DF83F30137028E0FFF7B1FD00201D
:108BA000FFF776FB164A9DF83F3013701EE0FFF783
:108BB000A7FD0120FFF76CFB114A9DF83F301370B1
:108BC00014E0FFF79DFD0020FFF762FB0120FFF797
:108BD0005FFB0B4A9DF83F30137007E0FFF79FFBE8
:108BE000074A9DF83F30137000E000BF119B184604
:108BF00012B0BDE8D08F00BF4D420020502B0020A6
:108C00004C420020702B00205442002000B583B05D
:108C10000190074B1B6803F00103002B04D0054BA8
:108C20001B781846FFF78AFD00BF03B05DF804FB10
:108C3000504200204C42002000B583B00190022039
:108C4000FFF780FB00BF03B05DF804FB00B585B003
:108C500003468DF8073000230393084B1B6803F08D
:108C60000103002B05D09DF807301846FFF766FD7D
:108C70000390039B184605B05DF804FB50420020AA
:108C800000B585B001900091002303932A4A019B0F
:108C900013602A4A009B1360019B03F00203002B20
:108CA0002AD00023029308E001220121029800F05B
:108CB00055F80390029B01330293029B032B02D8C9
:108CC000039B002BF0D0039B002B06D140F23332E4
:108CD00004211B4808F0BEFA0390039B002B02D12D
:108CE00008F040FB0390039B002B05D1154A00219F
:108CF000154809F011F80390019B03F00103002BC4
:108D000014D00120FFF7D0FB039B002B05D10F4AA5
:108D100000210F4809F000F80390039B002B05D1B8
:108D20000C4A01210C4808F0F7FF0390039B1846FA
:108D300005B05DF804FB00BF5042002058420020FF
:108D4000C0EB0300E5860200BCEB03000D8C0200C3
:108D5000B4EB0300398C0200B8EB030084B001903F
:108D60000B468DF8033013468DF802300023039331
:108D7000019B032B3CD89DF80230012B0BD19DF8B1
:108D80000330012B04D1019BDBB20E33DBB200E0D8
:108D900000238DF802309DF80330022B0FD0022BF8
:108DA00023DC002B16D0012B1FD11449019A134646
:108DB0005B0013440B449DF802201A701AE00F491F
:108DC000019A13465B0013440B4401339DF80220C3
:108DD0001A700FE00949019A13465B0013440B44D3
:108DE00002339DF802201A7004E00723039301E088
:108DF00007230393039B184604B070475C4200208E
:108E000000B585B001900B468DF80330019B032B14
:108E100014D89DF80330002B01D0032300E0002379
:108E20008DF80F300198FFF729FB02469DF80F30AF
:108E300019461046FFF766FB002300E0062318469C
:108E400005B05DF804FB00B583B0019001210198E5
:108E5000FFF7D6FF0346184603B05DF804FB00B5E4
:108E600083B0012200210020FFF778FF0190019BD1
:108E7000002B04D0019B072B01D0019B1CE0072293
:108E800002210120FFF76AFF0190019B002B04D013
:108E9000019B072B01D0019B0EE004220221002040
:108EA000FFF75CFF0190019B002B04D0019B072B77
:108EB00001D0019B00E00023184603B05DF804FBDD
:108EC00000B583B0012202210020FFF747FF019087
:108ED000019B002B04D0019B072B01D0019B1CE0C0
:108EE000072202210120FFF739FF0190019B002B8F
:108EF00004D0019B072B01D0019B0EE00A22002128
:108F00000020FFF72BFF0190019B002B04D0019B59
:108F1000072B01D0019B00E00023184603B05DF849
:108F200004FB00B583B001900120FFF734FB03463A
:108F3000002B03D0019B02221A700CE00020FFF7E7
:108F40002AFB0346002B03D0019B0B221A7002E080
:108F5000019B00221A7000BF03B05DF804FB00B54E
:108F600083B00020FFF76FFF0190019B002B04D01E
:108F7000019B062B01D0019B0CE00120FFF763FF52
:108F80000190019B002B04D0019B062B01D0019B7B
:108F900000E00023184603B05DF804FB00B585B07F
:108FA00001900091019B1B88102B02D0112B18D02F
:108FB0002FE01A4B1B68002B0DD1FFF750FF0390D9
:108FC000039B002B07D0164B1B68002B03D0144BC0
:108FD0001B6803989847114B1B6801330F4A1360B5
:108FE00017E00E4B1B68013B0C4A13600B4B1B68D0
:108FF000002B0DD1FFF764FF0390039B002B07D0DC
:10900000074B1B68002B03D0054B1B680398984740
:1090100000BF00BF05B05DF804FB00BF7442002034
:109020007042002000B585B00190009100230393A9
:109030000A4A019B1360009B002B02D00098FFF7A7
:1090400070FF074B1B68002B02D1FFF739FF03901D
:10905000039B184605B05DF804FB00BF704200207A
:1090600074420020BFF34F8F00BF064BDB6803F450
:10907000E0620449044B1343CB60BFF34F8F00BF42
:1090800000BFFDE700ED00E00400FA0582B01D4BD3
:109090001B68B3F1FF3F0AD11B4B1B68DBB2019386
:1090A0001A4B1B681B0903F00F03009305E0154BD7
:1090B0001B680193164B1B680093019B062B1DD167
:1090C000009B033B042B17D801A252F823F000BFEA
:1090D000E5900200E9900200ED900200F19002009C
:1090E000F590020001230AE0012308E0012306E0D5
:1090F000012304E0012302E0012300E000231846DD
:1091000002B0704730010010E00F00F0E80F00F0EF
:109110003401001082B0174B1B68DBB20193164B71
:109120001B681B0903F00F030093019B062B1DD145
:10913000009B033B042B17D801A252F823F000BF79
:1091400055910200599102005D9102006191020067
:109150006591020001230AE0002308E0002306E0F5
:10916000002304E0002302E0002300E0002318466F
:1091700002B07047E00F00F0E80F00F082B01D4B26
:109180001B68B3F1FF3F0AD11B4B1B68DBB2019395
:109190001A4B1B681B0903F00F03009305E0154BE6
:1091A0001B680193164B1B680093019B062B1DD176
:1091B000009B033B042B17D801A252F823F000BFF9
:1091C000D5910200D9910200DD910200E1910200E7
:1091D000E591020001230AE0012308E0012306E0F3
:1091E000012304E0012302E0012300E000231846EC
:1091F00002B0704730010010E00F00F0E80F00F0FF
:109200003401001082B0174B1B68DBB20193164B80
:109210001B681B0903F00F030093019B062B1DD154
:10922000009B033B042B17D801A252F823F000BF88
:1092300045920200499202004D92020051920200B2
:109240005592020001230AE0002308E0002306E013
:10925000002304E0002302E0002300E0002318467E
:1092600002B07047E00F00F0E80F00F082B01D4B35
:109270001B68B3F1FF3F0AD11B4B1B68DBB20193A4
:109280001A4B1B681B0903F00F03009305E0154BF5
:109290001B680193164B1B680093019B062B1DD185
:1092A000009B033B042B17D801A252F823F000BF08
:1092B000C5920200C9920200CD920200D192020032
:1092C000D592020001230AE0012308E0012306E011
:1092D000012304E0012302E0012300E000231846FB
:1092E00002B0704730010010E00F00F0E80F00F00E
:1092F0003401001082B0174B1B68DBB20193164B90
:109300001B681B0903F00F030093019B062B1DD163
:10931000009B033B042B17D801A252F823F000BF97
:1093200035930200399302003D93020041930200FD
:109330004593020001230AE0002308E0002306E031
:10934000002304E0002302E0002300E0002318468D
:1093500002B07047E00F00F0E80F00F082B0174B4A
:109360001B68DBB20193164B1B681B0903F00F034C
:109370000093019B062B1DD1009B033B042B17D8A8
:1093800001A252F823F000BF9D930200A1930200B6
:10939000A5930200A9930200AD93020001230AE005
:1093A000002308E0002306E0002304E0002302E09D
:1093B000002300E00023184602B07047E00F00F0E1
:1093C000E80F00F082B01D4B1B68B3F1FF3F0AD1DC
:1093D0001B4B1B68DBB201931A4B1B681B0903F084
:1093E0000F03009305E0154B1B680193164B1B6898
:1093F0000093019B062B1DD1009B033B042B17D828
:1094000001A252F823F000BF1D9402002194020033
:1094100025940200299402002D94020000230AE002
:10942000002308E0012306E0012304E0012302E019
:10943000012300E00023184602B0704730010010FD
:10944000E00F00F0E80F00F03401001082B01D4B77
:109450001B68B3F1FF3F0AD11B4B1B68DBB20193C2
:109460001A4B1B681B0903F00F03009305E0154B13
:109470001B680193164B1B680093019B062B1DD1A3
:10948000009B033B042B17D801A252F823F000BF26
:10949000A5940200A9940200AD940200B1940200C8
:1094A000B594020001230AE0012308E0012306E04D
:1094B000012304E0012302E0012300E00023184619
:1094C00002B0704730010010E00F00F0E80F00F02C
:1094D0003401001082B01D4B1B68B3F1FF3F0AD16D
:1094E0001B4B1B68DBB201931A4B1B681B0903F073
:1094F0000F03009305E0154B1B680193164B1B6887
:109500000093019B062B1DD1009B033B042B17D816
:1095100001A252F823F000BF2D9502003195020000
:1095200035950200399502003D95020001230AE0BD
:10953000012308E0012306E0012304E0012302E007
:10954000012300E00023184602B0704730010010EC
:10955000E00F00F0E80F00F03401001082B0154B6E
:109560001B680193144B1B680093019B062B1DD1B4
:10957000009B033B042B17D801A252F823F000BF35
:1095800095950200999502009D950200A195020013
:10959000A595020000230AE0002308E0002306E06E
:1095A000012304E0012302E0012300E00023184628
:1095B00002B07047300100103401001082B0154B2A
:1095C0001B680193144B1B680093019B062B1DD154
:1095D000009B033B042B17D801A252F823F000BFD5
:1095E000F5950200F9950200FD9502000196020032
:1095F0000596020000230AE0002308E0002306E0AD
:10960000002304E0012302E0012300E000231846C8
:1096100002B07047300100103401001008B5FFF7A8
:10962000CDFF0346002B07D04FF010234FF08042B0
:10963000D3F80832C2F8583500BF08BD00BF044B4C
:10964000D3F80034002BFAD000BF00BF704700BF32
:1096500000E0014000B583B00190054A019BC2F8CB
:109660000435FFF7EBFF00BF03B05DF804FB00BF5C
:1096700000E00140024B034A1A6000BF704700BF80
:10968000B02B00200090D00308B5FFF7FFFC034685
:10969000002B06D0964B1B681B0A964A03F01F034B
:1096A0001360FFF737FD0346002B02D0924B934A1D
:1096B0001A60FFF763FD0346002B06D0904B1B6832
:1096C0005B0B904A03F007031360FFF79BFD034613
:1096D000002B05D08C4BDB688B4A23F08073D36062
:1096E000FFF7C4FD0346002B0ED04FF0804300224D
:1096F000C3F80C214FF080430022C3F810214FF033
:1097000080430022C3F83825FFF7F4FD0346002B01
:1097100002D07E4B03221A60FFF720FE0346002B87
:109720000BD07B4B05221A607A4B01221A607A4BD0
:1097300000221A60794B3F221A60FFF743FE03466E
:10974000002B76D04FF08053754AD3F80434C2F81A
:1097500020354FF08053724AD3F80834C2F82435CC
:109760004FF080536E4AD3F80C34C2F828354FF0CE
:1097700080536B4AD3F81034C2F82C354FF0805325
:10978000674AD3F81434C2F830354FF08053644A36
:10979000D3F81834C2F834354FF08053604AD3F808
:1097A0001C34C2F840354FF080535D4AD3F8203462
:1097B000C2F844354FF08053594AD3F82434C2F8E4
:1097C00048354FF08053564AD3F82834C2F84C3508
:1097D0004FF08053524AD3F82C34C2F850354FF032
:1097E00080534F4AD3F83034C2F854354FF0805389
:1097F0004B4AD3F83434C2F860354FF08053484AAE
:10980000D3F83834C2F864354FF08053444AD3F863
:109810003C34C2F868354FF08053414AD3F84034A5
:10982000C2F86C354FF080533D4AD3F84434C2F847
:109830007035FFF70BFE0346002B05D0394B1B6834
:10984000394A03F04F031360FFF744FE0346002B31
:109850000DD04FF08043D3F8003403F00103002B08
:1098600005D04FF080436FF00102C3F80024FFF7EA
:1098700075FE0346002B05D02C4B1B682B4A43F486
:10988000806313602A4BD3F88830294A43F470036D
:10989000C2F88830BFF34F8F00BFBFF36F8F00BF98
:1098A000FFF7BCFE4FF01023D3F80032002B05DB8E
:1098B0004FF01023D3F80432002B15DA0120FFF704
:1098C000C9FE4FF010231522C3F80022FFF7B6FEA1
:1098D0004FF010231522C3F80422FFF7AFFE00203B
:1098E000FFF7B8FEFFF7BEFBFFF7C4FE00BF08BDE1
:1098F000240300104035014074C007400DF0ADBA9C
:10990000440200103C050040F0ED00E0A0050040DE
:10991000105600408856004018560040145600402B
:1099200000C0004058020010E40E00403C17004008
:1099300000ED00E06DDF704700BF184679DF70472B
:1099400000BF18467DDF704700BF184664DF7047D0
:1099500000BF184682B003460091ADF80630BDF84E
:109960000630DAB2009B1A70BDF806301B0A9AB2B4
:10997000009B0133D2B21A700223184602B070471E
:1099800000B589B0039002911346ADF80630029BF2
:109990001B8803F10902BDF806309A4201D90C2355
:1099A00053E004AB1846FFF7C5FF0790079B0693EB
:1099B000069B002B01D0069B47E0029B1B881A46A2
:1099C000039B134408221A70029B1B8801339AB22E
:1099D000029B1A80029B1B881A46039B13441B227E
:1099E0001A70029B1B8801339AB2029B1A80029B59
:1099F0001B881A46039B981804AB013306221946AC
:109A000014F06CFC029B1B8806339AB2029B1A80EE
:109A10009DF8103023F00103DBB2002B07D1029B2D
:109A20001B881A46039B134400221A7006E0029B0F
:109A30001B881A46039B134401221A70029B1B8841
:109A400001339AB2029B1A800023184609B05DF8D0
:109A500004FB00B589B0039002910192ADF8023089
:109A6000039B1B78012B05D1039B5B78002B01D155
:109A7000072391E0019B1B889A1CBDF802309A4293
:109A80000ED8039B1B78012B0CD1019B1B881A4617
:109A9000039B5B7813449A1CBDF802309A4201D9AB
:109AA0000C2379E0019B1B88BDF80220D31A9BB2DE
:109AB000023BADF81C30BDF81C30ADF81230019BF4
:109AC0001B880233029A13440DF112021146184604
:109AD000FFF738FF0690069B0593059B002B01D0EE
:109AE000059B59E0039B1B78022B06D0039B5B78F8
:109AF0001A46BDF812309A4209D3BDF81230BDF8AB
:109B00001C209A4203D309238DF81F3016E0082346
:109B10008DF81F30039B1B78012B0BD1039B5B78C7
:109B20001A46BDF81C30934204D3039B5B78ADF812
:109B3000123003E0BDF81C30ADF81230BDF8123021
:109B4000FE2B01D90C2327E0BDF81230DAB2019BBD
:109B50001B881946029B0B440132D2B21A70019B3A
:109B60001B8801339AB2019B1A80019B1B881A46FD
:109B7000029B13449DF81F201A70019B1B88013320
:109B80009AB2019B1A80019B1A88BDF812301344C7
:109B90009AB2019B1A800023184609B05DF804FBB5
:109BA00000B589B0039002911346ADF80630029BD0
:109BB0001B881A1DBDF806309A4201D90C233AE0E1
:109BC0000DF116031846FFF7B9FE0790079B0693A1
:109BD000069B002B01D0069B2DE0029B1B881A469A
:109BE000039B134403221A70029B1B8801339AB211
:109BF000029B1A80029B1B881A46039B134419225E
:109C00001A70029B1B8801339AB2029B1A80BDF81E
:109C10001620029B1B881946039B0B4419461046CD
:109C2000FFF798FE03461A46029B1B8813449AB21C
:109C3000029B1A800023184609B05DF804FB84B02B
:109C4000029101921A4603468DF80F301346ADF883
:109C50000C30019B1B88DA1CBDF80C309A4201D9EC
:109C60000C2328E0019B1B881A46029B1344022206
:109C70001A70019B1B8801339AB2019B1A80019BC9
:109C80001B881A46029B134401221A70019B1B88F1
:109C900001339AB2019B1A80019B1B881A46029BD2
:109CA00013449DF80F201A70019B1B8801339AB250
:109CB000019B1A800023184604B0704784B00291BB
:109CC00001921A4603468DF80F301346ADF80C305A
:109CD000019B1B88DA1CBDF80C309A4201D90C2379
:109CE00028E0019B1B881A46029B134402221A702B
:109CF000019B1B8801339AB2019B1A80019B1B8830
:109D00001A46029B13440A221A70019B1B880133D6
:109D10009AB2019B1A80019B1B881A46029B13442E
:109D20009DF80F201A70019B1B8801339AB2019B8A
:109D30001A800023184604B0704700B58FB0039016
:109D400001930B468DF80B3013468DF80A30002333
:109D50008DF83330109B1B88ADF8303000230D9305
:109D600070E0039B5A680D9B9B001A4405AB10687A
:109D700018600DF11B0105AB00221846FFF7E6FD48
:109D80000A900A9B0993099B002B01D0099B7BE059
:109D90009DF81B309DF80A209A4250D19DF833302F
:109DA000002B01D0002300E002238DF82330109B0C
:109DB0001B881A469DF81B301A449DF823301A441C
:109DC000BDF844309A4201DD0C235DE09DF833304C
:109DD00083F00103DBB2002B16D0109B1B880133EC
:109DE0009AB2109B1A80109B1B881A46019B134441
:109DF0009DF80B201A70109B1B8801339AB2109BA0
:109E00001A8001238DF83330109B1B881A46019B62
:109E10001A440DF11B0105AB1846FFF797FD0A9098
:109E20000A9B0793079B002B01D0079B2CE0109BFC
:109E30001B889DF81B2013449AB2109B1A800D9B1F
:109E400001330D93039B1B881A460D9B934288DBBD
:109E50009DF83330002B16D0109B1A88BDF8303097
:109E6000D31A9BB2013BADF82E30BDF82E30FF2B3C
:109E700001D90C2308E0BDF83030019A1344BDF835
:109E80002E20D2B21A70002318460FB05DF804FBE2
:109E900000B58BB0059003930B468DF81330134635
:109EA0008DF812309DF81310BDF8343001930C9BDF
:109EB0000093039B02220598FFF73FFF0990099B3F
:109EC0000893089B002B01D0089B14E09DF812100A
:109ED000BDF8343001930C9B0093039B102205982E
:109EE000FFF72BFF0990099B0793079B002B01D0DD
:109EF000079B00E0002318460BB05DF804FB82B01E
:109F00000190019B1B88052B0AD9019B1B88B3F587
:109F1000486F07D9019B1B884FF6FF72934201D00F
:109F2000072325E0019B5B88052B0AD9019B5B88F1
:109F3000B3F5486F07D9019B5B884FF6FF729342D8
:109F400001D0072314E0019B1B884FF6FF72934258
:109F50000DD0019B5B884FF6FF72934207D0019BA7
:109F60001A88019B5B889A4201D9072300E00023ED
:109F7000184602B0704700B587B003900291019275
:109F8000ADF80230019B1B889A1DBDF802309A4241
:109F900001D90C234BE00398FFF7B1FF0590059B17
:109FA0000493049B002B01D0049B40E0019B1B8881
:109FB0001A46029B134405221A70019B1B88013329
:109FC0009AB2019B1A80019B1B881A46029B13447C
:109FD00012221A70019B1B8801339AB2019B1A80CE
:109FE000039B1A88019B1B881946029B0B44194648
:109FF0001046FFF7AFFC03461A46019B1B8813442B
:10A000009AB2019B1A80039B5A88019B1B881946B0
:10A01000029B0B4419461046FFF79CFC03461A4668
:10A02000019B1B8813449AB2019B1A800023184697
:10A0300007B05DF804FB00B587B003900291019270
:10A04000ADF80230039B9B8802330593019B1B886C
:10A050001A46059B13449A1CBDF802309A4201D956
:10A060000C2353E0059BFE2B01D90C234EE0059BEE
:10A07000DAB2019B1B881946029B0B440132D2B213
:10A080001A70019B1B8801339AB2019B1A80019BB5
:10A090001B881A46029B1344FF221A70019B1B88DF
:10A0A00001339AB2019B1A80039B1A88019B1B887B
:10A0B0001946029B0B4419461046FFF74BFC03461A
:10A0C0001A46019B1B8813449AB2019B1A80039B7A
:10A0D0009B88002B19D0039B9B68002B01D1072381
:10A0E00014E0019B1B881A46029B9818039B9968F1
:10A0F000039B9B881A4614F0F1F8019B1A88039B76
:10A100009B8813449AB2019B1A800023184607B01B
:10A110005DF804FB00B589B0039002910192ADF89F
:10A120000230039B9B6A002B01D1072371E00023BF
:10A130008DF81F3065E0039B996A9DF81F20134638
:10A140005B0013449B000B440693069B9B880233E1
:10A150000593059BFE2B01D90C235AE0059BDAB22F
:10A16000019B1B881946029B0B440132D2B21A7024
:10A17000019B1B8801339AB2019B1A80019B1B88AB
:10A180001A46029B134416221A70019B1B88013346
:10A190009AB2019B1A80069B1A88019B1B8819465C
:10A1A000029B0B4419461046FFF7D4FB03461A46A0
:10A1B000019B1B8813449AB2019B1A80069B9B88C3
:10A1C000002B19D0069B9B68002B01D1072320E0B0
:10A1D000019B1B881A46029B9818069B9968069B50
:10A1E0009B881A4614F07AF8019B1A88069B9B8874
:10A1F00013449AB2019B1A809DF81F3001338DF8E9
:10A200001F30039B93F82C309DF81F209A4292D365
:10A210000023184609B05DF804FB00B595B0059021
:10A220000491039200231393039B1B88ADF84A30DB
:10A23000039B00221A80059B93F82D30002B0ED033
:10A24000BDF84A301A4603990498FFF799FB13901A
:10A25000139B1193119B002B01D0119BD8E0059B00
:10A260009B78002B0ED0BDF84A301A46039904980B
:10A27000FFF796FC1390139B1093109B002B01D0BB
:10A28000109BC5E0059BDB78002B10D0059BDB788D
:10A2900058B2BDF84A30039A0499FFF7D0FC1390E6
:10A2A000139B0F930F9B002B01D00F9BB0E0059BDE
:10A2B0005B68002B11D0059B5B6893F90000BDF82B
:10A2C0004A30039A0499FFF7F9FC1390139B0E93FD
:10A2D0000E9B002B01D00E9B9AE0059B1B89002B47
:10A2E00014D0059B03F10800BDF84A300193039B8D
:10A2F0000093049B06220221FFF7CAFD1390139BD3
:10A300000D930D9B002B01D00D9B81E0059B1B8ABB
:10A31000002B14D0059B03F11000BDF84A300193C7
:10A32000039B0093049B07220321FFF7B1FD1390C9
:10A33000139B0C930C9B002B01D00C9B68E0059B9E
:10A340001B8B002B14D0059B03F11800BDF84A307D
:10A350000193039B0093049B15221421FFF798FDA2
:10A360001390139B0B930B9B002B01D00B9B4FE087
:10A37000059B1B6A002B0FD0059B186ABDF84A305D
:10A38000039A0499FFF7F7FD1390139B0A930A9B16
:10A39000002B01D00A9B3BE0059B5B6A002B0FD092
:10A3A000059B586ABDF84A30039A0499FFF743FEAB
:10A3B0001390139B0993099B002B01D0099B27E065
:10A3C000059B93F82C30002B0ED0BDF84A30039A31
:10A3D00004990598FFF79EFE1390139B0893089B22
:10A3E000002B01D0089B13E0059B1B78002B0ED09F
:10A3F000BDF84A30039A04990598FFF72AFB139099
:10A40000139B0793079B002B01D0079B00E0139B36
:10A41000184615B05DF804FB86B0039001921A4609
:10A420000B46ADF80A3013468DF80930039B002B1C
:10A4300002D0019B002B01D100235BE00023ADF88B
:10A4400016300CE0BDF81630039A13441B781A46F8
:10A45000BDF8163013449BB20133ADF81630BDF889
:10A4600016305A1CBDF80A309A420FDA019B1B883D
:10A47000BDF816209A42E5D3BDF816300133039A91
:10A4800013441B789DF809209A42DBD1BDF81620B1
:10A49000BDF80A309A4201D300232BE0BDF81630F4
:10A4A0000233ADF81430BDF81630039A13441B780C
:10A4B000002B07D0BDF81630039A13441B78013BDC
:10A4C0009BB200E00023ADF81230BDF81230002B33
:10A4D00008D0BDF81420BDF812301A44BDF80A3077
:10A4E0009A4201DD002305E0019BBDF814201A808B
:10A4F000BDF81230184606B0704700B585B001901F
:10A500000B46ADF8023013468DF801300023ADF84C
:10A510000C309DF8013003AABDF802100198FFF736
:10A520007BFF0346ADF80E30BDF80E30002B01D195
:10A53000002304E0BDF80C301A46019B1344184672
:10A5400005B05DF804FB72DF704700BF184673DF8B
:10A55000704700BF184674DF704700BF184682B0CE
:10A560000190019B93F83034184602B0704784B0D4
:10A570000190002303930AE0019A039B13441B7884
:10A58000002B01D0012306E0039B01330393039BBF
:10A59000052BF1D90023184604B0704782B003465A
:10A5A0008DF807309DF807305A1C074B83FB0213C8
:10A5B0005910D317C91A0B469B000B44D11ACBB2C2
:10A5C000184602B0704700BF6766666682B00190A9
:10A5D0000091009BDB7B012B04D1009B9A88019B9F
:10A5E000A3F8242400BF02B0704700B585B00190E5
:10A5F0000091019B002283F82E24009B9A88019BE6
:10A60000B3F824349A4216D1019B1B7983F00103DD
:10A61000DBB2002B0FD00121019800F0B1FA0390BA
:10A62000039B002B07D0019B9B6B002B03D0019B4E
:10A630009B6B0398984700BF05B05DF804FB00B51D
:10A6400085B001900091009B1B88262B1ED1009B9A
:10A650001B7A012B03D0009B1B7A022B17D1019B85
:10A660009B781846FFF79AFF03461946019800F0B9
:10A6700087FA0390039B002B09D0019B9B6B002B57
:10A6800005D0019B9B6B0398984700E000BF05B085
:10A690005DF804FB00B585B001900B468DF80330E2
:10A6A000019B03F227431846FFF761FF03468DF82D
:10A6B0000F309DF80330013B032B33D801A252F831
:10A6C00023F000BFD5A60200F9A602000DA70200E4
:10A6D00019A70200019B9B79002B0DD0019B93F8D9
:10A6E000243083F00103DBB2002B05D09DF80F303E
:10A6F000002B01D0012316E0019BDB79002B05D054
:10A700009DF80F30002B01D002230CE0019B1B7A37
:10A71000002B01D0032306E0019B5B7A002B01D0C4
:10A72000042300E00023184605B05DF804FB00BFD9
:10A7300082B001900091019B012283F83120019B9E
:10A740000022C3F82024019B03F22642009B5A609A
:10A75000009B00229A60009B02221A70009B8022BC
:10A760009A810023184602B0704782B00190009190
:10A77000019B022283F83120019B93F82430002BA7
:10A7800003D0009B07221A7002E0009B03221A707C
:10A79000019B1B699AB2009B9A81019B0022C3F81E
:10A7A0002024019B03F22642009B5A60019BDA6839
:10A7B000009B9A600023184602B0704700B583B032
:10A7C0000190019B5B79002B0FD0019B93F82E34F5
:10A7D00083F00103DBB2002B07D00198FFF7BFFE27
:10A7E0000346002B01D0012300E0002303F0010306
:10A7F000DBB2184603B05DF804FB00B585B00190EC
:10A800000B468DF80330019BD3F81004019BB3F87D
:10A81000143401221946FFF770FE0390039B002BAE
:10A8200003D0039B9DF803201A70019B03F1540091
:10A83000019B03F58261019B3C331A46FFF783FEBF
:10A840000346184605B05DF804FB00B585B00190DD
:10A850000091019B5A69009B9A60019B9B699AB287
:10A86000009B9A81019B93F82430002B04D0019B1C
:10A87000062283F83C2003E0019B012283F83C2060
:10A880000198FFF79BFF0346002B13D0009B022289
:10A890001A7504210198FFF7B0FF0390039B029300
:10A8A000029B002B01D0029B0FE0019B052283F845
:10A8B000312003E0019B032283F83120019B03F543
:10A8C0008262019BC3F820240023184605B05DF87E
:10A8D00004FB00B585B001900091019BDA69009BF3
:10A8E0009A60019B1B6A9AB2009B9A81019B93F824
:10A8F0002430002B04D0019B062283F83C2003E087
:10A90000019B012283F83C200198FFF757FF034683
:10A91000002B13D0009B02221A7504210198FFF727
:10A920006CFF0390039B0293029B002B01D0029BC0
:10A930000FE0019B062283F8312003E0019B0422F3
:10A9400083F83120019B03F58262019BC3F8202428
:10A950000023184605B05DF804FB82B00190019B0E
:10A960009B78002B06D0019B93F82030002B01D060
:10A9700000230AE0019B9B6A042B03D0019B5B6AC6
:10A98000042B01D1002300E00123184602B07047D8
:10A9900084B00190019B93F82430002B03D0EE2368
:10A9A000ADF80E3002E01F23ADF80E30BDF80E30CA
:10A9B000184604B0704782B001900B468DF8033002
:10A9C000019B9DF8032083F8302000BF02B0704740
:10A9D00030B587B001900091009B002B02D0019B05
:10A9E000002B01D10E23B8E0009B78331846FFF707
:10A9F000B4FF034683F00103DBB2002B01D0072331
:10AA0000ABE0019B00229A70019A009B141D03F198
:10AA100078050FCD0FC40FCD0FC495E8070084E86B
:10AA20000700019B002283F83020009BD3F8A4206C
:10AA3000019B5A63009BD3F8A820019B9A63019B5A
:10AA40004FF6FF72A3F82424019B03F58262019B59
:10AA5000C3F82024019B03F2264307220021184655
:10AA600013F06EFC019B1B7883F00103DBB2002B1B
:10AA700003D0019BFF2283F85420019B03F1550270
:10AA8000019BC3F810240198FFF782FF03461A4682
:10AA9000019BA3F814240098019B03F15501019B2D
:10AAA00003F214431A46FFF7B8FB0590059B049385
:10AAB000049B002B01D0049B4FE0019B03F2312249
:10AAC000019BC3F818240198FFF762FF03461A465A
:10AAD000019BA3F81C24009B03F13C00019BD3F8CD
:10AAE0001814019B03F21C431A46FFF796FB0590CE
:10AAF000059B0393039B002B01D0039B2DE0019B3F
:10AB0000012283F85120019B9B699AB2019BA3F813
:10AB10004820019B012283F83C20019B00221A64FB
:10AB2000019B002283F85020019B5A69019B5A64C3
:10AB3000019B03F15400019B3C331A460021FFF7AF
:10AB400002FD0590059B0293029B002B01D0029B06
:10AB500003E0019B01221A70059B184607B030BD27
:10AB600082B00190019B1B68012B03D0019B1B68E5
:10AB7000022B01D1012300E00023184602B07047E8
:10AB800000B585B001900B468DF80330019B1B7812
:10AB900083F00103DBB2002B01D0082309E1019B04
:10ABA0009DF803209A70019B03F22643072200219F
:10ABB000184613F0C5FB019B9B79002B03D0019B2A
:10ABC0009B78012B0FD0019BDB79002B03D0019BDD
:10ABD0009B78012B07D0019BDB79002B14D0019BC4
:10ABE0009B78022B10D1019B5B6B002B08D0019B43
:10ABF000012283F82D24019B5B6B0820984703E01A
:10AC0000019B002283F82D249DF8033019460198FA
:10AC1000FFF740FD03461A46019B9A70019B5B6B50
:10AC2000002B20D0019B9B78032B03D0019B9B78AA
:10AC3000042B18D1019B5B79002B14D0019B93F856
:10AC40002E3483F00103DBB2002B0CD0019B0022D9
:10AC500083F83024019B012283F82F24019B5B6B36
:10AC60000720984703E0019B002283F82F24019BD3
:10AC70003C3318220021184613F062FB019B01228D
:10AC800083F83C20019B2C331846FFF769FF0346ED
:10AC9000002B06D0019BDB6ADAB2019B83F85120BE
:10ACA00003E0019B012283F85120019B93F824309B
:10ACB000002B12D0019B28331846FFF751FF0346A3
:10ACC000002B06D0019B9B6ADAB2019B83F85220CD
:10ACD00003E0019B012283F85220019B002283F8AC
:10ACE0005020019B9B78042B31D801A252F823F00D
:10ACF00045AD020005AD020015AD020025AD020014
:10AD000035AD0200019B3C3319460198FFF710FD59
:10AD100003901DE0019B3C3319460198FFF725FD88
:10AD2000039015E0019B3C3319460198FFF78DFD18
:10AD300003900DE0019B3C3319460198FFF7C9FDD4
:10AD4000039005E0019B002283F8312000E000BF62
:10AD5000019B9B78002B20D0019B03F15400019BA9
:10AD6000D3F82014019B3C331A46FFF7ECFB039009
:10AD7000039B002B01D0039B1BE0019B93F8542005
:10AD8000019B93F8303019461046FFF7E0FB039023
:10AD9000039B002B01D0039B0BE0019B5B6B002B03
:10ADA00006D0019B5B6B019A92F8312010469847C0
:10ADB0000023184605B05DF804FB00BF00B585B060
:10ADC00001900091009B0393019B1B88262B10D0C0
:10ADD000262B13DC102B02D0112B05D00EE001998D
:10ADE0000398FFF7F3FB0AE001990398FFF7FDFBD7
:10ADF00005E001990398FFF722FC00E000BF00BFC7
:10AE000005B05DF804FB00B585B00190019B93F897
:10AE100054301846FFF79FFB019B012283F82E2434
:10AE2000019B002283F83024019B002283F85020EC
:10AE300006210198FFF7E1FC0390039B0293029B1C
:10AE4000002B01D0029B12E0019B9B7819460198D0
:10AE5000FFF796FE0390039B002B07D0019B9B6B93
:10AE6000002B03D0019B9B6B039898470023184647
:10AE700005B05DF804FB75DF704700BF184676DF4C
:10AE8000704700BF18467ADF704700BF18467BDF67
:10AE9000704700BF1846000084B00346ADF8063086
:10AEA0000023039316E00F49039A13469B001344B3
:10AEB0009B000B441B88BDF806209A4207D1039AD9
:10AEC00013469B0013449B00064A134406E0039B71
:10AED00001330393039B002BE5D00023184604B0F5
:10AEE000704700BF9842002082B001900B46ADF839
:10AEF0000230019BBDF802201A80019B00221A72C9
:10AF0000019B054903F10A020B4603CB1060516017
:10AF100000BF02B0704700BFC842002082B001905D
:10AF2000019B4FF6FF721A8000BF02B0704788B0D5
:10AF30000390029111461A460B46ADF806301346AF
:10AF4000ADF80430039B9B881A46BDF806301344C5
:10AF50000793039B9B881946039B9B88BDF806209B
:10AF6000934228BF13469BB2CB1A0693039BDB8800
:10AF70001A46BDF8043013440593039BDB88194639
:10AF8000039BDB88BDF80420934228BF13469BB285
:10AF9000CB1A0493029B5A88039B1B889A4205D3C1
:10AFA000029B5A88039B5B889A4201D900231CE0CC
:10AFB000029B9B881A46069B934205D8029B9B885E
:10AFC0001A46079B934201D200230EE0029BDB88C6
:10AFD0001A46049B934205D8029BDB881A46059BC0
:10AFE000934201D2002300E00123184608B07047C5
:10AFF00000B583B00190064B9B69002B03D0044B36
:10B000009B690198984700BF03B05DF804FB00BF3F
:10B01000AC42002000B585B003460091ADF8063083
:10B02000BDF8063000991846FFF725FF0390039BF3
:10B03000002B05D0039B112B02D00398FFF7D8FFFC
:10B04000039B002B0CBF01230023DBB2184605B085
:10B050005DF804FB00B589B00190019B0793079B45
:10B060009BB21846FFF718FF0690069B002B42D0B4
:10B07000069B1A7A224B1B7B9A4215D2079B9AB2E7
:10B08000069B0A3319461046FFF7C4FF03468DF8A6
:10B0900013309DF81330002B2DD0069B1B7A013303
:10B0A000DAB2069B1A7226E0069B00221A72144B33
:10B0B0001B7C002B0FD0079B9BB23B211846FFF750
:10B0C000DEFE0590059B002B05D0059B082B02D0CA
:10B0D0000598FFF78DFF0A4B5B69002B0BD000230F
:10B0E0008DF80C30079B9BB2ADF80E30044B5B69BA
:10B0F00003AA1046984700BF09B05DF804FB00BFE3
:10B10000AC42002030B587B00190019B002B01D1EB
:10B110000E2353E02B4A019B14461D460FCD0FC44E
:10B1200095E8070084E80700264B274A1A60019B30
:10B130001B68002B11D0019B1B681846FFF7A3FE6C
:10B140000490049B002B01D0049B37E0019B1A68FC
:10B150001D4B1068516803C308E01B48FFF797FEBA
:10B160000490049B002B01D0049B27E0002305934F
:10B1700020E0059A13469B0013449B00134A134496
:10B1800003930398FFF7CAFE059B5B01104A1A441C
:10B19000039B5A60039B04330E4A0021184606F0B5
:10B1A000BBFD0490049B002B01D0032306E0059B0C
:10B1B00001330593059B002BDBD00023184607B015
:10B1C00030BD00BFAC420020C842002098420020A1
:10B1D0007842002055B0020000B587B003460091C8
:10B1E000ADF80630009B5B7A002B1AD1009B1B7ACE
:10B1F000002B03D1164B5B68059302E0144B9B6850
:10B200000593009B5B68BDF806200599184606F07B
:10B21000BDFD0490049B002B16D00498FFF7E8FEB8
:10B2200012E0009B00221A72094B5B69002B0BD0C5
:10B2300001238DF80C30BDF80630ADF80E30044B0C
:10B240005B6903AA1046984700BF07B05DF804FB8E
:10B25000AC42002000B585B00190019BDB7B8DF8EE
:10B260000F30019B9B88ADF80C309DF80F30012BFF
:10B270002CD14FF6FF70FFF70FFE0290029B002BC0
:10B2800003D10420FFF7B4FE21E0BDF80C301946CD
:10B290000298FFF729FE029B03F10A00019B03F1CC
:10B2A00010014FF6FF7340F2F312FFF740FE034622
:10B2B0001A46029B5A72074BDB89002B07D1BDF857
:10B2C0000C3002991846FFF787FF00E000BF05B079
:10B2D0005DF804FBAC42002000B587B00190019BF3
:10B2E0009B88ADF81630BDF816301846FFF7D4FD30
:10B2F0000490049B002B0ED0049B5B68184606F05C
:10B300009DFD0390039B002B02D00398FFF770FE76
:10B310000498FFF703FE00BF07B05DF804FB0000D0
:10B3200000B587B00190019B06330593059B1A88F1
:10B33000194BDB899A422BD1059B5B89022B27D1C4
:10B34000019B9B88ADF81230BDF812301846FFF70C
:10B35000A3FD0390039B002B1AD0059B0C331846CA
:10B3600000F0F6FB0346002B06D0BDF8123003991F
:10B370001846FFF731FF0BE0039B5B68184606F0A9
:10B380005DFD0290029B002B02D00298FFF730FE79
:10B3900000BF07B05DF804FBAC42002000B585B0EB
:10B3A0000190019B9B88ADF80E30BDF80E30184619
:10B3B000FFF772FD0290029B002B15D0029B03F158
:10B3C0000A00019B03F108014FF6FF7340F2F312EC
:10B3D000FFF7ADFD03461A46029B5A72BDF80E30C8
:10B3E00002991846FFF7F8FE00BF05B05DF804FBB0
:10B3F00000B583B001900091019B1B88502B12D0A7
:10B40000502B18DC122B12D0122B14DC102B02D074
:10B41000112B04D00FE00198FFF71CFF0CE00198FE
:10B42000FFF75AFF08E00198FFF77AFF04E0019860
:10B43000FFF7B4FF00E000BF00BF03B05DF804FBFE
:10B4400030B58FB00190009100230293009B002B38
:10B450001AD000230D9314E06B460D9918460BF09B
:10B460006CF90346002B09D0029B5A1C02920D9ADC
:10B4700092B25B0038336B4423F82C2C0D9B0133C4
:10B480000D930D9B132BE7D9019B1D4602AC0FCCEE
:10B490000FC50FCC0FC594E8070085E80700019899
:10B4A0000FB030BD00B583B00346ADF80630BDF82F
:10B4B0000630132B01D900230CE0BDF806301946E5
:10B4C00006480BF0E5F8BDF80630194604480BF0C5
:10B4D000DFF80123184603B05DF804FBD8420020D2
:10B4E000D442002000B585B00346ADF806300023F5
:10B4F00003930DE0039B9B00094A13440433BDF8FA
:10B500000620114618460BF0FFF8039B0133039306
:10B51000039B1D2BEED900BF00BF05B05DF804FBF7
:10B52000D042002000B583B00346ADF80630BDF828
:10B530000630194603480BF0E7F800BF03B05DF88A
:10B5400004FB00BFD842002030B59BB0184B9B686D
:10B55000DB431893164B5A6818AB114618460BF08C
:10B56000C2F9189A6B4611461846FFF769FF0DACF1
:10B570006D460FCD0FC40FCD0FC495E8070084E8CA
:10B580000700002319930BE0199B5B0068336B44A1
:10B5900033F8303C1846FFF7A5FF199B0133199388
:10B5A0000D9B199A9A42EFD300BF00BF1BB030BD6C
:10B5B000D042002000B583B003468DF807309DF8D7
:10B5C0000730194603480BF0B8F80346184603B095
:10B5D0005DF804FBD042002000B583B001900B461B
:10B5E000ADF8023013468DF801309DF80130002B84
:10B5F00006D0BDF80230194601980BF049F805E075
:10B60000BDF80230194601980BF07EF800BF03B078
:10B610005DF804FB00B585B001900091019B9B880B
:10B62000ADF80E30019B1B88103B0A2B00F2838083
:10B6300001A252F823F000BF65B60200A1B60200D5
:10B6400037B7020037B7020037B7020037B702003A
:10B6500037B7020037B7020037B702000BB7020056
:10B66000ADB60200FFF770FFBDF80E301846FFF7C9
:10B6700019FF034683F00103DBB2002B05D0304AEB
:10B68000F021042005F09AFE52E0019BDB7B022BA7
:10B690004ED1BDF80E3019462A480AF0F9FF47E0AE
:10B6A000BDF80E301846FFF73DFF44E0019B1B7AC2
:10B6B000C3F30313DBB28DF80D309DF80D30032B6F
:10B6C0008CBF01230023DAB2BDF80E3019461E48A4
:10B6D000FFF782FF9DF80D30022B8CBF0123002362
:10B6E000DAB2BDF80E3019461848FFF775FF9DF81D
:10B6F0000D30012B8CBF01230023DAB2BDF80E30D0
:10B7000019461348FFF768FF15E0019B1B7A002BD1
:10B7100010D1019B5B7AC3F3C0038DF80C309DF808
:10B720000C20BDF80E3019460748FFF755FF01E021
:10B7300000BF00E000BF00BF05B05DF804FB00BF24
:10B74000E0EB0300DC420020E8420020E44200205D
:10B75000E042002000B583B00346ADF80630BDF8E6
:10B760000630132B01D9002306E0BDF80630194638
:10B7700003480AF0E2FF0346184603B05DF804FBF5
:10B78000D442002000B585B00346ADF80630002352
:10B790008DF80F30BDF806301846FFF7DBFF034683
:10B7A000002B11D0BDF8063019460A480AF0C5FF33
:10B7B00003468DF80E309DF80E30002B01D0022389
:10B7C00000E001238DF80F309DF80F30184605B0CA
:10B7D0005DF804FBDC42002000B585B00346ADF8FF
:10B7E000063000238DF80F30BDF806301846FFF7FD
:10B7F000B1FF0346002B11D0BDF8063019460A48A8
:10B800000AF09BFF03468DF80E309DF80E30002B9A
:10B8100001D0022300E001238DF80F309DF80F3096
:10B82000184605B05DF804FBD842002000B583B08F
:10B830000346ADF80630BDF806301846FFF78AFF1C
:10B840000346002B07D0BDF80630194604480AF01D
:10B8500074FF034600E00023184603B05DF804FBC4
:10B86000E042002000B583B00346ADF80630BDF8D5
:10B8700006301846FFF76EFF0346002B07D0BDF8D1
:10B880000630194604480AF058FF034600E000233A
:10B89000184603B05DF804FBE442002000B583B015
:10B8A0000346ADF80630BDF806301846FFF752FFE4
:10B8B0000346002B07D0BDF80630194604480AF0AD
:10B8C0003CFF034600E00023184603B05DF804FB8C
:10B8D000E842002000B583B00346ADF80630BDF85D
:10B8E00006301846FFF736FF0346002B02D0BDF89E
:10B8F000063000E01423184603B05DF804FB000096
:10B9000000B583B0182107480AF02FFF0190019B72
:10B91000182B01D1182301E0019BDBB2184603B0BC
:10B920005DF804FBD042002000B583B003460A4610
:10B93000ADF8063013468DF805309DF805301846F1
:10B94000FFF738FE0346002B16D0BDF80630184628
:10B95000FFF700FF0346002B0ED09DF8053006339D
:10B960009B00084A13440433BDF8062011461846CC
:10B970000AF0E3FE034600E00023184603B05DF83A
:10B9800004FB00BFD042002000B583B00346ADF8F1
:10B9900006300B468DF8053013468DF804309DF8BF
:10B9A00005301846FFF706FE0346002B15D0BDF8FC
:10B9B00006301846FFF7CEFE0346002B0DD09DF84B
:10B9C000053006339B00074A134404339DF80420D6
:10B9D000BDF806101846FFF7FFFD00BF03B05DF885
:10B9E00004FB00BFD042002000B587B00390029155
:10B9F0000192029B002B01D100231FE0002305933D
:10BA0000039B002B19D00023049313E003AB04998C
:10BA100018460AF092FE0346002B08D0049B9AB207
:10BA2000029B019910469847059B01330593049B9F
:10BA300001330493049B132BE8D9059B184607B0E8
:10BA40005DF804FB00B585B00346029101928DF8C4
:10BA50000F309DF80F301846FFF7ACFD034683F01A
:10BA60000103DBB2002B01D000230CE09DF80F3066
:10BA7000074A06339B0013445B68019A02991846F3
:10BA8000FFF7B2FF0346184605B05DF804FB00BFA0
:10BA9000D042002000B587B003900B460192ADF86C
:10BAA0000A30019B002B01D10E2338E0019B0022BC
:10BAB0001A60039B002B01D10E2330E0039B1B680F
:10BAC000002B01D10E232AE0039BDB8803F0030344
:10BAD0009BB2002B01D0072321E0BDF80A301846A5
