:1000000000000120850300006D0300006F03000065
:10001000710300007303000075030000000000007E
:100020000000000000000000000000007703000056
:1000300079030000000000007B0300007D03000046
:100040007F0300007F030000A55400007F03000031
:100050007F0300007F030000A15300007F03000026
:100060007F0300007F0300007F0300007F03000088
:100070007F0300007F0300007F0300007F03000078
:100080007F0300001D3400007F0300007F03000099
:100090007F0300007F0300007F0300007F03000058
:1000A0007F0300007F0300007F0300007F03000048
:1000B0007F0300007F03000000000000000000003C
:1000C0007F0300007F0300007F0300007F03000028
:1000D0007F0300007F0300007F030000000000009A
:1000E0000000000000000000000000000000000010
:1000F0000000000000000000000000000000000000
:1001000000000000000000000000000000000000EF
:1001100000000000000000000000000000000000DF
:1001200000000000000000000000000000000000CF
:1001300000000000000000000000000000000000BF
:1001400000000000000000000000000000000000AF
:10015000000000000000000000000000000000009F
:10016000000000000000000000000000000000008F
:10017000000000000000000000000000000000007F
:10018000000000000000000000000000000000006F
:10019000000000000000000000000000000000005F
:1001A000000000000000000000000000000000004F
:1001B000000000000000000000000000000000003F
:1001C000000000000000000000000000000000002F
:1001D000000000000000000000000000000000001F
:1001E000000000000000000000000000000000000F
:1001F00000000000000000000000000000000000FF
:1002000039493A480A1A02D0072291438D463849A3
:1002100038480A1A06D00722914381F3098802223E
:1002200082F3148834483549354A00F03EF83548A1
:100230003549364A00F039F835483649364A00F033
:1002400034F836483649374A00F02FF836483749EF
:10025000374A00F02AF837483749384A00F025F87D
:1002600037483849384A00F020F8384838490022E1
:1002700000F033F837483849002200F02EF83748AC
:100280003749091A08F0D4FA364A904724482549D4
:10029000884205D00268043003B4904703BCF7E7F6
:1002A00000200021304A9047FEE7884214D0521ABD
:1002B00012D003460B4313430324234206D10368A1
:1002C00004300B600431043AF9D1704703780130EF
:1002D0000B700131013AF9D17047884202D00270A7
:1002E0000130FAE7704700000000012000E0002024
:1002F0000000012000000120949D0000000000206B
:1003000000010020E0030000E0030000088A000074
:10031000949D000000000020000000207C8A000066
:100320007C8A00007C8A00007C8A00007C8A0000B5
:100330007C8A00007C8A00007C8A0000919D00007D
:10034000949E000000010020000100200001002018
:100350004C0B00204C0B00204C0B00204C0B0020C1
:100360004C2B0020AD030000097A0000FEE7FEE7F9
:10037000FEE7FEE7FEE7FEE7FEE7FEE7FEE7FEE755
:1003800000F002B8FFF7FCBF0F484FF007018843A9
:1003900085460E4880470E48016841F470010160AF
:1003A000BFF34F8FBFF36F8FFFF72ABF09480A498A
:1003B0000A4A884207D0521A05D0037801300B70E0
:1003C0000131013AF9D17047000001205584000045
:1003D00088ED00E07C8A0000000000200000002082
:1003E00000B585B00190019B002B0AD0074B43F06C
:1003F00001030393019B9B010293039B029898477F
:1004000000E000BF05B05DF804FB00BF908A00006B
:1004100000B583B00190019B002B0AD04FF47A7095
:10042000FFF7DEFF019B013B0193019B002BF5D100
:1004300000E000BF03B05DF804FB08B507F0F2FC74
:1004400000BF08BD00B589B0039002910192019BE5
:10045000002B33D00023079303230693029A079BB4
:100460001344019A1946002007F08CFC0590079A66
:10047000059B13440793019A059BD31A0193059B8F
:10048000002B13D10F4B1B7883F00103DBB2002B41
:1004900013D10120FFF7BCFF069B013B0693069B8F
:1004A000002B03D1074B00221A7007E0054B0122F5
:1004B0001A70019B002BD1D100E000BF00BF09B032
:1004C0005DF804FB0001002000B585B003900291A7
:1004D000054B00934023054A0299039800F012F857
:1004E00000BF05B05DF804FB4504000004010020D6
:1004F00082B0019000BF02B0704782B0019000BF8F
:1005000002B0704700B5A1B0059004910392029328
:10051000049803F0A3FE039B1593029B16930023FC
:10052000179300238DF8603000231993229B1A93B0
:1005300000231F930FA91F9B0822049803F068FF54
:1005400008231F93119B1293BDF84030ADF84C3037
:10055000BDF84230ADF84E3000238DF851309DF893
:100560003C3003F00303DBB2012B26D10F9BC3F316
:1005700095231C939DF83C30C3F3C203DBB28DF886
:100580005030BDF83C30C3F38313DBB21B931B9B8D
:100590009A0009A91F9B049803F03AFF1B9B9B003C
:1005A0001F9A13441F9312AA09A915AB009313466F
:1005B0001B9A1C9800F0FAFF2FE09DF83C3003F0E6
:1005C0000303DBB2022B28D1BDF83E30C3F38913FD
:1005D0009BB21E939DF83C30C3F3C203DBB28DF88F
:1005E00050301E9B082B28BF08231D9307A91F9B73
:1005F0001D9A049803F00CFF1F9A1D9B13441F9330
:100600001E9A1D9BD31A1E9315AB12AA07A81D99FB
:1006100001F06EF81E9B002BE3D1049803F02DFE31
:1006200000BF21B05DF804FB00B583B00190019BD1
:100630001B781A460C4B9B5C002B05D0019B0433A6
:10064000184606F0D3F90BE0019B1B781A46064BBF
:100650009B5C002B04D1019B0C33184605F068FB12
:1006600000BF03B05DF804FBDC07002000B587B0D5
:100670000390029113468DF8073000230593039BE6
:100680001B781A46114B9B5C002B09D0039B04334B
:100690009DF807200299184606F00AFA05900FE027
:1006A000039B1B781A46094B9B5C002B08D1039BCC
:1006B0000C339DF807200299184605F0B1FB059010
:1006C000059B184607B05DF804FB00BFDC0700205F
:1006D00082B001900091034B01221A7000BF02B05A
:1006E000704700BF8401002030B58DB003468DF8FF
:1006F00007301A4B02AC1D460FCD0FC495E80F0012
:1007000084E80F00062302934FF0FF3303934FF06A
:10071000FF3304934FF0FF3305934FF0EB730893CF
:100720009DF80730002B01D00D4A00E0002202ABFB
:1007300019460C4803F0E8FF0B900B9B0A930A9BA9
:10074000002B04D0084A43210A9801F08DFD074A86
:100750009DF80730137000BF0DB030BD008B000056
:10076000D106000000000020988A000085010020CA
:1007700000B583B001238DF807309DF80730184687
:10078000FFF7B2FF00BF03B05DF804FB00B589B00E
:10079000039002910192019B8DF81F30124B0022B1
:1007A0001A709DF81F301A4602991048FFF75EFF35
:1007B0000690069B0593059B002B04D00C4A532101
:1007C000059801F051FD00BF0A4B1B78002B07D0A4
:1007D000054B1B78DBB283F00103DBB2002BF3D1B6
:1007E00000BF09B05DF804FB840100200000002078
:1007F000988A00008501002000B585B00390029121
:10080000054B00934023054A02990398FFF77AFEAF
:1008100000BF05B05DF804FB8D0700004401002017
:1008200082B0019000BF02B07047000000B583B0F5
:1008300001900548FFF7F8FE0020FFF755FF00BFC5
:1008400003B05DF804FB00BF0000002082B00190FF
:10085000019BDB6801225A7100BF02B070470000A3
:1008600000B583B04FF0FF330193FFF7E6FD04219D
:10087000114800F0B7FD0190019B002B03DA0F49EE
:10088000412002F0D9FD0C48FFF7E0FFFFF770FFB1
:1008900004210B4800F0A6FD0190019B002B03DA18
:1008A0000649482002F0C8FD0548FFF7CFFF00BF0A
:1008B00003B05DF804FB00BF488A0000508B0000C5
:1008C000588A000000B583B001900091019B1B681D
:1008D0001B6800990198984700BF03B05DF804FBBE
:1008E00000B583B00190019B1B685B680198984735
:1008F00000BF03B05DF804FB00B583B00190019B1D
:100900001B689B680198984700BF03B05DF804FB23
:1009100082B001900B468DF80330019BDB689DF897
:1009200003201A7100BF02B0704782B00190019B92
:10093000DB681B79184602B0704782B00190019BBA
:10094000DB6801225A7100BF02B0704782B001908B
:10095000019BDB685B79184602B0704700B585B033
:10096000019000910C4B00221A700C4803F0DAFB46
:100970000390039B002B01D0039B08E0084803F081
:1009800067FD084A084BD31ADB0802930023184678
:1009900005B05DF804FB00BFF0020020688A00008B
:1009A000BC8B0000488A0000088A0000024A034B02
:1009B000D31ADB0818467047488A0000088A0000EE
:1009C00000B587B001900B468DF803309DF80330D9
:1009D000002B1FD0FFF7EAFF04900023059313E0DC
:1009E000059B9B000E4A13440393039B1B881A46E6
:1009F000019B1B689A4204D1019B059A1A6000234F
:100A000009E0059B01330593059A049B9A42E7D3BD
:100A1000052300E00023184607B05DF804FB00BF83
:100A20000000002000B585B001900B468DF8033022
:100A30009DF8032001AB11461846FFF7C1FF03469E
:100A4000002B07D1019BDB00054A13440393039B52
:100A50001B6800E00023184605B05DF804FB00BFEA
:100A6000088A000084B001900B468DF80330019B8A
:100A7000DB00174A134402939DF80330013B032B1C
:100A80001CD801A252F823F0990A0000A10A000024
:100A9000A90A0000B30A000002238DF80F3011E00C
:100AA00004238DF80F300DE0029B1B798DF80F3079
:100AB00008E0029B5B798DF80F3003E000238DF88E
:100AC0000F3000BF9DF80F30184604B0704700BFCC
:100AD000088A000084B00190009100238DF80F3047
:100AE000019B1B7803F00403DBB2002B24D0019B95
:100AF0001B78C3F30103DBB2012B02D0022B0CD015
:100B000017E0009B1B68019A1288C2F38312D2B2CD
:100B100013449A1C009B1A600BE0009B1B68019A0F
:100B20005288C2F3891292B213449A1C009B1A6035
:100B300000BF01238DF80F309DF80F30184604B028
:100B40007047000000B58BB00023ADF826303E485A
:100B500002F001FE3D4802F0FEFD3D4B9B68049310
:100B60003C4B1B680693049A069B134002339B0080
:100B7000374A13440433089304AB19460898FFF727
:100B8000A9FF0346002B09D0049A069B13400233A9
:100B90009B002F4A134404330893EDE700BF002362
:100BA000079311E0049B5A1C0492069A1340079A7B
:100BB000920001A90A44264902339B000B445B685A
:100BC0001360079B01330793079B012BEAD99DF81C
:100BD0000430C3F30103DBB2012B10D0022B1CD174
:100BE000BDF80A30ADF82630BDF80630C3F38913DE
:100BF0009BB203339A08049B1344049313E0BDF89B
:100C00000A30ADF82630BDF80430C3F38313DBB2ED
:100C10001A46049B1344049305E00F494FF4C27035
:100C200002F00AFC00BF094802F0A1FD0590059BF7
:100C3000002B02D0049B064A9360BDF8263018466C
:100C40000BB05DF804FB00BF08070020040700207C
:100C5000F002002024000020CC8B000000B585B0FD
:100C60000021074802F000FD0390039B0293029BC2
:100C700083F310030193019B184605B05DF804FB54
:100C80000C07002000B589B00390029101920093F7
:100C9000039B1B0C0793FFF7E1FF0690FFF786FE0F
:100CA0000246079B934204D3214940F2A91002F067
:100CB000C3FB069B1904009B5A1C0A9B1340079A0E
:100CC0000A431C4902339B000B445A60009A0A9B5A
:100CD000134002339B00174A134404330593039BCC
:100CE00003F00703D9B2059A137861F3C5031370B3
:100CF000019B03F00F03D9B2059A138861F389139E
:100D00001380029BC3F31501059A136861F39F23B7
:100D10001360059A1378012161F301031370059A9A
:100D2000137823F00403137000BF09B05DF804FBCF
:100D3000CC8B0000F002002000BF704700B58BB0E4
:100D40000390029113468DF80730039B02330893FA
:100D500001238DF81F30002001F046FF3E4B5A68FA
:100D6000029B1A603D4B1A683B4B99683A4B5B6893
:100D7000CB1A13440133099314E00121384802F0DF
:100D8000BAFCFFF7DFFE05900599354802F0B3FC89
:100D9000324B1A68304B99682F4B5B68CB1A13445F
:100DA00001330993089A099B9A42E6D89DF81F30AF
:100DB000002B48D0002304939DF80730002B17D058
:100DC0009DF81030012262F301038DF810309DF878
:100DD000103043F004038DF81030039B03F00F0331
:100DE000DAB2BDF8103062F38913ADF8103016E0B6
:100DF0009DF81030022262F301038DF810309DF847
:100E0000103043F004038DF81030039BC3F3090343
:100E10009AB2BDF8123062F38F13ADF812300E4B58
:100E20005A680E4B1B68134002339B000A4A134456
:100E300004330693049A069B1A60074B5A68089B72
:100E40001344054A5360002001F0E2FE9DF81F3074
:100E500018460BB05DF804FBF002002024000020CF
:100E60000C07002000B58BB005900491039202930B
:100E70001F4B1B68079306AB012219460298FFF728
:100E80005DFF0346002B24D0069B02330993002309
:100E9000089311E0089B9B00039A1A44099B591C74
:100EA000099107990B401268124902339B000B44C9
:100EB0005A60089B01330893089A029B9A42E9D32F
:100EC000069A079B00931346029A04990598FFF728
:100ED000D9FE084B1B78002B04D000F07FF80346A6
:100EE000002BFAD1FFF728FF00BF0BB05DF804FB21
:100EF00024000020F002002000B583B00190009192
:100F00000023002200990198FFF7ACFF00BF03B057
:100F10005DF804FB00B587B0039002910192019B3C
:100F2000059305AA012302990398FFF79BFF00BFD1
:100F300007B05DF804FB00B587B003900291019201
:100F40000093019B0493009B059304AA022302993A
:100F50000398FFF787FF00BF07B05DF804FB00B5FB
:100F600089B00390029101920093019B0593009B2D
:100F700006930A9B079305AA032302990398FFF798
:100F800071FF00BF09B05DF804FB00B58BB00390A2
:100F9000029101920093019B0593009B06930C9B89
:100FA00007930D9B08930E9B099305AA05230299AD
:100FB0000398FFF757FF00BF0BB05DF804FB00007C
:100FC000054B9A68044B5B689A420CBF01230023CF
:100FD000DBB21846704700BFF002002000B599B0A0
:100FE000FFF7EEFF0346002B01D00023B9E19B4B36
:100FF0000022C3F81824BFF34F8F00BF974B9B68A4
:101000000493974B1B681093049A109B1340023370
:101010009B00924A13440433119300231793002337
:10102000169300230F9304AB19461198FFF752FD56
:101030000346002B19D0894BD3F81834002B14D158
:10104000864B5A68049B9A4205D8844B5B68834A56
:101050009360002385E1049A109B134002339B00A8
:101060007E4A134404331193DDE70023159311E006
:10107000049B5A1C0492109A1340159A920001A9DD
:101080000A44764902339B000B445B681360159B4E
:1010900001331593159B012BEAD99DF8043003F019
:1010A0000303DBB2022B40F09C80BDF80630C3F393
:1010B00089139BB20D93BDF80630C3F389139BB21D
:1010C000502B28BF50239BB20C930C9BC3F30903F6
:1010D0009AB2BDF8063062F38F13ADF806300C9B60
:1010E00008330B939DF80430C3F3C203DBB20F93B4
:1010F0000B995C4803F021F81790179B002B00F028
:10110000D380179803F0AAF801A9169B0822179814
:1011100003F060F9169B08331693049BDA43109B87
:10112000134001339B000A930C9A0A9B9A4242D9BE
:101130000A9B002B08D0049A109B134002339B009B
:10114000464A1344043300E0474B08930A9B002BA4
:1011500002D00A9BDBB201E00C9BDBB28DF81F30A2
:101160000A9B002B01D0404B00E0002306930A9B12
:10117000002B06D00C9BDAB20A9BDBB2D31ADBB28F
:1011800000E000238DF817309DF81F20169B08996A
:10119000179803F01FF99DF81F30169A1344169301
:1011A000069B002B16D09DF81720169B06991798C2
:1011B00003F010F90EE0049A109B134002339B00D9
:1011C000264A134404330993169B0C9A09991798DD
:1011D00003F000F90D9B03339A08049B1344049316
:1011E00062E09DF8043003F00303DBB2012B5BD116
:1011F000BDF80430C3F38313DBB2062B28BF0623EC
:10120000DAB2BDF8043062F38913ADF80430BDF8EA
:101210000430C3F38313DBB202330E939DF8043022
:10122000C3F3C203DBB20F930E9B9B0019460D481C
:1012300002F083FF1790179B002B35D0179803F00F
:101240000DF801A9169B0822179803F0C3F8169B06
:1012500008331693002315931DE000BFF002002011
:1012600024000020688A0000FC020020049B5A1C15
:101270000492109A134002339B003C4A1344191DF8
:10128000169B0422179803F0A5F8169B04331693B7
:10129000159B01331593BDF80430C3F38313DBB200
:1012A0001A46159B9342E1D3179B002B39D02F4B45
:1012B000D3F8103414932D4BD3F81834002B1BD0D3
:1012C000179802F0DAFF46E000238DF84F301498AB
:1012D000FFF73CFB0346002B02D001238DF84F3073
:1012E0009DF84F30002B03D017991498FFF7EAFAB6
:1012F000149BDB681B681493149B002BE4D1179894
:1013000002F0BBFF002001F06FFC184BD3F818343B
:10131000002B02D1049B154A9360002001F078FC59
:1013200019E0124BD3F81034129306E01298FFF72D
:10133000E3FA129BDB681B681293129B002BF5D11A
:101340000B4A0C4BD31ADB081B0443F002030A4977
:101350001846FFF7D1FDFFF733FE034683F0010384
:10136000DBB2184619B05DF804FB00BFF0020020A4
:10137000288A0000088A0000308C000000B585B083
:101380000023039323E0164BD3F810340293012378
:101390008DF807300FE00298FFF7C7FA03461A46A8
:1013A000039B934203D100238DF8073006E0029B94
:1013B000DB681B680293029B002BECD19DF8073081
:1013C000002B01D0039B07E0039B01330393039B96
:1013D000092BD8DD4FF0FF33184605B05DF804FB4C
:1013E000F002002000B585B001900B468DF8033067
:1013F000FFF7C4FF0390039BB3F1FF3F01D1039BB1
:1014000022E0039BDBB219460198FFF781FA104BEB
:10141000D3F81034002B08D10D4A019BC2F81034C8
:10142000019BDB6800221A600DE0094BD3F81034F1
:10143000DA68019BDB6812681A60054BD3F8103438
:10144000DB68019A1A60039B184605B05DF804FB3F
:10145000F002002000B583B00C4BD3F81034019398
:101460000A4B01221A7009E00198FFF766FA019809
:10147000FFF736FA019BDB681B680193019B002B89
:10148000F2D100BF00BF03B05DF804FBF002002002
:1014900082B00190009100BF02B0704710B584B0D7
:1014A00003900291039BDB88002B0AD0039BDB880F
:1014B0001A461F4B009313461E4A1F49029802F01A
:1014C00085FA039B1B7A052B2ED0039B5B7A002B9E
:1014D00012D0039B9B881A46039B1B7A1946104621
:1014E000FFF7C0FA03461A46144B53F822301A4647
:1014F0001349029802F06AFA039B1B681946029886
:10150000FFF7C6FF039B1B7A1A460E4B53F8224087
:10151000039B9B8800211846FFF784FA0346224666
:101520000949029802F052FA00BF04B010BD00BF92
:10153000648C0000748C0000AC8C00003C00002027
:10154000C48C000028000020C88C000000B585B0C5
:101550000390029113468DF80730039B1B7A052BED
:101560000FD0039B5B7A002B06D00D4B1B681A46ED
:101570000C49029802F02AFA0B49029802F026FA66
:1015800007E09DF80730002B03D00749029802F0CE
:101590001DFA029802F0F8F900BF05B05DF804FBEF
:1015A0003C000020C48C0000D48C000030B58BB00F
:1015B00007900691059204930E9B1B7B8DF82730B4
:1015C0000E9B00221A730E990498FFF767FF059B84
:1015D000062B7FD801A252F823F000BFF9150000B6
:1015E0000316000013160000271600004516000021
:1015F0006D1600009D16000007990E9802F0E6F99E
:1016000069E0069B1B681A4607990E9802F0DEF9FE
:1016100061E0069B1A68069B04331B6807990E98C5
:1016200002F0D4F957E0069B1A68069B0433196848
:10163000069B08331B6800930B4607990E9802F02F
:10164000C5F948E0069B1968069B04331868069B99
:1016500008331B68069A0C32126801920093034605
:101660000A4607990E9802F0B1F934E0069B186813
:10167000069B04331C68069B08331B68069A0C32D1
:10168000126806991031096802910192009323466D
:10169000024607990E9802F099F91CE0069B1C6817
:1016A000069B04331D68069B08331B68069A0C32A0
:1016B0001268069910310968069814300068039082
:1016C0000291019200932B46224607990E9802F050
:1016D0007DF900E000BF00220E990498FFF736FF65
:1016E0000E9B9DF827201A7300BF0BB030BD00BFC2
:1016F00000B587B00390029101920093029B082BE2
:1017000060D8009B1B7B8DF81330009B00221A735E
:1017100000990198FFF7C2FE0023059314E0059A93
:10172000029B9A4209D2039A059B13441B781A46DE
:101730002649009802F04AF903E02549009802F092
:1017400045F9059B01330593059B072BE7D92149F3
:10175000009802F03BF90023059326E0059A029BCE
:101760009A421BD2039A059B13441B788DF81230C2
:101770009DF812307E2B0AD89DF81230184607F0DB
:10178000F9F80346002B02D09DF8123000E02E231A
:101790001A461149009802F019F903E00F49009820
:1017A00002F014F9059B01330593059B072BD5D94E
:1017B000012200990198FFF7C9FE009B9DF81320B4
:1017C0001A7300E000BF07B05DF804FBD88C00007E
:1017D000E08C0000E48C0000E88C0000EC8C000041
:1017E00000B583B00190019B1B68184600F011F909
:1017F0000346002B04D105494FF4F67001F01CFE9E
:101800004FF0A043184603B05DF804FBF08C0000D5
:1018100000B585B00190084611461A4603468DF87A
:1018200003300B468DF8023013468DF8013001ABC2
:101830001846FFF7D5FF03909DF803209DF802306E
:101840005B001A439DF801309B001A439DF8183045
:101850001B0242EA03019DF81C301B04019A194344
:10186000039B02F5E07243F8221000BF05B05DF85B
:1018700004FB00B585B0039000230193002300937F
:101880000023012201210398FFF7C2FF00BF05B02A
:101890005DF804FB00B585B003900B468DF80B3066
:1018A0009DF80B30002201920022009200220021BC
:1018B0000398FFF7ADFF00BF05B05DF804FB00B56E
:1018C00085B0019001AB1846FFF78AFF0390019B9A
:1018D000012202FA03F31946039800F086F800BFCC
:1018E00005B05DF804FB00B585B0019001AB18466A
:1018F000FFF776FF0390019B012202FA03F31946DA
:10190000039800F07CF800BF05B05DF804FB00B55B
:1019100085B0019001AB1846FFF762FF0390039B6F
:10192000D3F804350293029BDA43019B012101FAAB
:1019300003F31A40039BC3F80825019B01229A4038
:10194000029B1A40039BC3F80C2500BF05B05DF84D
:1019500004FB00B583B001900091009B002B03D1E4
:101960000198FFF7C0FF02E00198FFF7A8FF00BF52
:1019700003B05DF804FB00B585B0019001AB1846DB
:10198000FFF72EFF0390039800F01FF80246019B1B
:1019900022FA03F303F00103184605B05DF804FBD7
:1019A00000B585B0019001AB1846FFF719FF039011
:1019B000039800F012F80246019B22FA03F303F0A9
:1019C0000103184605B05DF804FB82B00190019B4D
:1019D000D3F81035184602B0704782B00190019BD1
:1019E000D3F80435184602B0704782B001900091D8
:1019F000019B009AC3F8082500BF02B0704782B06F
:101A000001900091019B009AC3F80C2500BF02B021
:101A1000704784B00190019B5B09029300230393FC
:101A2000029B002B03D14FF0FF33039300BF019BB8
:101A300003F01F030193039A019B22FA03F303F0BF
:101A40000103DBB2184604B07047000000B585B052
:101A50000190019B032B03D911493A2001F0ECFCC2
:101A6000104A019B13441B781846FFF799FF034661
:101A7000002B14BF012300238DF80F309DF80F3089
:101A8000002B14BF01230023DBB283F00103DBB280
:101A900003F00103DBB2184605B05DF804FB00BF9C
:101AA000248D0000748D000000B583B00190019B6F
:101AB000032B03D90749412001F0BEFC064A019BD4
:101AC00013441B7800211846FFF743FF00BF03B003
:101AD0005DF804FB248D0000748D000000B583B018
:101AE0000190019B032B03D90749472001F0A4FC77
:101AF000064A019B13441B7801211846FFF729FF72
:101B000000BF03B05DF804FB248D0000748D00005D
:101B100000B583B00023019305E00198FFF7DEFFD5
:101B2000019B01330193019B032BF6D900BF00BF3A
:101B300003B05DF804FB00B583B00023019305E01A
:101B40000198FFF7B1FF019B01330193019B032B28
:101B5000F6D900BF00BF03B05DF804FB00B583B049
:101B60000190019B032B03D907495F2001F064FC1E
:101B7000064A019B13441B781846FFF7C8FE00BFB6
:101B800003B05DF804FB00BF248D0000748D0000DD
:101B900000B583B00023019309E0094A019B134477
:101BA0001B781846FFF765FE019B01330193019BEB
:101BB000032BF2D9FFF7ACFF00BF03B05DF804FBC5
:101BC000748D000000B585B00190019B032B03D9F3
:101BD0001149AC2001F030FC104A019B13441B78E2
:101BE0001846FFF7C8FE0346002B14BF012300234D
:101BF0008DF80F309DF80F30002B14BF0123002308
:101C0000DBB283F00103DBB203F00103DBB2184661
:101C100005B05DF804FB00BF248D0000788D000046
:101C200000B583B0002301930AE0094A019B1344E5
:101C30001B7803211846FFF72DFE019B013301930A
:101C4000019B032BF1D900BF00BF03B05DF804FB7B
:101C5000788D000084B001904FF0FF330293002391
:101C600003930DE00A4A039B13441B781A46019B19
:101C7000934202D1039B029305E0039B013303933C
:101C8000039B032BEED9029B184604B0704700BF9C
:101C9000788D000000B583B00190019B03F0010333
:101CA000002B01D0FFF774FF019B03F00203002B10
:101CB00001D0FFF7B5FF00BF03B05DF804FB0000E3
:101CC00084B003468DF807309DF807305B08DBB21F
:101CD0001A460D4B9B5C8DF80F309DF8073003F0D2
:101CE0000103002B04D09DF80F301B09DBB204E088
:101CF0009DF80F3003F00F03DBB28DF80E309DF826
:101D00000E30184604B070472807002084B0034600
:101D10000A468DF8073013468DF806309DF80730D7
:101D200003F00103002B01D00F2300E0F0238DF816
:101D30000F309DF8073003F00103002B04D09DF80D
:101D400006301B01DBB201E09DF806308DF80E3045
:101D50009DF807305B08DBB21A46114B9A5C9DF880
:101D600007305B08DBB219469DF80F301340DAB23A
:101D70000B4B5A549DF807305B08DBB21A46084BF0
:101D80009A5C9DF807305B08DBB219469DF80E306F
:101D90001343DAB2024B5A5400BF04B0704700BF7D
:101DA0002807002000B585B003468DF807300023D2
:101DB000039310E00F4B1A68039BDB00134402935C
:101DC000029B1B789DF807209A4201D1029B0DE0EF
:101DD000039B01330393084B1B781A46039B9342E2
:101DE000E8DB0649882001F027FB0023184605B0F0
:101DF0005DF804FB1007002014070020888D000008
:101E000000B585B003460A468DF8073013468DF8B5
:101E100006309DF807301846FFF7C4FF0390039B78
:101E2000002B0BD0039B5B68002B07D0039B5B68E8
:101E30009DF806109DF807201046984700BF05B092
:101E40005DF804FB2DE9F04F85B003460A468DF896
:101E50000F3013468DF80E309DF80F301846FFF7FF
:101E60002FFF0346042B00F2B48001A252F823F0A6
:101E7000851E0000EB1E0000071F0000371F00003A
:101E80004D1F00009DF80E30002B00F09F809DF844
:101E90000F3001211846FFF739FF002000F0A4FEA3
:101EA0009DF80F104FF001024FF00003A1F1200444
:101EB000C1F1200003FA01F702FA04F4274322FAE1
:101EC00000F0074302FA01F6444BD3E9002346EA47
:101ED000020100913B430193404BDDE90012C3E94D
:101EE0000012002000F094FE70E09DF80E30002BF0
:101EF00001D0022200E000229DF80F301146184662
:101F0000FFF704FF65E09DF80E30002B0CD09DF824
:101F10000F3003211846FFF7F9FE9DF80F3001211D
:101F20001846FFF76DFF54E09DF80F300121184669
:101F3000FFF7ECFE4DE09DF80E30002B48D19DF8E8
:101F40000F3004211846FFF7E1FE41E09DF80E3006
:101F5000002B06D09DF80F3003211846FFF7D6FE60
:101F600037E09DF80F3000211846FFF7CFFE9DF8AF
:101F70000F3000211846FFF743FF002000F034FE29
:101F80009DF80F104FF001024FF00003A1F1200661
:101F9000C1F1200003FA01F502FA06F6354322FAF0
:101FA00000F0054302FA01F46FEA04086FEA05093C
:101FB0000A4BD3E9002308EA020A09EA030B074B9C
:101FC000C3E900AB002000F023FE02E000BF00E008
:101FD00000BF00BF05B0BDE8F08F00BF20070020A4
:101FE00000B583B00648074B1B685B080022194602
:101FF00000F03AFD019000BF03B05DF804FB00BFA4
:10200000600000201807002000B587B00190002371
:10201000059328E01C4B1A68059BDB0013440493CE
:10202000049B1B78184603F00BF903468DF80F301C
:10203000049B5B78012B0CBF01230023DBB21A4603
:102040009DF80F309A420CBF012300238DF80E300B
:10205000049B1B789DF80E2011461846FFF7F2FEF0
:10206000059B01330593094B1B781A46059B934248
:10207000D0DB074BD3E90023134301D0FFF7B0FFB8
:1020800000BF07B05DF804FB100700201407002014
:102090002007002000B585B001900B468DF8033075
:1020A000019BDBB21846FFF77DFE0390039B1B7874
:1020B000184603F0C5F803468DF80B30039B5B7898
:1020C000012B0CBF01230023DBB21A469DF80B3015
:1020D0009A420CBF012300238DF80A309DF80A3084
:1020E000002B06D0054BD3E90023134301D1FFF7A2
:1020F00077FF00BF05B05DF804FB00BF200700209C
:1021000000B58BB003900B4601928DF80B30019B0C
:10211000092B01D8072367E002F084FF034683F010
:102120000103DBB2002B09D002F018FF0990099BD4
:102130000893089B002B01D0089B55E02C4A039B79
:1021400013602C4A9DF80B3013702B4A019B1360CF
:1021500010220021294806F0BDFB29494FF000025A
:102160004FF00003C1E9002331E09DF80B30DB00A4
:10217000039A1344079303238DF8143000238DF83A
:1021800015309DF8163023F001038DF816309DF8B8
:10219000163023F002038DF816309DF8163023F028
:1021A00004038DF81630079B9B788DF81530079B3C
:1021B0001B78184605AB134A194602F03FFF0990F9
:1021C000099B0693069B002B01D0069B0CE09DF813
:1021D0000B305A1E8DF80B20002BC6D10A4A002165
:1021E0000A4800F007FC034618460BB05DF804FBF4
:1021F00010070020140700201807002028070020DF
:10220000200700209520000009200000E88D000034
:1022100000B583B0114B1B68002B04D1104940F26C
:10222000351001F009F9002301930CE00B4B1A68FB
:10223000019BDB0013441B780121184602F07CFF50
:10224000019B01330193074B1B781A46019B934274
:10225000ECD30023184603B05DF804FB1007002000
:10226000888D00001407002000B583B00290009113
:10227000019244F2010071466A4600F017F803B07B
:1022800000BD00BFBFF34F8F00BF064BDB6803F4F8
:10229000E0620449044B1343CB60BFF34F8F00BF90
:1022A00000BFFDE700ED00E00400FA0530B58BB09B
:1022B00007900691059272B600BFFFF7CBF8FEF7C4
:1022C0008DFE0346002BFAD1079B44F20102934294
:1022D00016D0079B44F2020293423ED1059B09931C
:1022E0002C4A2D4BD31ADB081B0443F00100099B39
:1022F0005B681A46099B1B682849FEF71CFE39E0FB
:10230000059B0893234A244BD31ADB081B0443F094
:102310000104089B9D68089B9B68184602F05CF9C5
:1023200003461846089B5B681946089B1B68069A7B
:1023300002920193009103462A4619492046FEF76E
:1023400024FE144A144BD31ADB081B0443F0010388
:1023500014491846FEF7D0FD0CE00E4A0E4BD31A76
:10236000DB081B0443F00103069A0F491846FEF7E9
:10237000D1FD00BF074A084BD31ADB081B0443F00A
:102380000300059B0093069B079A0849FEF7E7FDAB
:10239000FFF778FF288A0000088A0000EC8D000013
:1023A000088E0000308E0000448E00005C8E00001D
:1023B0002DE9F04383B0144801F015F803460022DC
:1023C0001C461546114BD3E9002314EB020845EBDC
:1023D0000309CDE900890E4BD3E90023DDE90001B3
:1023E000904271EB030307D2DDE9002312F18076FE
:1023F00043F10007CDE90067DDE9002310461946E7
:1024000003B0BDE8F08300BF80000020400700203B
:102410004807002088B001900091019B0793009B22
:102420000693079BD3E90223CDE90423069BD3E956
:102430000223CDE90223DDE90423DDE90201904214
:1024400071EB03032CBF01230023DBB2184608B055
:1024500070470000F0B585B00190019B5B69002BCF
:1024600003D13C49A52000F0E7FF00238DF80F3091
:10247000394B1B78002B68D0019B002B65D0FFF7F0
:1024800097FF019BD3E90223904271EB03034BD3E7
:10249000002000F0A9FB019B1B69002B06D10199CC
:1024A0004FF0FF324FF0FF33C1E90223002000F06C
:1024B000AFFB019B5B69019A926910469847002027
:1024C00000F092FB019B1B69002B1AD0019BD3E902
:1024D0000223B3F1FF3F08BFB2F1FF3F11D0019BD0
:1024E000D3E902230199096900200C460546161913
:1024F00043EB0507019BC3E9026701238DF80E300A
:1025000002E000238DF80E30002000F081FB9DF8E2
:102510000E30002B19D0019B1946104801F0B6FF70
:1025200001238DF80F3010E0019BD3E90223B3F1B2
:10253000FF3F08BFB2F1FF3F07D0019B1946074894
:1025400001F0A4FF01238DF80F309DF80F301846DD
:1025500005B0F0BD8C8E00003C070020EC8E000022
:1025600030B58BB0019000910D230993009B0022A0
:102570001A70019BD3E90223CDE90623FFF718FF68
:10258000DDE90623141A63EB0105CDE90445DDE915
:102590000423012A73F1000318DB049BB3F5350F04
:1025A00005D300F0FBFA0246144B134400E0069BEF
:1025B00003934FF49603039A0021114800F006FE9E
:1025C0000990099B002B05D1012314E000210C4840
:1025D00000F0D4FE099B0D2B07D10198FFF73AFFBD
:1025E00003461A46009B1A7004E006494FF48670B1
:1025F00000F022FF002318460BB030BDFFFFB400EF
:10260000800000208C8E000000B583B0044801F0EB
:1026100077FF0190019B184603B05DF804FB00BFF3
:10262000EC8E000000B583B0044801F08BFF0190F0
:10263000019B184603B05DF804FB00BFEC8E000060
:1026400000B583B0FFF7E0FF0190019B002B06D09F
:1026500001994FF0FF324FF0FF33C1E90223019B94
:10266000002BEFD100BF00BF03B05DF804FB0000FA
:10267000054BD3E9002312F1807043F10001024BB6
:10268000C3E9000100BF70474007002010B582B0C9
:102690000190124B1B68002B1DD0019800F0A3FE87
:1026A00004460021019800F08FFE0346194620469B
:1026B00000F068FA0346B3F5960F04D3084940F2D8
:1026C000411000F0B9FE054B1B681846FFF7C2FE2B
:1026D000024B00221A6000BF02B010BD3807002074
:1026E0008C8E000000B583B00190FFF761FE0246BA
:1026F0000B460349C1E9002300BF03B05DF804FBAA
:102700004807002000B587B00190FFF78BFF0490C9
:1027100000238DF81730049B002B58D0049BD3E97D
:102720000223B3F1FF3F08BFB2F1FF3F02D1FFF731
:102730006BFF54E02E4B1B68002B03D101238DF857
:1027400017301DE0049BD3E90201294B1B68D3E934
:102750000223904271EB030312D201238DF817304C
:10276000234B1B68D3E90223B3F1FF3F08BFB2F14B
:10277000FF3F05D01E4B1B6819461E4801F086FE20
:102780009DF81730002B2BD0FFF73EFF04900DF182
:102790000F0319460498FFF7E3FE0346002B12D0FF
:1027A000134B1B68002B02D1019800F01BFC104A50
:1027B000049B13609DF80F3083F00103DBB2002B04
:1027C000A3D000BF0FE00A4B00221A609DE7084B20
:1027D0001B68002B06D1019800F01AFC02E094E778
:1027E00000BF00E000BF00BF07B05DF804FB00BF02
:1027F00038070020EC8E000000B587B001902B4A0E
:1028000003AB1946104600F002FF049045E0049B1C
:102810001B78022B2BD0022B2FDC002B02D0012B9C
:1028200011D02AE0049B5B68D3E90223B3F1FF3F98
:1028300008BFB2F1FF3F22D0049B5B6819461C48D9
:1028400001F024FE1BE0049B5A681A4B1B689A4255
:1028500003D1184B00221A6012E0049B5B681946F2
:10286000134801F083FE03468DF8173008E0FFF7A8
:10287000E7FE114B01221A7002E000BF00E000BF2A
:102880000A4A03AB1946104600F0DAFE074A03ABCA
:102890001946104600F0BBFE0490049B002BB6D1F5
:1028A00000BF00BF07B05DF804FB00BFA807002011
:1028B000EC8E0000380700203C07002000B583B0F4
:1028C0000190019800F04DFD0346002B01D0FFF769
:1028D000CFFE0021019800F062FD0346002B02D0DC
:1028E0000198FFF7D3FE0121019800F058FD03463F
:1028F000002B02D00198FFF7F5FE0198FFF77CFF4F
:102900000198FFF7FFFE00BF03B05DF804FB000075
:1029100008B5024800F074FD00BF08BD800000202B
:1029200000B585B0034600918DF80730114A02AB1F
:102930001946104600F03EFE0390039B002B13D077
:10294000039B9DF807201A70039B009A5A60094A5E
:1029500002AB1946104600F046FE0346002B01D09C
:10296000FFF7D6FF002300E00423184605B05DF80A
:1029700004FB00BFA807002000B583B0164B1B68FE
:102980000093164808235822154900F0E0FD0190F5
:10299000019B002B01D0019B19E06B46114A19469F
:1029A000114800F0A1FA0190019B002B01D0019B7E
:1029B0000DE001210C4800F0C3FC01230B4A01216A
:1029C000094800F03BFB0A4B01221A70019B184694
:1029D00003B05DF804FB00BFE88E0000A8070020EC
:1029E00050070020BD28000080000020FFFF7F006E
:1029F0003C07002000B587B003900B4601928DF88C
:102A00000B30039B002B04D1164940F25A2000F0F2
:102A100013FD019B002B04D1124940F25B2000F012
:102A20000BFD019B002B01D1072317E0039B1B68C3
:102A3000059305994FF0FF324FF0FF33C1E90223B0
:102A4000059B019A5A619DF80B30012B0CBF0123A5
:102A50000023DBB21A46059B1A610023184607B013
:102A60005DF804FB8C8E0000F0B587B003900291F6
:102A70000192039B002B04D1224940F26B2000F00D
:102A8000DBFC039B0493002000F0AEF8049BD3E929
:102A90000223B3F1FF3F08BFB2F1FF3F11D1FFF7AF
:102AA00087FC02460B46029900200C460546161983
:102AB00043EB0507049BC3E9026701238DF8173038
:102AC00002E000238DF81730002000F0A1F89DF8F7
:102AD000173083F00103DBB2002B01D000230EE09E
:102AE000049B019A9A61049B1B69002B02D0049BF2
:102AF000029A1A6104990020FFF712FF0346184654
:102B000007B0F0BD8C8E000000B585B00190019B30
:102B1000002B04D11A4940F2932000F08DFC019B58
:102B20000293002000F060F8029BD3E90223B3F186
:102B3000FF3F08BFB2F1FF3F03D100238DF80F30F4
:102B400009E002994FF0FF324FF0FF33C1E9022351
:102B500001238DF80F30002000F05AF89DF80F3057
:102B600083F00103DBB2002B01D0002304E00299C3
:102B70000120FFF7D5FE0346184605B05DF804FBBB
:102B80008C8E000082B001900091019A009BD31AB4
:102B900023F07F43184602B07047000008B5034891
:102BA00000F021FC0346184608BD00BF800000204D
:102BB00072B600BF034B1B680133024A136000BFAB
:102BC000704700BFBC070020064B1B68013B054A4D
:102BD0001360044B1B68002B01D162B600BF00BF1D
:102BE000704700BFBC07002000B583B0019000F023
:102BF00025F80346012B03D00449432000F01CFCB8
:102C0000FFF7D6FF00BF03B05DF804FBF88E0000AD
:102C100000B583B003468DF8073000F00FF8034687
:102C2000012B03D00449512000F006FCFFF7CCFF34
:102C300000BF03B05DF804FBF88E000084B0EFF332
:102C400005830193019BC3F308030393039B002BAC
:102C50000DD1EFF314830093009B0293029B03F0CA
:102C60000103002B0CBF01230023DBB200E0012392
:102C7000184604B07047000082B003468DF8073054
:102C80009DF90730002B0CDB9DF8073003F01F0285
:102C900005499DF907305B09012000FA02F241F86D
:102CA000232000BF02B0704700E100E082B003467D
:102CB0008DF807309DF90730002B0DDB9DF80730AC
:102CC00003F01F0206499DF907305B09012000FA55
:102CD00002F2403341F8232000BF02B0704700BF2A
:102CE00000E100E082B0034600918DF807309DF9C5
:102CF0000730002B0ADB009BDAB20C499DF9073044
:102D00005201D2B20B4483F800230BE0009BDAB2ED
:102D100007499DF8073003F00F03043B5201D2B27C
:102D20000B441A7600BF02B0704700BF00E100E01C
:102D300000ED00E000B583B003460A468DF8073089
:102D400013468DF806309DF80630072B03D9084945
:102D50006B2000F071FB9DF806209DF907301146AD
:102D60001846FFF7BFFF00BF03B05DF804FB00BFCC
:102D70005C8F000000B583B003468DF807309DF9E5
:102D800007301846FFF778FF00BF03B05DF804FB7B
:102D900000B585B00190019B002B0AD0074B43F092
:102DA00001030393019B9B010293039B02989847A5
:102DB00000E000BF05B05DF804FB00BF70900000AC
:102DC00084B0039002910192039B029A02F5A872CB
:102DD000019943F8221000BF04B0704782B00190FF
:102DE0000091019B009A02F5A87253F82230184610
:102DF00002B0704782B001900091019B009AC3F825
:102E0000042300BF02B0704782B001900091019B83
:102E1000009AC3F8082300BF02B0704782B0019047
:102E20000B46ADF80230BDF80230019A13441B681E
:102E3000184602B0704784B001900B46ADF80230DE
:102E4000BDF80230019A134400221A60BDF8023026
:102E5000019A13441B680393039B00BF04B070479F
:102E600082B00190019BD3F80435184602B0704738
:102E700000B583B001900091009BB3F5805F04D34F
:102E800006494FF4BE7000F0D7FA019B009AC3F8D0
:102E9000082500BF03B05DF804FB00BF908F000061
:102EA00082B001900B468DF803309DF80320019B02
:102EB00013441A460123136000BF02B0704782B06A
:102EC00001900091019B009AC3F8442300BF02B017
:102ED000704782B001900091019B009AC3F848238B
:102EE00000BF02B07047000000B587B003900291A8
:102EF0000192039B002B03D13349552000F09CFA2B
:102F0000029B002B03D13049562000F095FA019B1B
:102F1000002B03D12C49572000F08EFA039B5B79DC
:102F200019462A4A019B42F82130039B5B79284AC3
:102F3000DB0013441B79002B0ED008230593254A90
:102F4000254BD31ADB081B0443F002032349184620
:102F5000FDF7D2FF059B32E0039B1A68029B1B889A
:102F600019461046FFF784FF039B93F90420029B48
:102F70009B7819461046FFF7DDFE039B93F904305A
:102F80001846FFF7F7FE039B5B79114ADB001344F9
:102F900001221A71039B5B7919460D4A039B42F883
:102FA0003130002305930B4A0B4BD31ADB081B046B
:102FB00043F003030A491846FDF79EFF059B184698
:102FC00007B05DF804FB00BFC08F0000C007002001
:102FD000C4070020388A0000088A00001C90000006
:102FE0004090000000B583B00190019B002B03D1FD
:102FF0000649872000F020FA019B1B680021184633
:10300000FFF74EFF00BF03B05DF804FBC08F000068
:1030100000B583B00190019B002B03D106498D20A0
:1030200000F00AFA019B1B6804211846FFF738FFDD
:1030300000BF03B05DF804FBC08F000000B587B08F
:103040000390029101928DF80330039B002B03D172
:103050002149962000F0F0F94FF48032029B02FAE9
:1030600003F30593029B50339BB29B00ADF81230E3
:10307000019B23F07F430193039B1B68059918462E
:10308000FFF7C2FE039B1B6805991846FFF721FF57
:10309000039B1B68BDF8122011461846FFF7CBFEB4
:1030A000039B1B68019A02991846FFF789FE039B50
:1030B0001B6805991846FFF702FF9DF80330002BA7
:1030C00005D0039B1B6805991846FFF793FE00BFC8
:1030D00007B05DF804FB00BFC08F000000B585B0ED
:1030E0000390029113468DF80730039B002B03D108
:1030F0000B49A92000F0A0F9039B1B680299184610
:10310000FFF7DDFE9DF80730002B05D0039B1B6801
:1031100002991846FFF76EFE00BF05B05DF804FB8C
:10312000C08F000000B583B001900091019B002B7F
:1031300003D10A49B32000F07FF9019B1B68009975
:103140001846FFF7C6FE019B1B6800991846FFF75B
:103150005BFE00BF03B05DF804FB00BFC08F000042
:1031600000B583B001900B46ADF80230019B002BF7
:1031700003D10F49BA2000F05FF9019B1B68BDF82D
:10318000022011461846FFF749FE0346002B09D0DE
:10319000019B1B68BDF8022011461846FFF74BFE45
:1031A000012300E00023184603B05DF804FB00BFD4
:1031B000C08F000082B001900091019A009BD31A49
:1031C00023F07F43184602B07047000000B58BB073
:1031D0000390029101920093039B002B03D1574966
:1031E000CD2000F029F94FF48032029B02FA03F35C
:1031F0000993029B50339BB29B00ADF82230019B98
:1032000023F07F43019309990398FFF78BFF039BFA
:103210001B681846FFF724FE0790039B1B68029962
:103220001846FFF7DBFD0690039B1B68079A02997F
:103230001846FFF7C5FD039B1B68BDF82220114609
:103240001846FFF7F8FD07990698FFF7B3FF034606
:10325000012B0AD11020FFF79BFD039B1B68BDF8D3
:10326000222011461846FFF7E6FD039B1B6818460F
:10327000FFF7F6FD079007990198FFF79BFF059070
:10328000039B1B6809991846FFF719FE059B012B44
:1032900015D1039B1868019B01331A460299FFF769
:1032A0008FFD1020FFF774FD039B1B681846FFF786
:1032B000D7FD0246079B934235D00D2339E0039B8F
:1032C0001B68019A02991846FFF77AFD039B1B6859
:1032D0001846FFF7C5FD0790019B013B079918466B
:1032E000FFF768FF0590009BC3F1FF1303F57F43D1
:1032F000059A9A4201D90D231BE0059B002B12D1A0
:10330000039B1868019B01331A460299FFF758FD89
:10331000039B1B681846FFF7A3FD0246079B9342D9
:1033200001D00D2305E0012209990398FFF7D6FE8D
:10333000002318460BB05DF804FB00BFC08F0000EF
:1033400000B583B001900B468DF803309DF8033033
:103350001A4602210198FFF7C1FE00BF03B05DF8D5
:1033600004FB00B583B001904FF482710198FFF720
:10337000F7FE0346184603B05DF804FB00B583B0C2
:10338000019000914FF48032009B02FA03F319463A
:103390000198FFF7C7FE00BF03B05DF804FB00B55E
:1033A00085B001900091009B50339BB29B00ADF81B
:1033B0000E30BDF80E3019460198FFF7D1FE0346D6
:1033C000184605B05DF804FB00B583B0019000918C
:1033D000019B1B6800991846FFF700FD034618463D
:1033E00003B05DF804FB00B583B00190019B1B683E
:1033F0001846FFF735FD0346184603B05DF804FB99
:1034000000B583B00190019B93F904301846FFF793
:103410004DFC00BF03B05DF804FB000008B5044B91
:103420001B68044A12681046984700BF08BD00BFD9
:10343000C0070020C407002000B585B003460091F6
:10344000ADF80630BDF806300293009B039302AB43
:103450001A46002144F20200FEF728FF00BF05B023
:103460005DF804FB86B001900091019B53E8011FB9
:103470008AB2D88902449889824228BF121A1889D0
:10348000824202BFBFF32F8F002307E0C2EA01028E
:1034900043E801200028E9D14FF001038DF80F30F7
:1034A000059002910492029A009B1A609DF80F30D9
:1034B000DBB2184606B0704784B00190019951E81C
:1034C000013FC3EA034341E80132002AF7D10392E6
:1034D000029300BF04B0704786B001900091019B39
:1034E00053E8021F1FFAA1F2D888824202BFBFF33D
:1034F0002F8F00230DE0D88902449889824228BF8B
:10350000121AC1EA024243E802200028E8D14FF033
:1035100001038DF80F30059002910492029A009BEE
:103520001A609DF80F30DBB2184606B0704784B0C1
:103530000190019951E8023FC3EA234341E8023276
:10354000002AF7D10392029300BF04B0704784B001
:103550000390029111461A460B46ADF80630134609
:10356000ADF80430029B002B01D10E231FE0BDF803
:103570000630BDF80420B3FBF2F101FB02F29B1A06
:103580009BB2002B01D0092311E0039B029A1A6021
:10359000039B00225A60039B00229A60039BBDF8A4
:1035A00006209A81039BBDF80420DA810023184687
:1035B00004B0704700B585B001900091009B19469A
:1035C0000198FFF74FFF0346002B07D0019B1B68B4
:1035D000009A128813440393039B00E000231846CB
:1035E00005B05DF804FB00B583B001900091009B2D
:1035F0001A88009B5B889A4204D10198FFF75CFF10
:10360000012300E00023184603B05DF804FB00B579
:1036100085B001900091009B19460198FFF75CFF6F
:103620000346002B07D0019B1B68009A5288134465
:103630000393039B00E00023184605B05DF804FBEC
:1036400000B583B001900091009B1A88009B5B88B5
:103650009A4204D10198FFF76AFF012300E000239A
:10366000184603B05DF804FB10B487B001900091D8
:10367000019B009A53E8004F104643E8000191F087
:10368000000FF7D1059404900391059B184607B0ED
:103690005DF8044B704710B487B001900091019B16
:1036A000009A53E8004F44EA020043E8000191F019
:1036B000000FF6D1059404900391049B184607B0BF
:1036C0005DF8044B704710B487B001900091019BE6
:1036D000009A53E8004F04EA020043E8000191F029
:1036E000000FF6D1059404900391059B184607B08E
:1036F0005DF8044B704710B487B001900091019BB6
:10370000009A53E8004F04EB020043E8000191F0F7
:10371000000FF6D1059404900391049B184607B05E
:103720005DF8044B704710B487B001900091019B85
:10373000009A53E8004FA4EB020043E8000191F027
:10374000000FF6D1059404900391049B184607B02E
:103750005DF8044B704700B583B0019001210198DA
:10376000FFF799FF0346184603B05DF804FB00B568
:1037700083B0019000210198FFF7A5FF034618468A
:1037800003B05DF804FB000000B583B001900B4668
:103790008DF80330019B002B03D10849E820FFF787
:1037A0004BFE019BDA689DF803300199098A01FB01
:1037B00003F31344184603B05DF804FB789000004F
:1037C00000B583B001900091019B002B03D1084903
:1037D000F520FFF731FE009B019AD2689B1A019AEF
:1037E000128AB3FBF2F3DBB2184603B05DF804FBB8
:1037F0007890000000B585B00190019B002B01D1AD
:103800000E234CE0019B1B68002B03D12649FF20AF
:10381000FFF712FE019B5B68002B04D122494FF495
:103820008070FFF709FE019B9B68002B04D11E49A5
:1038300040F20110FFF700FE019BDB68002B04D172
:1038400019494FF48170FFF7F7FD019B1B8A002B8C
:1038500004D1154940F20310FFF7EEFD019B9A6871
:10386000019B5B68D31A8DF80F30019B1B68019A8E
:1038700052681A6007E0019B1A681368591C1160AE
:103880009DF80F201A709DF80F305A1E8DF80F20EA
:10389000002BF0D1019B1B6800221A7100231846EF
:1038A00005B05DF804FB00BF7890000000B585B05E
:1038B0000190019B002B04D11C494FF49270FFF73B
:1038C000BBFD002303930020FFF78EF9019B1B68CB
:1038D0001A68019B5B689A421FD9019B1B681A6892
:1038E000013A1A601B681B7819460198FFF74CFFD4
:1038F0000390019B9A68019B1B681B68D31A8DF883
:103900000B30019B1B681B799DF80B209A4204D950
:10391000019B1B689DF80B201A710020FFF778F9B6
:10392000039B184605B05DF804FB00BF78900000CB
:1039300010B584B001900091019B002B04D1114976
:1039400040F24710FFF778FD009B002B04D10D4992
:103950004FF4A470FFF770FD009B03930020FFF766
:1039600043F9019B1B681C68621C1A60039901984B
:10397000FFF726FF034623700020FFF749F900BF39
:1039800004B010BD7890000000B583B00190019B99
:10399000002B03D10C493120FFF74EFD019B9B68A2
:1039A000002B0CD0019B5B69019A1069019A116888
:1039B000019A92689847019B00229A6000E000BF3C
:1039C00003B05DF804FB00BFD89000000EB400B552
:1039D00084B00190019B002B03D118494220FFF7CE
:1039E0002BFD019B5B69002B03D114494320FFF79A
:1039F00023FD019B1B68002B03D110494420FFF7D6
:103A00001BFD019B5B68002B03D10C494520FFF790
:103A100013FD059B002B0AD00023039306AB0393F1
:103A200003AB1A460599019800F0B8F900E000BF11
:103A300004B05DF804EB03B0704700BFD8900000FD
:103A400000B583B001900B468DF803309DF803302C
:103A50000A2B03D10D210198FFF7F2FF019B1A6891
:103A6000019B9B68581C0199886013449DF80320B2
:103A70001A70019B9A68019B5B689A4202D3019875
:103A8000FFF782FF00BF03B05DF804FB00B587B00D
:103A9000039002910192009300230593009B03F091
:103AA0000103002B24D00BE0029B01330293059B02
:103AB000013305939DF8133019460398FFF7C0FFB3
:103AC000029B1B788DF813309DF81330002BEBD13F
:103AD00006E0019B013B019320210398FFF7B0FF13
:103AE000019A059B9A422ED9019B002BF1D12AE025
:103AF000029B002B0BD0029804F0A5FE059006E077
:103B0000019B013B019320210398FFF799FF019A44
:103B1000059B9A420FD9019B002BF1D10BE0029B30
:103B200001330293059B013305939DF81330194629
:103B30000398FFF785FF029B1B788DF813309DF8E3
:103B40001330002BEBD100BF07B05DF804FB000081
:103B500000B589B00390029101920093029B0793F4
:103B60000123069307E0079A019BB2FBF3F3079347
:103B7000069B01330693079A019B9A42F3D2009A5F
:103B8000069B9A4201D9009B06930B9B03F001030D
:103B9000002B22D10A9B002B1FD00B9B03F00203AA
:103BA000002B06D0009B002B03D130238DF817305B
:103BB00002E020238DF8173008E00A9B013B0A93AE
:103BC0009DF8173019460398FFF73AFF0A9B002B20
:103BD00003D0069A0A9B9A42EFD301230793009BD6
:103BE000012B03D9009B013B009309E0029A079B3C
:103BF000B2FBF3F30493049A019B9A4200D205E0CE
:103C0000079B019A02FB03F30793E8E7029A079BDD
:103C1000B2FBF3F30493049B079A02FB03F3029AAB
:103C2000D31A0293154A049B13441B781946039830
:103C3000FFF706FF079A019BB2FBF3F30793079B7D
:103C4000002BE3D10B9B03F00103002B11D00A9B47
:103C5000002B0ED006E00A9B013B0A93202103981B
:103C6000FFF7EEFE0A9B002B03D0069A0A9B9A42AE
:103C7000F1D300BF09B05DF804FB00BF88910000DC
:103C800000B589B00590049103920293049B002B28
:103C9000B8BF5B4206930123079307E0039B069A94
:103CA00092FBF3F30693079B01330793039B069A5A
:103CB0009A42F3DA029A079B9A4201D9029B079330
:103CC0000A9B002B0AD0049B002B04DB0B9B03F008
:103CD0000403002B02D00A9B013B0A930B9B03F0C9
:103CE0000203002B02D0029B002B16D00B9B03F08B
:103CF0000103002B11D10A9B002B0ED006E00A9B7A
:103D0000013B0A9320210598FFF79AFE0A9B002B9E
:103D100003D0079A0A9B9A42F1D3049B002B07DA3F
:103D2000049B5B4204932D210598FFF789FE08E070
:103D30000B9B03F00403002B03D02B210598FFF706
:103D40007FFE0B9B03F00203002B19D00B9B03F0AB
:103D50000103002B14D1029B002B11D10A9B002BD5
:103D60000ED006E00A9B013B0A9330210598FFF72D
:103D700067FE0A9B002B03D0079A0A9B9A42F1D355
:103D800004990B9B01930A9B0093029B039A05984D
:103D9000FFF7DEFE00BF09B05DF804FB00B58FB091
:103DA000059004910392059B002B04D1AD4940F28C
:103DB0005220FFF741FB059B5B69002B04D1A94909
:103DC0004FF41570FFF738FB059B1B68002B04D1DF
:103DD000A44940F25520FFF72FFB059B5B68002BA1
:103DE00004D1A04940F25620FFF726FB049B002B8C
:103DF00000F09381049B1B788DF83730049B0133CE
:103E000004939DF83730002B00F07E819DF8373009
:103E1000252B40F06D8100230A9301230C93049B12
:103E20001B788DF837309DF83730302B0DD0302B84
:103E30001BDC2B2B11D02D2B17D10A9B43F0010338
:103E40000A93049B0133049312E00A9B43F002039C
:103E50000A93049B013304930AE00A9B43F0040392
:103E60000A93049B0133049302E000230C9300BFE8
:103E70000C9B002BD3D1002309939DF837302A2BBC
:103E80000CD1039B1B68191D039A11601B68099ACA
:103E900013440993049B013304931AE0049B1B7899
:103EA0008DF837309DF837302F2B12D99DF83730E9
:103EB000392B0ED8049B01330493099A13469B00B7
:103EC00013445B001A469DF837301344303B099386
:103ED000D3E700230B93049B1B788DF837309DF8B4
:103EE00037302E2B1DD1049B01330493049B1B7888
:103EF0008DF837309DF837302F2B12D99DF8373099
:103F0000392B0ED8049B013304930B9A13469B0064
:103F100013445B001A469DF837301344303B0B9333
:103F2000E4E7049B1B788DF837309DF837306C2B15
:103F300003D09DF83730682B07D1049B01330493DD
:103F4000049B1B788DF83730EFE79DF83730252B31
:103F500000F0C480252BC0F2C680782B00F3C3800C
:103F6000582BC0F2C080583B202B00F2BC8001A22D
:103F700052F823F069400000E7400000E7400000ED
:103F8000E7400000E7400000E7400000E740000095
:103F9000E7400000E7400000E7400000E740000085
:103FA000F93F00001B400000E7400000E740000030
:103FB000E7400000E74000001B400000E740000031
:103FC000E7400000E7400000E7400000E740000055
:103FD000E7400000A9400000E7400000E740000083
:103FE0008D400000E74000003F400000E740000037
:103FF000E740000069400000039B1B68191D039AFD
:1040000011601B680C930C9B8DF81F309DF81F30BE
:1040100019460598FFF714FD66E0039B1B68191D00
:10402000039A11601B680C930A9B0193099B0093F0
:104030000B9B0A220C990598FFF722FE54E0039B84
:104040001B68191D039A11601B680C930C990A9B3D
:104050000193099B00930B9B0A220598FFF778FDBB
:1040600042E000BF2C910000039B1B68191D039ABE
:1040700011601B680C930C990A9B0193099B009398
:104080000B9B10220598FFF763FD2DE0039B1B6837
:10409000191D039A11601B6808930A9B099A0899D5
:1040A0000598FFF7F3FC1FE0039B1B68191D039A9B
:1040B00011601B680C9330210598FFF7C1FC782133
:1040C0000598FFF7BDFC0C9900230193082300938A
:1040D000082310220598FFF73BFD05E025210598F0
:1040E000FFF7AEFC00E000BF049B0133049305E042
:1040F0009DF8373019460598FFF7A2FC049B1B7802
:10410000002B7FF477AE00E000BF059B1B7B002BEC
:1041100004D00598FFF738FC00E000BF0FB05DF851
:1041200004FB00BF00B583B001900198FFF762FB6C
:104130000346184603B05DF804FB00B58BB0019050
:104140000091019B1B8A043B0793009A079B134431
:10415000DA1C079BB2FBF3F38DF81B300198FFF7D5
:10416000A5FB0590059B002B01D1002338E0059BA2
:1041700000221A71059B01225A71079B9AB2059B76
:10418000DA80059B09939DF81B30013B0493099B42
:10419000019A1A60002308931DE00198FFF786FB3F
:1041A0000390039B002B0ED0059B5B790133DAB2A1
:1041B000059B5A71099B039A1A60039B019A1A6026
:1041C000039B099304E0059800F00EF8002307E034
:1041D000089B01330893089A049B9A42DDD3059B00
:1041E00018460BB05DF804FB00B58BB00190019B45
:1041F0000793079B5B798DF81B30019B08939DF813
:104200001B30013B05930023099305E0089B1B68C5
:104210000893099B01330993099A059B9A42F5D3A8
:10422000089B1B680493019B0893002309930BE0F0
:10423000089B1B68039308990498FFF779FB039B7D
:104240000893099B013309939DF81B30099A9A4200
:10425000EED300BF00BF0BB05DF804FB00B585B026
:104260000190019B0393039B043301211846FFF740
:1042700042FA00BF05B05DF804FB00B587B00190BD
:10428000019B0593059B043301211846FFF74BFA68
:104290000346039303AB0493049B1B78002B02D1CA
:1042A0000198FFF7A1FF00BF07B05DF804FB000015
:1042B00000B591B00390029101920093039B002BF3
:1042C00003D14349B620FFF7B7F8039B0993039B3B
:1042D0000F93099BDB881A46099B5B7902FB03F36A
:1042E000043B0893009A089B9A4203D33849C420A0
:1042F000FFF7A2F8099BDB880793009B1A1D079B19
:10430000B2FBF3F30E93009B0433079AB3FBF2F274
:10431000079901FB02F29B1A0D93019B1A68009BFF
:104320001344089A9A4203D2089A009BD31A01E0D8
:10433000019B1B680C93019B0C9A1A6005E00F9B74
:104340001B680F930E9B013B0E930E9B002BF6D127
:1043500000230B93079A0D9BD31A0A930A9A0C9B7E
:10436000934228BF13460A932AE0029A0B9B1344F8
:1043700006930F9A0D9B1344043305939DF8483020
:10438000002B05D00A9A0599069804F071FA04E00A
:104390000A9A0699059804F06BFA00230D930F9B77
:1043A0001B680F930C9A0A9BD31A0C930B9A0A9BC7
:1043B00013440B93079A0C9B934228BF13460A930E
:1043C0000C9B002BD1D100BF00BF11B05DF804FBE6
:1043D0009891000000B589B0059004910392029372
:1043E000039B079307AA00230093029B0499059857
:1043F000FFF75EFF079B039A9A4203D00349F6201A
:10440000FFF71AF800BF09B05DF804FB98910000AF
:1044100000B589B00590049103920293039B079322
:1044200007AA01230093029B04990598FFF740FF18
:10443000079B039A9A4204D004494FF48070FEF718
:10444000FBFF00BF09B05DF804FB00BF98910000BE
:1044500082B00190019B9B6800229A60019B9B683F
:1044600000221A61019B9B6800225A61019B9B6894
:104470000022DA60019B9B6800225A60019B9B68C6
:1044800000221A6000BF02B07047000000B585B07E
:1044900001900091019B002B03D118493A20FEF7AF
:1044A000CBFF009B002B03D114493B20FEF7C4FF38
:1044B000019B5B6803930FE0019B9B68039A126862
:1044C000009910469847034683F00103DBB2002BA6
:1044D00007D1039B1B680393039B1B68002BEBD145
:1044E00000E000BF039B1A68009B1A60039B009AC0
:1044F0001A6000BF05B05DF804FB00BF0492000025
:1045000000B585B00190019B002B03D10C495120CF
:10451000FEF792FF019B5B681B680393019B5B683E
:104520001B68002B06D0019B5B681A68019B5B68C7
:1045300012681A60039B184605B05DF804FB00BFC3
:104540000492000000B583B00190019B002B03D1C1
:1045500005495D20FEF770FF019B5B681B681846EC
:1045600003B05DF804FB00BF0492000000B585B005
:1045700001900091019B002B03D116496920FEF7A1
:104580005BFF009B002B03D112496A20FEF754FF0A
:1045900000238DF80B30019B5B6803930FE0039BB6
:1045A0001B68009A9A4207D1009B1A68039B1A6005
:1045B00001238DF80B3006E0039B1B680393039BDC
:1045C0001B68002BEBD19DF80B30184605B05DF849
:1045D00004FB00BF0492000000B585B00190019873
:1045E00000F00EF80390039B002B01D0039B00E02A
:1045F000024B184605B05DF804FB00BF689200004E
:1046000086B00190164B0593164B04931FE0049A55
:10461000059BD31ADB10DA0F13445B10DB00059AFD
:1046200013440393039B1B680293029A019B9A42D3
:1046300002D9039B04930AE0029A019B9A4203D297
:10464000039B0833059302E0039B5B6804E0059A33
:10465000049B9A42DBD30023184606B0704700BF84
:104660003C9600005497000000B589B0019000917D
:10467000009B0793019B1B788DF80C30019B5B68B6
:104680000493019B9B68DBB28DF81430019BDB68BF
:104690000693074A079B52F823300649079A51F8B8
:1046A000221003AA1046984700BF09B05DF804FB2A
:1046B000CC070020D407002000B589B001900091FC
:1046C000009B0793019B1B788DF80C30019B5B6866
:1046D0000493019B9B68DBB28DF81430019BDB686F
:1046E0000693074A079B52F823300649079A51F868
:1046F000221003AA1046984700BF09B05DF804FBDA
:10470000CC070020D407002030B58FB00390029171
:104710000192039B1B780C9326490C9B019A41F84C
:104720002320029B1A6924490C9B41F82320029BF9
:104730005B7F1946214A0C9B13440A461A70029B60
:1047400004AC1D460FCD0FC495E80F0084E80F00A0
:104750000C9B089300230D93039B1B781A46174B61
:104760009B5C002B0DD0039B181D019B002B01D0DF
:10477000134A00E0002204AB194602F0D1F80D9074
:1047800014E0039B1B781A460C4B9B5C002B0DD14D
:10479000039B03F10C00019B002B01D0094A00E0B0
:1047A000002204AB194601F059FA0D900D9B1846F2
:1047B0000FB030BDCC070020D4070020DC0700205C
:1047C00069460000B946000082B003468DF8073004
:1047D0009DF90730002B0CDB9DF8073003F01F021A
:1047E00005499DF907305B09012000FA02F241F802
:1047F000232000BF02B0704700E100E082B0034612
:1048000000918DF807309DF90730002B0ADB009BE3
:10481000DAB20C499DF907305201D2B20B4483F849
:1048200000230BE0009BDAB207499DF8073003F044
:104830000F03043B5201D2B20B441A7600BF02B000
:10484000704700BF00E100E000ED00E082B00190A1
:10485000019B1B0B5BB2184602B0704700B583B0DA
:1048600003460A468DF8073013468DF806309DF84A
:104870000630072B03D908496B20FEF7DDFD9DF8B4
:1048800006209DF9073011461846FFF7B7FF00BF15
:1048900003B05DF804FB00BF5497000000B583B07F
:1048A00003468DF807309DF907301846FFF78CFF57
:1048B00000BF03B05DF804FB00B583B00346ADF85C
:1048C0000630BDF80630184600F026F803461B688F
:1048D000012B0CBF01230023DBB2184603B05DF8A7
:1048E00004FB00B585B00346ADF80630BDF80630D0
:1048F000184600F011F803461A4600231360BDF86D
:104900000630184600F008F803461B680393039B23
:1049100000BF05B05DF804FB82B00346ADF8063079
:10492000BDF8063003F1804303F5C043184602B0DA
:104930007047000082B00190034A019BC2F8043323
:1049400000BF02B0704700BF0060004082B001901D
:10495000034BD3F80423019B1340184602B0704761
:104960000060004082B00190084A019B03F5A273E9
:1049700052F82330054943F00102019B03F5A2736D
:1049800041F8232000BF02B0704700BF0060004024
:1049900084B00390029113468DF80730144A039BAC
:1049A00003F5A27352F82330114923F4473323F45B
:1049B0004073039A02F5A27241F822300C4A039B1D
:1049C00003F5A27352F82320029B1B0203F4F85153
:1049D0009DF807301B0403F440330B4304491A438A
:1049E000039B03F5A27341F8232000BF04B0704776
:1049F0000060004082B00190054A019B03F5A2735C
:104A000052F823301B0A03F01F03184602B0704708
:104A10000060004082B00190064A019B03F5A2733A
:104A200052F823301B0C03F00303DBB2184602B02C
:104A3000704700BF0060004000B583B00190019B4B
:104A40001B68184600F014F90346002B04D10549F1
:104A50004FF4F670FEF7F0FC4FF0A043184603B099
:104A60005DF804FB8897000000B585B0019008460A
:104A700011461A4603468DF803300B468DF8023076
:104A800013468DF8013001AB1846FFF7D5FF0390B0
:104A90009DF803209DF802305B001A439DF8013019
:104AA0009B001A439DF818301B0242EA03019DF84F
:104AB0001C301B04019A1943039B02F5E07243F872
:104AC000221000BF05B05DF804FB00B585B003906F
:104AD0000B468DF80B309DF80B300022019200221E
:104AE0000092002200210398FFF7BEFF00BF05B02F
:104AF0005DF804FB00B585B0019001AB1846FFF7E7
:104B00009BFF0390019A039B02F5E07253F8223059
:104B100023F002030293019A039B02F5E0720299CB
:104B200043F8221000BF05B05DF804FB00B585B066
:104B300001900B468DF8033001AB1846FFF77CFF60
:104B40000390019A039B02F5E07253F82230019A18
:104B500023F44031039B02F5E07243F82210019ADE
:104B6000039B02F5E07253F822109DF803301B04FA
:104B7000019A1943039B02F5E07243F8221000BF2B
:104B800005B05DF804FB00B585B0019001AB184697
:104B9000FFF752FF0390039800F020F80246019BB4
:104BA00022FA03F303F00103184605B05DF804FB95
:104BB00000B585B0019001AB1846FFF73DFF0390AB
:104BC000019A039B02F5E07253F822301B0C03F0AC
:104BD0000303DBB2184605B05DF804FB82B0019018
:104BE000019BD3F81035184602B0704786B0039089
:104BF000029101924FF0A0430493039B059319E0A7
:104C0000059B9B0018336B4453F8083CD3F82025D0
:104C1000019B1A60059B9B0018336B4453F8083CBA
:104C2000019A1268C3F82025019B04330193059B68
:104C300001330593039A029B1344059A9A42DFD3EA
:104C400000BF00BF06B0704700B585B0019001AB52
:104C50001846FFF7F1FE0390019B012202FA03F3CD
:104C60001A46039BC3F8202500BF05B05DF804FB7E
:104C700084B00190019B5B09029300230393029B84
:104C8000002B03D14FF0FF33039300BF019B03F0D0
:104C90001F030193039A019B22FA03F303F001031C
:104CA000DBB2184604B0704784B001900091009BBD
:104CB0000393019BDB080293019B03F0070301931D
:104CC0000122019B02FA03F30399029A0A44127823
:104CD0001340184604B0704784B001900091009BC7
:104CE0000393019BDB080293019B03F007030193ED
:104CF000039A029B13441B785AB20121019B01FACB
:104D000003F35BB2134359B2039A029B1344CAB232
:104D10001A7000BF04B0704782B001900C4A019B2A
:104D20001344303393F90030002B09DB084A019B10
:104D30001344303393F90030072B01DC012300E0EA
:104D4000002303F00103DBB2184602B0704700BF36
:104D5000E007002082B00190064A019B13443033E3
:104D600093F90030072BCCBF01230023DBB2184698
:104D700002B07047E007002082B00190064A019B14
:104D80001344303393F90030DB43DBB2DB09DBB291
:104D9000184602B0704700BFE007002084B00390BF
:104DA000029101928DF80330029B59B20E4A039B87
:104DB000134430330A461A700B49029B019A41F89A
:104DC00023209DF8033083F00103DBB2002B08D0D1
:104DD000029B083B039A51B2034A13440A4683F8E4
:104DE000502000BF04B07047E007002082B001905F
:104DF000044A019B13443033FF221A7000BF02B0F3
:104E0000704700BFE007002000B583B0019004495F
:104E10000198FFF761FF00BF03B05DF804FB00BF1E
:104E20003408002082B00190044A019B13443033BF
:104E300093F90030184602B0704700BFE007002029
:104E400082B00190034A019B52F82330184602B009
:104E5000704700BFE007002084B00190074A019B23
:104E60001344503393F900308DF80F309DF80F3014
:104E700023F0C003184604B0704700BFE0070020CD
:104E800084B00190074A019B1344503393F90030DA
:104E90008DF80F309DF80F309B09DBB2184604B037
:104EA000704700BFE007002000B589B00390029171
:104EB00013468DF80730FF238DF81F309DF807301B
:104EC000002B01D0002300E0082305939DF8073054
:104ED000002B01D0082300E00C230493059B0693CC
:104EE00014E00F4A069B52F82330B3F1FF3F0AD17A
:104EF0009DF80730029A06990398FFF74FFF069B2B
:104F00008DF81F3006E0069B01330693069A049B3A
:104F10009A42E6D39DF91F30184609B05DF804FBAC
:104F2000E007002082B003468DF807309DF8073077
:104F3000094A4FF0FF3142F823109DF80730072B44
:104F400007D99DF80730083B034A1344FF2283F832
:104F5000502000BF02B07047E007002000B583B0CA
:104F60002D4B93F85830002B03D008230093009B5F
:104F70004EE000238DF8073011E09DF80730184609
:104F8000FFF776FE0346002B04D09DF80730184645
:104F9000FFF72CFF9DF8073001338DF807309DF89F
:104FA00007301F2BE9D900238DF8073009E09DF861
:104FB00007301846FFF7B6FF9DF8073001338DF82C
:104FC00007309DF807300B2BF1D90422002113483C
:104FD00003F080FC1248FFF739FC0346062118460F
:104FE000FFF73CFC0E48FFF731FC03461846FFF77D
:104FF00055FC4FF4BE70FFF774FC4FF00040FFF714
:1050000099FC054B012283F8582000230093009B54
:10501000184603B05DF804FBE007002034080020C8
:1050200000600040044B93F85830002B14BF01235C
:105030000023DBB218467047E007002000B587B0B8
:105040000390029101920398FFF712FE0346002B92
:1050500004D137494FF40C70FEF7EEF900230593A5
:105060000398FFF789FE0346002B02D0082305931F
:1050700058E0029B9B78C3F34003DBB21A460199C8
:105080000398FFF711FF03468DF813309DF9133095
:10509000B3F1FF3F44D0029B9B78C3F38003DBB2A4
:1050A00083F00103DBB2002B13D0029B9B7803F04B
:1050B0000103DBB2002B03D00398FFF71BFD05E0D3
:1050C000029B5B7819460398FFF7FFFC0398FFF7F4
:1050D0009BFE029B9B7803F00203DBB2002B08D0FF
:1050E0009DF91300029B1B781A460399FFF750FCA9
:1050F00018E09DF91330083B0E4A134493F9501001
:10510000029B1B785BB29B015AB29DF91330083B9E
:105110000A4351B2074A13440A4683F8502001E07B
:1051200004230593059B184607B05DF804FB00BFF8
:10513000C4970000E007002000B589B001900B463D
:105140008DF803300198FFF793FD0346002B04D13F
:105150003A494FF41870FEF76FF90198FFF70CFE0B
:105160000346002B04D1354940F26120FEF764F973
:105170000198FFF7EFFD0346002B2AD00198FFF7B7
:1051800051FE0346083B1846FFF77AFE03468DF8AA
:105190000F309DF80F30032B0BD10198FFF7F3FC74
:1051A0000346002B01D0032300E002238DF81F30BB
:1051B00008E09DF80F30012B01D1022300E003230A
:1051C0008DF81F309DF81F3019460198FFF7AEFC8F
:1051D00030E00198FFF7A0FD0346002B2AD001988C
:1051E000FFF720FE03460693069B9BB240339BB21B
:1051F0009B00ADF81630069B1846FFF7B3FBBDF8D1
:1052000016301846FFF76DFB9DF80330002B11D0C8
:105210000198FFF707FE03461846FFF711FE0490BA
:10522000049B002B06D00122069B02FA03F31846CA
:10523000FFF780FB00BF09B05DF804FBC4970000D6
:1052400000B583B001900198FFF712FD0346002BD3
:1052500004D1094940F2B220FEF7EEF80198FFF7B9
:1052600092FC0346002B14BF01230023DBB2184637
:1052700003B05DF804FB00BFC497000000B585B023
:105280000190019A01210020FFF7B0FC0023039355
:105290000BE0039B9B00019A13441B68002B01D079
:1052A000012306E0039B01330393039B002BF0D003
:1052B0000023184605B05DF804FB000000B587B078
:1052C0000190002305935BE0344A059B134450335F
:1052D00093F90030B3F1FF3F4ED00598FFF7BCFDC6
:1052E000049001990498FFF7DFFC0346002B44D09B
:1052F0000598FFF7C5FD03468DF80F300498FFF7BA
:1053000057FC03468DF80E309DF80E30022B01D16C
:10531000032300E002238DF80D309DF80D3019466F
:105320000498FFF703FC0498FFF78EFC0498FFF73E
:1053300079FD03461846FFF783FD0290029B002B80
:105340001BD09DF80F30032B0FD09DF80E30022B91
:1053500003D19DF80F30012B07D09DF80E30032BA1
:105360000BD19DF80F30022B07D19DF80F20029B27
:1053700011460498984700E000BF059B0133059350
:10538000059B032BA0D90198FFF778FF0346002B5C
:1053900097D100BF00BF07B05DF804FBE007002015
:1053A00000B589B000230693002300934FF4807367
:1053B000ADF81230012307930023059321E0BDF8D7
:1053C00012301846FFF778FA0346002B0ED00798E4
:1053D000FFF7BCFA0346002B08D0BDF81230184680
:1053E000FFF77FFA069A079B13430693079B5B0020
:1053F0000793BDF812300433ADF81230059B01332A
:105400000593059B072BDAD94FF4BE70FFF754FACA
:105410000346002B0DD04FF4BE70FFF762FA069BD7
:1054200043F0004306936B461A4601210020FFF724
:10543000DDFB069BDBB2002B29D001230793002361
:10544000059321E0079A069B1340002B16D0059880
:10545000FFF7D0FA03900598FFF7DCFA03468DF8C2
:105460000B300598FFF7ECFC0190019B002B05D059
:105470009DF80B20019B114603989847079B5B0002
:105480000793059B01330593059B072BDAD9069BF0
:10549000002B03DA6B461846FFF710FF00BF09B078
:1054A0005DF804FB08B5064B1B68002B03D10549CA
:1054B0005120FDF7C1FF024B1B68984708BD00BF94
:1054C0003C0800202498000082B00190019B044A0F
:1054D000934201D1034B00E00023184602B070470D
:1054E000002000403C08002000B587B001900091EA
:1054F000019B002B03D118497720FDF79DFF0198F0
:10550000FFF7E2FF0590059B002B1ED000238DF8CE
:1055100013300020FDF768FB059B1B79002B03D09F
:1055200001238DF8133005E0059B009A1A60059B56
:1055300001221A710020FDF76BFB9DF81330002B40
:1055400003D011230393039B02E000230393039BE7
:10555000184607B05DF804FB2498000000B585B03C
:105560000190019B002B03D10A499B20FDF764FFAA
:105570000198FFF7A9FF0390039B002B05D0039B25
:1055800000221A60039B00221A7100BF05B05DF86B
:1055900004FB00BF2498000082B003468DF807305A
:1055A0009DF90730002B0CDB9DF8073003F01F023C
:1055B00005499DF907305B09012000FA02F241F824
:1055C000232000BF02B0704700E100E082B0034634
:1055D0008DF807309DF90730002B13DB9DF807305D
:1055E00003F01F0209499DF907305B09012000FA09
:1055F00002F2203341F82320BFF34F8F00BFBFF3E7
:105600006F8F00BF00BF02B0704700BF00E100E035
:1056100082B0034600918DF807309DF90730002BCA
:105620000ADB009BDAB20C499DF907305201D2B275
:105630000B4483F800230BE0009BDAB207499DF886
:10564000073003F00F03043B5201D2B20B441A7629
:1056500000BF02B0704700BF00E100E000ED00E0D5
:1056600082B00190019B1B0B5BB2184602B07047E1
:1056700000B583B003460A468DF8073013468DF80F
:1056800006309DF80630072B03D908496B20FDF73B
:10569000D3FE9DF806209DF9073011461846FFF706
:1056A000B7FF00BF03B05DF804FB00BF80980000A7
:1056B00000B583B003468DF807309DF907301846D2
:1056C000FFF76AFF00BF03B05DF804FB00B583B0CD
:1056D00003468DF807309DF907301846FFF776FF2F
:1056E00000BF03B05DF804FB84B001900B46ADF839
:1056F0000230BDF80230019A134400221A60BDF84E
:105700000230019A13441B680393039B00BF04B04B
:10571000704782B001900B46ADF80230BDF8023000
:10572000019A13441B68002B14BF01230023DBB232
:10573000184602B0704782B001900091019B009A18
:10574000C3F8042300BF02B0704782B001900091FB
:10575000019BD3F80423009B1340002B14BF0123AB
:105760000023DBB2184602B0704782B0019000916E
:10577000019B009AC3F8082300BF02B0704784B0B1
:105780000190019BD3F880340393019B039AC3F8E3
:105790008024039B184604B0704782B00190019B9F
:1057A0000422C3F8002500BF02B0704782B0019008
:1057B000019B0022C3F8002500BF02B0704784B0EF
:1057C000039002910192039B019AC3F81425039B55
:1057D000029AC3F80C2500BF04B0704700B583B02F
:1057E00001904FF0FF324FF0FF310198FFF7E7FFD4
:1057F00000BF03B05DF804FB82B00190019BD3F8B9
:105800000C35184602B0704782B00190019BD3F866
:105810001435184602B0704782B00190019BD3F84E
:105820000835184602B0704782B00190019BD3F84A
:105830001035184602B0704784B00390029101926F
:10584000039B029AC3F80825039B019AC3F810250D
:1058500000BF04B0704700B583B001904FF0FF3235
:105860004FF0FF310198FFF7E7FF00BF03B05DF88D
:1058700004FB82B00190019BD3F81835DBB21846C7
:1058800002B0704782B001900B468DF803309DF84E
:105890000320019BC3F81C2500BF02B0704782B0F3
:1058A00001900B468DF803309DF80330019A1344A4
:1058B00001221A6000BF02B0704782B001900B460F
:1058C0008DF8033013468DF802309DF803209DF8C3
:1058D00002301343DBB21A46019BC3F86C2500BFAC
:1058E00002B0704782B001900091019B009AC3F80A
:1058F000242500BF02B0704700B583B00190019B22
:105900001B68184600F096F80346002B04D10549A1
:105910004FF4F670FDF790FD4FF0A043184603B02A
:105920005DF804FBB498000000B585B0019008460E
:1059300011461A4603468DF803300B468DF80230A7
:1059400013468DF8013001AB1846FFF7D5FF0390E1
:105950009DF803209DF802305B001A439DF801304A
:105960009B001A439DF818301B0242EA03019DF880
:105970001C301B04019A1943039B02F5E07243F8A3
:10598000221000BF05B05DF804FB00B585B00390A0
:105990000023019300230093002301220121039897
:1059A000FFF7C2FF00BF05B05DF804FB00B585B08E
:1059B00003900B468DF80B309DF80B3000220192BE
:1059C00000220092002200210398FFF7ADFF00BFE4
:1059D00005B05DF804FB00B585B00390002301938A
:1059E000002300930023012200210398FFF79CFF6E
:1059F00000BF05B05DF804FB00B585B0019001ABB8
:105A00001846FFF779FF0390019B012202FA03F386
:105A10001946039800F004F800BF05B05DF804FBD8
:105A200082B001900091019B009AC3F8082500BF45
:105A300002B0704784B00190019B5B090293002380
:105A40000393029B002B03D14FF0FF33039300BF5E
:105A5000019B03F01F030193039A019B22FA03F3B6
:105A600003F00103DBB2184604B0704700B583B001
:105A700001900091009B1B68B3F1FF3F09D0009B90
:105A80001B681846FFF7B8FF009B1B681846FFF716
:105A90007CFF009B5B68B3F1FF3F05D0009B5B6818
:105AA00000211846FFF782FF019B1A68009B9B6943
:105AB00019461046FFF716FF019B1868009B597D99
:105AC000009B1B7D1A46FFF7F8FE019B1868009BA0
:105AD0001968009B5B681A46FFF771FE009B1B7DEF
